{
	"docs.chain.link/samples/APIRequests/APIConsumer.sol": {
		"APIConsumer": {
			"abi": [
				{
					"inputs": [],
					"stateMutability": "nonpayable",
					"type": "constructor"
				},
				{
					"anonymous": false,
					"inputs": [
						{
							"indexed": true,
							"internalType": "bytes32",
							"name": "id",
							"type": "bytes32"
						}
					],
					"name": "ChainlinkCancelled",
					"type": "event"
				},
				{
					"anonymous": false,
					"inputs": [
						{
							"indexed": true,
							"internalType": "bytes32",
							"name": "id",
							"type": "bytes32"
						}
					],
					"name": "ChainlinkFulfilled",
					"type": "event"
				},
				{
					"anonymous": false,
					"inputs": [
						{
							"indexed": true,
							"internalType": "bytes32",
							"name": "id",
							"type": "bytes32"
						}
					],
					"name": "ChainlinkRequested",
					"type": "event"
				},
				{
					"anonymous": false,
					"inputs": [
						{
							"indexed": true,
							"internalType": "address",
							"name": "from",
							"type": "address"
						},
						{
							"indexed": true,
							"internalType": "address",
							"name": "to",
							"type": "address"
						}
					],
					"name": "OwnershipTransferRequested",
					"type": "event"
				},
				{
					"anonymous": false,
					"inputs": [
						{
							"indexed": true,
							"internalType": "address",
							"name": "from",
							"type": "address"
						},
						{
							"indexed": true,
							"internalType": "address",
							"name": "to",
							"type": "address"
						}
					],
					"name": "OwnershipTransferred",
					"type": "event"
				},
				{
					"anonymous": false,
					"inputs": [
						{
							"indexed": true,
							"internalType": "bytes32",
							"name": "requestId",
							"type": "bytes32"
						},
						{
							"indexed": false,
							"internalType": "string",
							"name": "fact",
							"type": "string"
						}
					],
					"name": "RequestFact",
					"type": "event"
				},
				{
					"inputs": [],
					"name": "acceptOwnership",
					"outputs": [],
					"stateMutability": "nonpayable",
					"type": "function"
				},
				{
					"inputs": [],
					"name": "fact",
					"outputs": [
						{
							"internalType": "string",
							"name": "",
							"type": "string"
						}
					],
					"stateMutability": "view",
					"type": "function"
				},
				{
					"inputs": [
						{
							"internalType": "bytes32",
							"name": "_requestId",
							"type": "bytes32"
						},
						{
							"internalType": "string",
							"name": "_fact",
							"type": "string"
						}
					],
					"name": "fulfill",
					"outputs": [],
					"stateMutability": "nonpayable",
					"type": "function"
				},
				{
					"inputs": [],
					"name": "owner",
					"outputs": [
						{
							"internalType": "address",
							"name": "",
							"type": "address"
						}
					],
					"stateMutability": "view",
					"type": "function"
				},
				{
					"inputs": [
						{
							"internalType": "uint256",
							"name": "factNumber",
							"type": "uint256"
						}
					],
					"name": "requestVolumeData",
					"outputs": [
						{
							"internalType": "bytes32",
							"name": "requestId",
							"type": "bytes32"
						}
					],
					"stateMutability": "nonpayable",
					"type": "function"
				},
				{
					"inputs": [
						{
							"internalType": "address",
							"name": "to",
							"type": "address"
						}
					],
					"name": "transferOwnership",
					"outputs": [],
					"stateMutability": "nonpayable",
					"type": "function"
				},
				{
					"inputs": [],
					"name": "withdrawLink",
					"outputs": [],
					"stateMutability": "nonpayable",
					"type": "function"
				}
			],
			"devdoc": {
				"kind": "dev",
				"methods": {},
				"version": 1
			},
			"evm": {
				"assembly": "    /* \"docs.chain.link/samples/APIRequests/APIConsumer.sol\":551:2655  contract APIConsumer is ChainlinkClient, ConfirmedOwner {... */\n  mstore(0x40, 0x80)\n    /* \"@chainlink/contracts/src/v0.8/ChainlinkClient.sol\":1291:1292  1 */\n  0x01\n    /* \"@chainlink/contracts/src/v0.8/ChainlinkClient.sol\":1258:1292  uint256 private s_requestCount = 1 */\n  0x04\n  sstore\n    /* \"docs.chain.link/samples/APIRequests/APIConsumer.sol\":1105:1436  constructor() ConfirmedOwner(msg.sender) {... */\n  callvalue\n  dup1\n  iszero\n  tag_1\n  jumpi\n  0x00\n  dup1\n  revert\ntag_1:\n  pop\n    /* \"docs.chain.link/samples/APIRequests/APIConsumer.sol\":1134:1144  msg.sender */\n  caller\n    /* \"@chainlink/contracts/src/v0.8/ConfirmedOwner.sol\":327:335  newOwner */\n  dup1\n    /* \"@chainlink/contracts/src/v0.8/ConfirmedOwner.sol\":345:346  0 */\n  0x00\n    /* \"@chainlink/contracts/src/v0.8/ConfirmedOwnerWithProposal.sol\":572:573  0 */\n  dup1\n    /* \"@chainlink/contracts/src/v0.8/ConfirmedOwnerWithProposal.sol\":552:574  newOwner != address(0) */\n  0xffffffffffffffffffffffffffffffffffffffff\n  and\n    /* \"@chainlink/contracts/src/v0.8/ConfirmedOwnerWithProposal.sol\":552:560  newOwner */\n  dup3\n    /* \"@chainlink/contracts/src/v0.8/ConfirmedOwnerWithProposal.sol\":552:574  newOwner != address(0) */\n  0xffffffffffffffffffffffffffffffffffffffff\n  and\n  sub\n    /* \"@chainlink/contracts/src/v0.8/ConfirmedOwnerWithProposal.sol\":544:603  require(newOwner != address(0), \"Cannot set owner to zero\") */\n  tag_6\n  jumpi\n  mload(0x40)\n  0x08c379a000000000000000000000000000000000000000000000000000000000\n  dup2\n  mstore\n  0x04\n  add\n  tag_7\n  swap1\n  tag_8\n  jump\t// in\ntag_7:\n  mload(0x40)\n  dup1\n  swap2\n  sub\n  swap1\n  revert\ntag_6:\n    /* \"@chainlink/contracts/src/v0.8/ConfirmedOwnerWithProposal.sol\":620:628  newOwner */\n  dup2\n    /* \"@chainlink/contracts/src/v0.8/ConfirmedOwnerWithProposal.sol\":610:617  s_owner */\n  0x06\n  0x00\n    /* \"@chainlink/contracts/src/v0.8/ConfirmedOwnerWithProposal.sol\":610:628  s_owner = newOwner */\n  0x0100\n  exp\n  dup2\n  sload\n  dup2\n  0xffffffffffffffffffffffffffffffffffffffff\n  mul\n  not\n  and\n  swap1\n  dup4\n  0xffffffffffffffffffffffffffffffffffffffff\n  and\n  mul\n  or\n  swap1\n  sstore\n  pop\n    /* \"@chainlink/contracts/src/v0.8/ConfirmedOwnerWithProposal.sol\":662:663  0 */\n  0x00\n    /* \"@chainlink/contracts/src/v0.8/ConfirmedOwnerWithProposal.sol\":638:664  pendingOwner != address(0) */\n  0xffffffffffffffffffffffffffffffffffffffff\n  and\n    /* \"@chainlink/contracts/src/v0.8/ConfirmedOwnerWithProposal.sol\":638:650  pendingOwner */\n  dup2\n    /* \"@chainlink/contracts/src/v0.8/ConfirmedOwnerWithProposal.sol\":638:664  pendingOwner != address(0) */\n  0xffffffffffffffffffffffffffffffffffffffff\n  and\n  eq\n    /* \"@chainlink/contracts/src/v0.8/ConfirmedOwnerWithProposal.sol\":634:713  if (pendingOwner != address(0)) {... */\n  tag_9\n  jumpi\n    /* \"@chainlink/contracts/src/v0.8/ConfirmedOwnerWithProposal.sol\":674:706  _transferOwnership(pendingOwner) */\n  tag_10\n    /* \"@chainlink/contracts/src/v0.8/ConfirmedOwnerWithProposal.sol\":693:705  pendingOwner */\n  dup2\n    /* \"@chainlink/contracts/src/v0.8/ConfirmedOwnerWithProposal.sol\":674:692  _transferOwnership */\n  shl(0x20, tag_11)\n    /* \"@chainlink/contracts/src/v0.8/ConfirmedOwnerWithProposal.sol\":674:706  _transferOwnership(pendingOwner) */\n  0x20\n  shr\n  jump\t// in\ntag_10:\n    /* \"@chainlink/contracts/src/v0.8/ConfirmedOwnerWithProposal.sol\":634:713  if (pendingOwner != address(0)) {... */\ntag_9:\n    /* \"@chainlink/contracts/src/v0.8/ConfirmedOwnerWithProposal.sol\":486:717  constructor(address newOwner, address pendingOwner) {... */\n  pop\n  pop\n    /* \"@chainlink/contracts/src/v0.8/ConfirmedOwner.sol\":270:351  constructor(address newOwner) ConfirmedOwnerWithProposal(newOwner, address(0)) {} */\n  pop\n    /* \"docs.chain.link/samples/APIRequests/APIConsumer.sol\":1156:1217  setChainlinkToken(0x779877A7B0D9E8603169DdbD7836e478b4624789) */\n  tag_14\n    /* \"docs.chain.link/samples/APIRequests/APIConsumer.sol\":1174:1216  0x779877A7B0D9E8603169DdbD7836e478b4624789 */\n  0x779877a7b0d9e8603169ddbd7836e478b4624789\n    /* \"docs.chain.link/samples/APIRequests/APIConsumer.sol\":1156:1173  setChainlinkToken */\n  shl(0x20, tag_15)\n    /* \"docs.chain.link/samples/APIRequests/APIConsumer.sol\":1156:1217  setChainlinkToken(0x779877A7B0D9E8603169DdbD7836e478b4624789) */\n  0x20\n  shr\n  jump\t// in\ntag_14:\n    /* \"docs.chain.link/samples/APIRequests/APIConsumer.sol\":1227:1289  setChainlinkOracle(0x6090149792dAAeE9D1D568c9f9a6F6B46AA29eFD) */\n  tag_16\n    /* \"docs.chain.link/samples/APIRequests/APIConsumer.sol\":1246:1288  0x6090149792dAAeE9D1D568c9f9a6F6B46AA29eFD */\n  0x6090149792daaee9d1d568c9f9a6f6b46aa29efd\n    /* \"docs.chain.link/samples/APIRequests/APIConsumer.sol\":1227:1245  setChainlinkOracle */\n  shl(0x20, tag_17)\n    /* \"docs.chain.link/samples/APIRequests/APIConsumer.sol\":1227:1289  setChainlinkOracle(0x6090149792dAAeE9D1D568c9f9a6F6B46AA29eFD) */\n  0x20\n  shr\n  jump\t// in\ntag_16:\n    /* \"docs.chain.link/samples/APIRequests/APIConsumer.sol\":1299:1341  jobId = \"7d80a6386ef543a3abb52817f6707e3b\" */\n  0x3764383061363338366566353433613361626235323831376636373037653362\n    /* \"docs.chain.link/samples/APIRequests/APIConsumer.sol\":1299:1304  jobId */\n  0x09\n    /* \"docs.chain.link/samples/APIRequests/APIConsumer.sol\":1299:1341  jobId = \"7d80a6386ef543a3abb52817f6707e3b\" */\n  dup2\n  swap1\n  sstore\n  pop\n    /* \"docs.chain.link/samples/APIRequests/APIConsumer.sol\":1383:1385  10 */\n  0x0a\n    /* \"@chainlink/contracts/src/v0.8/ChainlinkClient.sol\":675:681  10**18 */\n  0x0de0b6b3a7640000\n    /* \"docs.chain.link/samples/APIRequests/APIConsumer.sol\":1358:1359  1 */\n  0x01\n    /* \"docs.chain.link/samples/APIRequests/APIConsumer.sol\":1358:1379  1 * LINK_DIVISIBILITY */\n  tag_18\n  swap2\n  swap1\n  tag_19\n  jump\t// in\ntag_18:\n    /* \"docs.chain.link/samples/APIRequests/APIConsumer.sol\":1357:1385  (1 * LINK_DIVISIBILITY) / 10 */\n  tag_20\n  swap2\n  swap1\n  tag_21\n  jump\t// in\ntag_20:\n    /* \"docs.chain.link/samples/APIRequests/APIConsumer.sol\":1351:1354  fee */\n  0x0a\n    /* \"docs.chain.link/samples/APIRequests/APIConsumer.sol\":1351:1385  fee = (1 * LINK_DIVISIBILITY) / 10 */\n  dup2\n  swap1\n  sstore\n  pop\n    /* \"docs.chain.link/samples/APIRequests/APIConsumer.sol\":551:2655  contract APIConsumer is ChainlinkClient, ConfirmedOwner {... */\n  jump(tag_22)\n    /* \"@chainlink/contracts/src/v0.8/ConfirmedOwnerWithProposal.sol\":1497:1685  function _transferOwnership(address to) private {... */\ntag_11:\n    /* \"@chainlink/contracts/src/v0.8/ConfirmedOwnerWithProposal.sol\":1565:1575  msg.sender */\n  caller\n    /* \"@chainlink/contracts/src/v0.8/ConfirmedOwnerWithProposal.sol\":1559:1575  to != msg.sender */\n  0xffffffffffffffffffffffffffffffffffffffff\n  and\n    /* \"@chainlink/contracts/src/v0.8/ConfirmedOwnerWithProposal.sol\":1559:1561  to */\n  dup2\n    /* \"@chainlink/contracts/src/v0.8/ConfirmedOwnerWithProposal.sol\":1559:1575  to != msg.sender */\n  0xffffffffffffffffffffffffffffffffffffffff\n  and\n  sub\n    /* \"@chainlink/contracts/src/v0.8/ConfirmedOwnerWithProposal.sol\":1551:1603  require(to != msg.sender, \"Cannot transfer to self\") */\n  tag_24\n  jumpi\n  mload(0x40)\n  0x08c379a000000000000000000000000000000000000000000000000000000000\n  dup2\n  mstore\n  0x04\n  add\n  tag_25\n  swap1\n  tag_26\n  jump\t// in\ntag_25:\n  mload(0x40)\n  dup1\n  swap2\n  sub\n  swap1\n  revert\ntag_24:\n    /* \"@chainlink/contracts/src/v0.8/ConfirmedOwnerWithProposal.sol\":1627:1629  to */\n  dup1\n    /* \"@chainlink/contracts/src/v0.8/ConfirmedOwnerWithProposal.sol\":1610:1624  s_pendingOwner */\n  0x07\n  0x00\n    /* \"@chainlink/contracts/src/v0.8/ConfirmedOwnerWithProposal.sol\":1610:1629  s_pendingOwner = to */\n  0x0100\n  exp\n  dup2\n  sload\n  dup2\n  0xffffffffffffffffffffffffffffffffffffffff\n  mul\n  not\n  and\n  swap1\n  dup4\n  0xffffffffffffffffffffffffffffffffffffffff\n  and\n  mul\n  or\n  swap1\n  sstore\n  pop\n    /* \"@chainlink/contracts/src/v0.8/ConfirmedOwnerWithProposal.sol\":1677:1679  to */\n  dup1\n    /* \"@chainlink/contracts/src/v0.8/ConfirmedOwnerWithProposal.sol\":1641:1680  OwnershipTransferRequested(s_owner, to) */\n  0xffffffffffffffffffffffffffffffffffffffff\n  and\n    /* \"@chainlink/contracts/src/v0.8/ConfirmedOwnerWithProposal.sol\":1668:1675  s_owner */\n  0x06\n  0x00\n  swap1\n  sload\n  swap1\n  0x0100\n  exp\n  swap1\n  div\n  0xffffffffffffffffffffffffffffffffffffffff\n  and\n    /* \"@chainlink/contracts/src/v0.8/ConfirmedOwnerWithProposal.sol\":1641:1680  OwnershipTransferRequested(s_owner, to) */\n  0xffffffffffffffffffffffffffffffffffffffff\n  and\n  0xed8889f560326eb138920d842192f0eb3dd22b4f139c87a2c57538e05bae1278\n  mload(0x40)\n  mload(0x40)\n  dup1\n  swap2\n  sub\n  swap1\n  log3\n    /* \"@chainlink/contracts/src/v0.8/ConfirmedOwnerWithProposal.sol\":1497:1685  function _transferOwnership(address to) private {... */\n  pop\n  jump\t// out\n    /* \"@chainlink/contracts/src/v0.8/ChainlinkClient.sol\":8625:8733  function setChainlinkToken(address linkAddress) internal {... */\ntag_15:\n    /* \"@chainlink/contracts/src/v0.8/ChainlinkClient.sol\":8716:8727  linkAddress */\n  dup1\n    /* \"@chainlink/contracts/src/v0.8/ChainlinkClient.sol\":8688:8694  s_link */\n  0x02\n  0x00\n    /* \"@chainlink/contracts/src/v0.8/ChainlinkClient.sol\":8688:8728  s_link = LinkTokenInterface(linkAddress) */\n  0x0100\n  exp\n  dup2\n  sload\n  dup2\n  0xffffffffffffffffffffffffffffffffffffffff\n  mul\n  not\n  and\n  swap1\n  dup4\n  0xffffffffffffffffffffffffffffffffffffffff\n  and\n  mul\n  or\n  swap1\n  sstore\n  pop\n    /* \"@chainlink/contracts/src/v0.8/ChainlinkClient.sol\":8625:8733  function setChainlinkToken(address linkAddress) internal {... */\n  pop\n  jump\t// out\n    /* \"@chainlink/contracts/src/v0.8/ChainlinkClient.sol\":8391:8505  function setChainlinkOracle(address oracleAddress) internal {... */\ntag_17:\n    /* \"@chainlink/contracts/src/v0.8/ChainlinkClient.sol\":8486:8499  oracleAddress */\n  dup1\n    /* \"@chainlink/contracts/src/v0.8/ChainlinkClient.sol\":8457:8465  s_oracle */\n  0x03\n  0x00\n    /* \"@chainlink/contracts/src/v0.8/ChainlinkClient.sol\":8457:8500  s_oracle = OperatorInterface(oracleAddress) */\n  0x0100\n  exp\n  dup2\n  sload\n  dup2\n  0xffffffffffffffffffffffffffffffffffffffff\n  mul\n  not\n  and\n  swap1\n  dup4\n  0xffffffffffffffffffffffffffffffffffffffff\n  and\n  mul\n  or\n  swap1\n  sstore\n  pop\n    /* \"@chainlink/contracts/src/v0.8/ChainlinkClient.sol\":8391:8505  function setChainlinkOracle(address oracleAddress) internal {... */\n  pop\n  jump\t// out\n    /* \"#utility.yul\":7:176   */\ntag_29:\n    /* \"#utility.yul\":91:102   */\n  0x00\n    /* \"#utility.yul\":125:131   */\n  dup3\n    /* \"#utility.yul\":120:123   */\n  dup3\n    /* \"#utility.yul\":113:132   */\n  mstore\n    /* \"#utility.yul\":165:169   */\n  0x20\n    /* \"#utility.yul\":160:163   */\n  dup3\n    /* \"#utility.yul\":156:170   */\n  add\n    /* \"#utility.yul\":141:170   */\n  swap1\n  pop\n    /* \"#utility.yul\":7:176   */\n  swap3\n  swap2\n  pop\n  pop\n  jump\t// out\n    /* \"#utility.yul\":182:356   */\ntag_30:\n    /* \"#utility.yul\":322:348   */\n  0x43616e6e6f7420736574206f776e657220746f207a65726f0000000000000000\n    /* \"#utility.yul\":318:319   */\n  0x00\n    /* \"#utility.yul\":310:316   */\n  dup3\n    /* \"#utility.yul\":306:320   */\n  add\n    /* \"#utility.yul\":299:349   */\n  mstore\n    /* \"#utility.yul\":182:356   */\n  pop\n  jump\t// out\n    /* \"#utility.yul\":362:728   */\ntag_31:\n    /* \"#utility.yul\":504:507   */\n  0x00\n    /* \"#utility.yul\":525:592   */\n  tag_41\n    /* \"#utility.yul\":589:591   */\n  0x18\n    /* \"#utility.yul\":584:587   */\n  dup4\n    /* \"#utility.yul\":525:592   */\n  tag_29\n  jump\t// in\ntag_41:\n    /* \"#utility.yul\":518:592   */\n  swap2\n  pop\n    /* \"#utility.yul\":601:694   */\n  tag_42\n    /* \"#utility.yul\":690:693   */\n  dup3\n    /* \"#utility.yul\":601:694   */\n  tag_30\n  jump\t// in\ntag_42:\n    /* \"#utility.yul\":719:721   */\n  0x20\n    /* \"#utility.yul\":714:717   */\n  dup3\n    /* \"#utility.yul\":710:722   */\n  add\n    /* \"#utility.yul\":703:722   */\n  swap1\n  pop\n    /* \"#utility.yul\":362:728   */\n  swap2\n  swap1\n  pop\n  jump\t// out\n    /* \"#utility.yul\":734:1153   */\ntag_8:\n    /* \"#utility.yul\":900:904   */\n  0x00\n    /* \"#utility.yul\":938:940   */\n  0x20\n    /* \"#utility.yul\":927:936   */\n  dup3\n    /* \"#utility.yul\":923:941   */\n  add\n    /* \"#utility.yul\":915:941   */\n  swap1\n  pop\n    /* \"#utility.yul\":987:996   */\n  dup2\n    /* \"#utility.yul\":981:985   */\n  dup2\n    /* \"#utility.yul\":977:997   */\n  sub\n    /* \"#utility.yul\":973:974   */\n  0x00\n    /* \"#utility.yul\":962:971   */\n  dup4\n    /* \"#utility.yul\":958:975   */\n  add\n    /* \"#utility.yul\":951:998   */\n  mstore\n    /* \"#utility.yul\":1015:1146   */\n  tag_44\n    /* \"#utility.yul\":1141:1145   */\n  dup2\n    /* \"#utility.yul\":1015:1146   */\n  tag_31\n  jump\t// in\ntag_44:\n    /* \"#utility.yul\":1007:1146   */\n  swap1\n  pop\n    /* \"#utility.yul\":734:1153   */\n  swap2\n  swap1\n  pop\n  jump\t// out\n    /* \"#utility.yul\":1159:1236   */\ntag_32:\n    /* \"#utility.yul\":1196:1203   */\n  0x00\n    /* \"#utility.yul\":1225:1230   */\n  dup2\n    /* \"#utility.yul\":1214:1230   */\n  swap1\n  pop\n    /* \"#utility.yul\":1159:1236   */\n  swap2\n  swap1\n  pop\n  jump\t// out\n    /* \"#utility.yul\":1242:1422   */\ntag_33:\n    /* \"#utility.yul\":1290:1367   */\n  0x4e487b7100000000000000000000000000000000000000000000000000000000\n    /* \"#utility.yul\":1287:1288   */\n  0x00\n    /* \"#utility.yul\":1280:1368   */\n  mstore\n    /* \"#utility.yul\":1387:1391   */\n  0x11\n    /* \"#utility.yul\":1384:1385   */\n  0x04\n    /* \"#utility.yul\":1377:1392   */\n  mstore\n    /* \"#utility.yul\":1411:1415   */\n  0x24\n    /* \"#utility.yul\":1408:1409   */\n  0x00\n    /* \"#utility.yul\":1401:1416   */\n  revert\n    /* \"#utility.yul\":1428:1838   */\ntag_19:\n    /* \"#utility.yul\":1468:1475   */\n  0x00\n    /* \"#utility.yul\":1491:1511   */\n  tag_48\n    /* \"#utility.yul\":1509:1510   */\n  dup3\n    /* \"#utility.yul\":1491:1511   */\n  tag_32\n  jump\t// in\ntag_48:\n    /* \"#utility.yul\":1486:1511   */\n  swap2\n  pop\n    /* \"#utility.yul\":1525:1545   */\n  tag_49\n    /* \"#utility.yul\":1543:1544   */\n  dup4\n    /* \"#utility.yul\":1525:1545   */\n  tag_32\n  jump\t// in\ntag_49:\n    /* \"#utility.yul\":1520:1545   */\n  swap3\n  pop\n    /* \"#utility.yul\":1580:1581   */\n  dup3\n    /* \"#utility.yul\":1577:1578   */\n  dup3\n    /* \"#utility.yul\":1573:1582   */\n  mul\n    /* \"#utility.yul\":1602:1632   */\n  tag_50\n    /* \"#utility.yul\":1620:1631   */\n  dup2\n    /* \"#utility.yul\":1602:1632   */\n  tag_32\n  jump\t// in\ntag_50:\n    /* \"#utility.yul\":1591:1632   */\n  swap2\n  pop\n    /* \"#utility.yul\":1781:1782   */\n  dup3\n    /* \"#utility.yul\":1772:1779   */\n  dup3\n    /* \"#utility.yul\":1768:1783   */\n  div\n    /* \"#utility.yul\":1765:1766   */\n  dup5\n    /* \"#utility.yul\":1762:1784   */\n  eq\n    /* \"#utility.yul\":1742:1743   */\n  dup4\n    /* \"#utility.yul\":1735:1744   */\n  iszero\n    /* \"#utility.yul\":1715:1798   */\n  or\n    /* \"#utility.yul\":1692:1831   */\n  tag_51\n  jumpi\n    /* \"#utility.yul\":1811:1829   */\n  tag_52\n  tag_33\n  jump\t// in\ntag_52:\n    /* \"#utility.yul\":1692:1831   */\ntag_51:\n    /* \"#utility.yul\":1476:1838   */\n  pop\n    /* \"#utility.yul\":1428:1838   */\n  swap3\n  swap2\n  pop\n  pop\n  jump\t// out\n    /* \"#utility.yul\":1844:2024   */\ntag_34:\n    /* \"#utility.yul\":1892:1969   */\n  0x4e487b7100000000000000000000000000000000000000000000000000000000\n    /* \"#utility.yul\":1889:1890   */\n  0x00\n    /* \"#utility.yul\":1882:1970   */\n  mstore\n    /* \"#utility.yul\":1989:1993   */\n  0x12\n    /* \"#utility.yul\":1986:1987   */\n  0x04\n    /* \"#utility.yul\":1979:1994   */\n  mstore\n    /* \"#utility.yul\":2013:2017   */\n  0x24\n    /* \"#utility.yul\":2010:2011   */\n  0x00\n    /* \"#utility.yul\":2003:2018   */\n  revert\n    /* \"#utility.yul\":2030:2215   */\ntag_21:\n    /* \"#utility.yul\":2070:2071   */\n  0x00\n    /* \"#utility.yul\":2087:2107   */\n  tag_55\n    /* \"#utility.yul\":2105:2106   */\n  dup3\n    /* \"#utility.yul\":2087:2107   */\n  tag_32\n  jump\t// in\ntag_55:\n    /* \"#utility.yul\":2082:2107   */\n  swap2\n  pop\n    /* \"#utility.yul\":2121:2141   */\n  tag_56\n    /* \"#utility.yul\":2139:2140   */\n  dup4\n    /* \"#utility.yul\":2121:2141   */\n  tag_32\n  jump\t// in\ntag_56:\n    /* \"#utility.yul\":2116:2141   */\n  swap3\n  pop\n    /* \"#utility.yul\":2160:2161   */\n  dup3\n    /* \"#utility.yul\":2150:2185   */\n  tag_57\n  jumpi\n    /* \"#utility.yul\":2165:2183   */\n  tag_58\n  tag_34\n  jump\t// in\ntag_58:\n    /* \"#utility.yul\":2150:2185   */\ntag_57:\n    /* \"#utility.yul\":2207:2208   */\n  dup3\n    /* \"#utility.yul\":2204:2205   */\n  dup3\n    /* \"#utility.yul\":2200:2209   */\n  div\n    /* \"#utility.yul\":2195:2209   */\n  swap1\n  pop\n    /* \"#utility.yul\":2030:2215   */\n  swap3\n  swap2\n  pop\n  pop\n  jump\t// out\n    /* \"#utility.yul\":2221:2394   */\ntag_35:\n    /* \"#utility.yul\":2361:2386   */\n  0x43616e6e6f74207472616e7366657220746f2073656c66000000000000000000\n    /* \"#utility.yul\":2357:2358   */\n  0x00\n    /* \"#utility.yul\":2349:2355   */\n  dup3\n    /* \"#utility.yul\":2345:2359   */\n  add\n    /* \"#utility.yul\":2338:2387   */\n  mstore\n    /* \"#utility.yul\":2221:2394   */\n  pop\n  jump\t// out\n    /* \"#utility.yul\":2400:2766   */\ntag_36:\n    /* \"#utility.yul\":2542:2545   */\n  0x00\n    /* \"#utility.yul\":2563:2630   */\n  tag_61\n    /* \"#utility.yul\":2627:2629   */\n  0x17\n    /* \"#utility.yul\":2622:2625   */\n  dup4\n    /* \"#utility.yul\":2563:2630   */\n  tag_29\n  jump\t// in\ntag_61:\n    /* \"#utility.yul\":2556:2630   */\n  swap2\n  pop\n    /* \"#utility.yul\":2639:2732   */\n  tag_62\n    /* \"#utility.yul\":2728:2731   */\n  dup3\n    /* \"#utility.yul\":2639:2732   */\n  tag_35\n  jump\t// in\ntag_62:\n    /* \"#utility.yul\":2757:2759   */\n  0x20\n    /* \"#utility.yul\":2752:2755   */\n  dup3\n    /* \"#utility.yul\":2748:2760   */\n  add\n    /* \"#utility.yul\":2741:2760   */\n  swap1\n  pop\n    /* \"#utility.yul\":2400:2766   */\n  swap2\n  swap1\n  pop\n  jump\t// out\n    /* \"#utility.yul\":2772:3191   */\ntag_26:\n    /* \"#utility.yul\":2938:2942   */\n  0x00\n    /* \"#utility.yul\":2976:2978   */\n  0x20\n    /* \"#utility.yul\":2965:2974   */\n  dup3\n    /* \"#utility.yul\":2961:2979   */\n  add\n    /* \"#utility.yul\":2953:2979   */\n  swap1\n  pop\n    /* \"#utility.yul\":3025:3034   */\n  dup2\n    /* \"#utility.yul\":3019:3023   */\n  dup2\n    /* \"#utility.yul\":3015:3035   */\n  sub\n    /* \"#utility.yul\":3011:3012   */\n  0x00\n    /* \"#utility.yul\":3000:3009   */\n  dup4\n    /* \"#utility.yul\":2996:3013   */\n  add\n    /* \"#utility.yul\":2989:3036   */\n  mstore\n    /* \"#utility.yul\":3053:3184   */\n  tag_64\n    /* \"#utility.yul\":3179:3183   */\n  dup2\n    /* \"#utility.yul\":3053:3184   */\n  tag_36\n  jump\t// in\ntag_64:\n    /* \"#utility.yul\":3045:3184   */\n  swap1\n  pop\n    /* \"#utility.yul\":2772:3191   */\n  swap2\n  swap1\n  pop\n  jump\t// out\n    /* \"docs.chain.link/samples/APIRequests/APIConsumer.sol\":551:2655  contract APIConsumer is ChainlinkClient, ConfirmedOwner {... */\ntag_22:\n  dataSize(sub_0)\n  dup1\n  dataOffset(sub_0)\n  0x00\n  codecopy\n  0x00\n  return\nstop\n\nsub_0: assembly {\n        /* \"docs.chain.link/samples/APIRequests/APIConsumer.sol\":551:2655  contract APIConsumer is ChainlinkClient, ConfirmedOwner {... */\n      mstore(0x40, 0x80)\n      callvalue\n      dup1\n      iszero\n      tag_1\n      jumpi\n      0x00\n      dup1\n      revert\n    tag_1:\n      pop\n      jumpi(tag_2, lt(calldatasize, 0x04))\n      shr(0xe0, calldataload(0x00))\n      dup1\n      0x79ba5097\n      gt\n      tag_10\n      jumpi\n      dup1\n      0x79ba5097\n      eq\n      tag_6\n      jumpi\n      dup1\n      0x8da5cb5b\n      eq\n      tag_7\n      jumpi\n      dup1\n      0x8dc654a2\n      eq\n      tag_8\n      jumpi\n      dup1\n      0xf2fde38b\n      eq\n      tag_9\n      jumpi\n      jump(tag_2)\n    tag_10:\n      dup1\n      0x37441996\n      eq\n      tag_3\n      jumpi\n      dup1\n      0x684ede7f\n      eq\n      tag_4\n      jumpi\n      dup1\n      0x73e3ce80\n      eq\n      tag_5\n      jumpi\n    tag_2:\n      0x00\n      dup1\n      revert\n        /* \"docs.chain.link/samples/APIRequests/APIConsumer.sol\":2118:2318  function fulfill(... */\n    tag_3:\n      tag_11\n      0x04\n      dup1\n      calldatasize\n      sub\n      dup2\n      add\n      swap1\n      tag_12\n      swap2\n      swap1\n      tag_13\n      jump\t// in\n    tag_12:\n      tag_14\n      jump\t// in\n    tag_11:\n      stop\n        /* \"docs.chain.link/samples/APIRequests/APIConsumer.sol\":1622:2045  function requestVolumeData(uint256 factNumber) public returns (bytes32 requestId) {... */\n    tag_4:\n      tag_15\n      0x04\n      dup1\n      calldatasize\n      sub\n      dup2\n      add\n      swap1\n      tag_16\n      swap2\n      swap1\n      tag_17\n      jump\t// in\n    tag_16:\n      tag_18\n      jump\t// in\n    tag_15:\n      mload(0x40)\n      tag_19\n      swap2\n      swap1\n      tag_20\n      jump\t// in\n    tag_19:\n      mload(0x40)\n      dup1\n      swap2\n      sub\n      swap1\n      return\n        /* \"docs.chain.link/samples/APIRequests/APIConsumer.sol\":657:675  string public fact */\n    tag_5:\n      tag_21\n      tag_22\n      jump\t// in\n    tag_21:\n      mload(0x40)\n      tag_23\n      swap2\n      swap1\n      tag_24\n      jump\t// in\n    tag_23:\n      mload(0x40)\n      dup1\n      swap2\n      sub\n      swap1\n      return\n        /* \"@chainlink/contracts/src/v0.8/ConfirmedOwnerWithProposal.sol\":1016:1281  function acceptOwnership() external override {... */\n    tag_6:\n      tag_25\n      tag_26\n      jump\t// in\n    tag_25:\n      stop\n        /* \"@chainlink/contracts/src/v0.8/ConfirmedOwnerWithProposal.sol\":1332:1413  function owner() public view override returns (address) {... */\n    tag_7:\n      tag_27\n      tag_28\n      jump\t// in\n    tag_27:\n      mload(0x40)\n      tag_29\n      swap2\n      swap1\n      tag_30\n      jump\t// in\n    tag_29:\n      mload(0x40)\n      dup1\n      swap2\n      sub\n      swap1\n      return\n        /* \"docs.chain.link/samples/APIRequests/APIConsumer.sol\":2395:2653  function withdrawLink() public onlyOwner {... */\n    tag_8:\n      tag_31\n      tag_32\n      jump\t// in\n    tag_31:\n      stop\n        /* \"@chainlink/contracts/src/v0.8/ConfirmedOwnerWithProposal.sol\":826:924  function transferOwnership(address to) public override onlyOwner {... */\n    tag_9:\n      tag_33\n      0x04\n      dup1\n      calldatasize\n      sub\n      dup2\n      add\n      swap1\n      tag_34\n      swap2\n      swap1\n      tag_35\n      jump\t// in\n    tag_34:\n      tag_36\n      jump\t// in\n    tag_33:\n      stop\n        /* \"docs.chain.link/samples/APIRequests/APIConsumer.sol\":2118:2318  function fulfill(... */\n    tag_14:\n        /* \"docs.chain.link/samples/APIRequests/APIConsumer.sol\":2232:2242  _requestId */\n      dup2\n        /* \"@chainlink/contracts/src/v0.8/ChainlinkClient.sol\":11663:11680  s_pendingRequests */\n      0x05\n        /* \"@chainlink/contracts/src/v0.8/ChainlinkClient.sol\":11663:11691  s_pendingRequests[requestId] */\n      0x00\n        /* \"@chainlink/contracts/src/v0.8/ChainlinkClient.sol\":11681:11690  requestId */\n      dup3\n        /* \"@chainlink/contracts/src/v0.8/ChainlinkClient.sol\":11663:11691  s_pendingRequests[requestId] */\n      dup2\n      mstore\n      0x20\n      add\n      swap1\n      dup2\n      mstore\n      0x20\n      add\n      0x00\n      keccak256\n      0x00\n      swap1\n      sload\n      swap1\n      0x0100\n      exp\n      swap1\n      div\n      0xffffffffffffffffffffffffffffffffffffffff\n      and\n        /* \"@chainlink/contracts/src/v0.8/ChainlinkClient.sol\":11649:11691  msg.sender == s_pendingRequests[requestId] */\n      0xffffffffffffffffffffffffffffffffffffffff\n      and\n        /* \"@chainlink/contracts/src/v0.8/ChainlinkClient.sol\":11649:11659  msg.sender */\n      caller\n        /* \"@chainlink/contracts/src/v0.8/ChainlinkClient.sol\":11649:11691  msg.sender == s_pendingRequests[requestId] */\n      0xffffffffffffffffffffffffffffffffffffffff\n      and\n      eq\n        /* \"@chainlink/contracts/src/v0.8/ChainlinkClient.sol\":11641:11736  require(msg.sender == s_pendingRequests[requestId], \"Source must be the oracle of the request\") */\n      tag_38\n      jumpi\n      mload(0x40)\n      0x08c379a000000000000000000000000000000000000000000000000000000000\n      dup2\n      mstore\n      0x04\n      add\n      tag_39\n      swap1\n      tag_40\n      jump\t// in\n    tag_39:\n      mload(0x40)\n      dup1\n      swap2\n      sub\n      swap1\n      revert\n    tag_38:\n        /* \"@chainlink/contracts/src/v0.8/ChainlinkClient.sol\":11749:11766  s_pendingRequests */\n      0x05\n        /* \"@chainlink/contracts/src/v0.8/ChainlinkClient.sol\":11749:11777  s_pendingRequests[requestId] */\n      0x00\n        /* \"@chainlink/contracts/src/v0.8/ChainlinkClient.sol\":11767:11776  requestId */\n      dup3\n        /* \"@chainlink/contracts/src/v0.8/ChainlinkClient.sol\":11749:11777  s_pendingRequests[requestId] */\n      dup2\n      mstore\n      0x20\n      add\n      swap1\n      dup2\n      mstore\n      0x20\n      add\n      0x00\n      keccak256\n      0x00\n        /* \"@chainlink/contracts/src/v0.8/ChainlinkClient.sol\":11742:11777  delete s_pendingRequests[requestId] */\n      0x0100\n      exp\n      dup2\n      sload\n      swap1\n      0xffffffffffffffffffffffffffffffffffffffff\n      mul\n      not\n      and\n      swap1\n      sstore\n        /* \"@chainlink/contracts/src/v0.8/ChainlinkClient.sol\":11807:11816  requestId */\n      dup1\n        /* \"@chainlink/contracts/src/v0.8/ChainlinkClient.sol\":11788:11817  ChainlinkFulfilled(requestId) */\n      0x7cc135e0cebb02c3480ae5d74d377283180a2601f8f644edf7987b009316c63a\n      mload(0x40)\n      mload(0x40)\n      dup1\n      swap2\n      sub\n      swap1\n      log2\n        /* \"docs.chain.link/samples/APIRequests/APIConsumer.sol\":2271:2281  _requestId */\n      dup3\n        /* \"docs.chain.link/samples/APIRequests/APIConsumer.sol\":2259:2289  RequestFact(_requestId, _fact) */\n      0xa7110ce3e25401d4ee3bb18dcfb701381caa81d87ab3e4a77558fca28b7144f1\n        /* \"docs.chain.link/samples/APIRequests/APIConsumer.sol\":2283:2288  _fact */\n      dup4\n        /* \"docs.chain.link/samples/APIRequests/APIConsumer.sol\":2259:2289  RequestFact(_requestId, _fact) */\n      mload(0x40)\n      tag_42\n      swap2\n      swap1\n      tag_24\n      jump\t// in\n    tag_42:\n      mload(0x40)\n      dup1\n      swap2\n      sub\n      swap1\n      log2\n        /* \"docs.chain.link/samples/APIRequests/APIConsumer.sol\":2306:2311  _fact */\n      dup2\n        /* \"docs.chain.link/samples/APIRequests/APIConsumer.sol\":2299:2303  fact */\n      0x08\n        /* \"docs.chain.link/samples/APIRequests/APIConsumer.sol\":2299:2311  fact = _fact */\n      swap1\n      dup2\n      tag_43\n      swap2\n      swap1\n      tag_44\n      jump\t// in\n    tag_43:\n      pop\n        /* \"docs.chain.link/samples/APIRequests/APIConsumer.sol\":2118:2318  function fulfill(... */\n      pop\n      pop\n      pop\n      jump\t// out\n        /* \"docs.chain.link/samples/APIRequests/APIConsumer.sol\":1622:2045  function requestVolumeData(uint256 factNumber) public returns (bytes32 requestId) {... */\n    tag_18:\n        /* \"docs.chain.link/samples/APIRequests/APIConsumer.sol\":1685:1702  bytes32 requestId */\n      0x00\n        /* \"docs.chain.link/samples/APIRequests/APIConsumer.sol\":1714:1742  Chainlink.Request memory req */\n      dup1\n        /* \"docs.chain.link/samples/APIRequests/APIConsumer.sol\":1745:1857  buildChainlinkRequest(... */\n      tag_46\n        /* \"docs.chain.link/samples/APIRequests/APIConsumer.sol\":1780:1785  jobId */\n      sload(0x09)\n        /* \"docs.chain.link/samples/APIRequests/APIConsumer.sol\":1807:1811  this */\n      address\n        /* \"docs.chain.link/samples/APIRequests/APIConsumer.sol\":1826:1847  this.fulfill.selector */\n      shl(0xe0, 0x37441996)\n        /* \"docs.chain.link/samples/APIRequests/APIConsumer.sol\":1745:1766  buildChainlinkRequest */\n      tag_47\n        /* \"docs.chain.link/samples/APIRequests/APIConsumer.sol\":1745:1857  buildChainlinkRequest(... */\n      jump\t// in\n    tag_46:\n        /* \"docs.chain.link/samples/APIRequests/APIConsumer.sol\":1714:1857  Chainlink.Request memory req = buildChainlinkRequest(... */\n      swap1\n      pop\n        /* \"docs.chain.link/samples/APIRequests/APIConsumer.sol\":1867:1955  req.add(... */\n      tag_48\n      mload(0x40)\n      dup1\n      0x40\n      add\n      0x40\n      mstore\n      dup1\n      0x03\n      dup2\n      mstore\n      0x20\n      add\n      0x6765740000000000000000000000000000000000000000000000000000000000\n      dup2\n      mstore\n      pop\n      mload(0x40)\n      dup1\n      0x60\n      add\n      0x40\n      mstore\n      dup1\n      0x24\n      dup2\n      mstore\n      0x20\n      add\n      data_b5f2548b62ba1438e6c56a676eaaf43c82d05ddfa8a57833fbeac1152b0abca3\n      0x24\n      swap2\n      codecopy\n        /* \"docs.chain.link/samples/APIRequests/APIConsumer.sol\":1867:1870  req */\n      dup4\n        /* \"docs.chain.link/samples/APIRequests/APIConsumer.sol\":1867:1874  req.add */\n      tag_49\n      swap1\n        /* \"docs.chain.link/samples/APIRequests/APIConsumer.sol\":1867:1955  req.add(... */\n      swap3\n      swap2\n      swap1\n      0xffffffff\n      and\n      jump\t// in\n    tag_48:\n        /* \"docs.chain.link/samples/APIRequests/APIConsumer.sol\":1965:1990  req.add(\"path\", \"0,text\") */\n      tag_50\n      mload(0x40)\n      dup1\n      0x40\n      add\n      0x40\n      mstore\n      dup1\n      0x04\n      dup2\n      mstore\n      0x20\n      add\n      0x7061746800000000000000000000000000000000000000000000000000000000\n      dup2\n      mstore\n      pop\n      mload(0x40)\n      dup1\n      0x40\n      add\n      0x40\n      mstore\n      dup1\n      0x06\n      dup2\n      mstore\n      0x20\n      add\n      0x302c746578740000000000000000000000000000000000000000000000000000\n      dup2\n      mstore\n      pop\n        /* \"docs.chain.link/samples/APIRequests/APIConsumer.sol\":1965:1968  req */\n      dup4\n        /* \"docs.chain.link/samples/APIRequests/APIConsumer.sol\":1965:1972  req.add */\n      tag_49\n      swap1\n        /* \"docs.chain.link/samples/APIRequests/APIConsumer.sol\":1965:1990  req.add(\"path\", \"0,text\") */\n      swap3\n      swap2\n      swap1\n      0xffffffff\n      and\n      jump\t// in\n    tag_50:\n        /* \"docs.chain.link/samples/APIRequests/APIConsumer.sol\":2008:2038  sendChainlinkRequest(req, fee) */\n      tag_51\n        /* \"docs.chain.link/samples/APIRequests/APIConsumer.sol\":2029:2032  req */\n      dup2\n        /* \"docs.chain.link/samples/APIRequests/APIConsumer.sol\":2034:2037  fee */\n      sload(0x0a)\n        /* \"docs.chain.link/samples/APIRequests/APIConsumer.sol\":2008:2028  sendChainlinkRequest */\n      tag_52\n        /* \"docs.chain.link/samples/APIRequests/APIConsumer.sol\":2008:2038  sendChainlinkRequest(req, fee) */\n      jump\t// in\n    tag_51:\n        /* \"docs.chain.link/samples/APIRequests/APIConsumer.sol\":2001:2038  return sendChainlinkRequest(req, fee) */\n      swap2\n      pop\n      pop\n        /* \"docs.chain.link/samples/APIRequests/APIConsumer.sol\":1622:2045  function requestVolumeData(uint256 factNumber) public returns (bytes32 requestId) {... */\n      swap2\n      swap1\n      pop\n      jump\t// out\n        /* \"docs.chain.link/samples/APIRequests/APIConsumer.sol\":657:675  string public fact */\n    tag_22:\n      0x08\n      dup1\n      sload\n      tag_53\n      swap1\n      tag_54\n      jump\t// in\n    tag_53:\n      dup1\n      0x1f\n      add\n      0x20\n      dup1\n      swap2\n      div\n      mul\n      0x20\n      add\n      mload(0x40)\n      swap1\n      dup2\n      add\n      0x40\n      mstore\n      dup1\n      swap3\n      swap2\n      swap1\n      dup2\n      dup2\n      mstore\n      0x20\n      add\n      dup3\n      dup1\n      sload\n      tag_55\n      swap1\n      tag_54\n      jump\t// in\n    tag_55:\n      dup1\n      iszero\n      tag_56\n      jumpi\n      dup1\n      0x1f\n      lt\n      tag_57\n      jumpi\n      0x0100\n      dup1\n      dup4\n      sload\n      div\n      mul\n      dup4\n      mstore\n      swap2\n      0x20\n      add\n      swap2\n      jump(tag_56)\n    tag_57:\n      dup3\n      add\n      swap2\n      swap1\n      0x00\n      mstore\n      keccak256(0x00, 0x20)\n      swap1\n    tag_58:\n      dup2\n      sload\n      dup2\n      mstore\n      swap1\n      0x01\n      add\n      swap1\n      0x20\n      add\n      dup1\n      dup4\n      gt\n      tag_58\n      jumpi\n      dup3\n      swap1\n      sub\n      0x1f\n      and\n      dup3\n      add\n      swap2\n    tag_56:\n      pop\n      pop\n      pop\n      pop\n      pop\n      dup2\n      jump\t// out\n        /* \"@chainlink/contracts/src/v0.8/ConfirmedOwnerWithProposal.sol\":1016:1281  function acceptOwnership() external override {... */\n    tag_26:\n        /* \"@chainlink/contracts/src/v0.8/ConfirmedOwnerWithProposal.sol\":1089:1103  s_pendingOwner */\n      0x07\n      0x00\n      swap1\n      sload\n      swap1\n      0x0100\n      exp\n      swap1\n      div\n      0xffffffffffffffffffffffffffffffffffffffff\n      and\n        /* \"@chainlink/contracts/src/v0.8/ConfirmedOwnerWithProposal.sol\":1075:1103  msg.sender == s_pendingOwner */\n      0xffffffffffffffffffffffffffffffffffffffff\n      and\n        /* \"@chainlink/contracts/src/v0.8/ConfirmedOwnerWithProposal.sol\":1075:1085  msg.sender */\n      caller\n        /* \"@chainlink/contracts/src/v0.8/ConfirmedOwnerWithProposal.sol\":1075:1103  msg.sender == s_pendingOwner */\n      0xffffffffffffffffffffffffffffffffffffffff\n      and\n      eq\n        /* \"@chainlink/contracts/src/v0.8/ConfirmedOwnerWithProposal.sol\":1067:1130  require(msg.sender == s_pendingOwner, \"Must be proposed owner\") */\n      tag_60\n      jumpi\n      mload(0x40)\n      0x08c379a000000000000000000000000000000000000000000000000000000000\n      dup2\n      mstore\n      0x04\n      add\n      tag_61\n      swap1\n      tag_62\n      jump\t// in\n    tag_61:\n      mload(0x40)\n      dup1\n      swap2\n      sub\n      swap1\n      revert\n    tag_60:\n        /* \"@chainlink/contracts/src/v0.8/ConfirmedOwnerWithProposal.sol\":1137:1153  address oldOwner */\n      0x00\n        /* \"@chainlink/contracts/src/v0.8/ConfirmedOwnerWithProposal.sol\":1156:1163  s_owner */\n      0x06\n      0x00\n      swap1\n      sload\n      swap1\n      0x0100\n      exp\n      swap1\n      div\n      0xffffffffffffffffffffffffffffffffffffffff\n      and\n        /* \"@chainlink/contracts/src/v0.8/ConfirmedOwnerWithProposal.sol\":1137:1163  address oldOwner = s_owner */\n      swap1\n      pop\n        /* \"@chainlink/contracts/src/v0.8/ConfirmedOwnerWithProposal.sol\":1179:1189  msg.sender */\n      caller\n        /* \"@chainlink/contracts/src/v0.8/ConfirmedOwnerWithProposal.sol\":1169:1176  s_owner */\n      0x06\n      0x00\n        /* \"@chainlink/contracts/src/v0.8/ConfirmedOwnerWithProposal.sol\":1169:1189  s_owner = msg.sender */\n      0x0100\n      exp\n      dup2\n      sload\n      dup2\n      0xffffffffffffffffffffffffffffffffffffffff\n      mul\n      not\n      and\n      swap1\n      dup4\n      0xffffffffffffffffffffffffffffffffffffffff\n      and\n      mul\n      or\n      swap1\n      sstore\n      pop\n        /* \"@chainlink/contracts/src/v0.8/ConfirmedOwnerWithProposal.sol\":1220:1221  0 */\n      0x00\n        /* \"@chainlink/contracts/src/v0.8/ConfirmedOwnerWithProposal.sol\":1195:1209  s_pendingOwner */\n      0x07\n      0x00\n        /* \"@chainlink/contracts/src/v0.8/ConfirmedOwnerWithProposal.sol\":1195:1222  s_pendingOwner = address(0) */\n      0x0100\n      exp\n      dup2\n      sload\n      dup2\n      0xffffffffffffffffffffffffffffffffffffffff\n      mul\n      not\n      and\n      swap1\n      dup4\n      0xffffffffffffffffffffffffffffffffffffffff\n      and\n      mul\n      or\n      swap1\n      sstore\n      pop\n        /* \"@chainlink/contracts/src/v0.8/ConfirmedOwnerWithProposal.sol\":1265:1275  msg.sender */\n      caller\n        /* \"@chainlink/contracts/src/v0.8/ConfirmedOwnerWithProposal.sol\":1234:1276  OwnershipTransferred(oldOwner, msg.sender) */\n      0xffffffffffffffffffffffffffffffffffffffff\n      and\n        /* \"@chainlink/contracts/src/v0.8/ConfirmedOwnerWithProposal.sol\":1255:1263  oldOwner */\n      dup2\n        /* \"@chainlink/contracts/src/v0.8/ConfirmedOwnerWithProposal.sol\":1234:1276  OwnershipTransferred(oldOwner, msg.sender) */\n      0xffffffffffffffffffffffffffffffffffffffff\n      and\n      0x8be0079c531659141344cd1fd0a4f28419497f9722a3daafe3b4186f6b6457e0\n      mload(0x40)\n      mload(0x40)\n      dup1\n      swap2\n      sub\n      swap1\n      log3\n        /* \"@chainlink/contracts/src/v0.8/ConfirmedOwnerWithProposal.sol\":1061:1281  {... */\n      pop\n        /* \"@chainlink/contracts/src/v0.8/ConfirmedOwnerWithProposal.sol\":1016:1281  function acceptOwnership() external override {... */\n      jump\t// out\n        /* \"@chainlink/contracts/src/v0.8/ConfirmedOwnerWithProposal.sol\":1332:1413  function owner() public view override returns (address) {... */\n    tag_28:\n        /* \"@chainlink/contracts/src/v0.8/ConfirmedOwnerWithProposal.sol\":1379:1386  address */\n      0x00\n        /* \"@chainlink/contracts/src/v0.8/ConfirmedOwnerWithProposal.sol\":1401:1408  s_owner */\n      0x06\n      0x00\n      swap1\n      sload\n      swap1\n      0x0100\n      exp\n      swap1\n      div\n      0xffffffffffffffffffffffffffffffffffffffff\n      and\n        /* \"@chainlink/contracts/src/v0.8/ConfirmedOwnerWithProposal.sol\":1394:1408  return s_owner */\n      swap1\n      pop\n        /* \"@chainlink/contracts/src/v0.8/ConfirmedOwnerWithProposal.sol\":1332:1413  function owner() public view override returns (address) {... */\n      swap1\n      jump\t// out\n        /* \"docs.chain.link/samples/APIRequests/APIConsumer.sol\":2395:2653  function withdrawLink() public onlyOwner {... */\n    tag_32:\n        /* \"@chainlink/contracts/src/v0.8/ConfirmedOwnerWithProposal.sol\":1956:1976  _validateOwnership() */\n      tag_65\n        /* \"@chainlink/contracts/src/v0.8/ConfirmedOwnerWithProposal.sol\":1956:1974  _validateOwnership */\n      tag_66\n        /* \"@chainlink/contracts/src/v0.8/ConfirmedOwnerWithProposal.sol\":1956:1976  _validateOwnership() */\n      jump\t// in\n    tag_65:\n        /* \"docs.chain.link/samples/APIRequests/APIConsumer.sol\":2446:2469  LinkTokenInterface link */\n      0x00\n        /* \"docs.chain.link/samples/APIRequests/APIConsumer.sol\":2491:2514  chainlinkTokenAddress() */\n      tag_68\n        /* \"docs.chain.link/samples/APIRequests/APIConsumer.sol\":2491:2512  chainlinkTokenAddress */\n      tag_69\n        /* \"docs.chain.link/samples/APIRequests/APIConsumer.sol\":2491:2514  chainlinkTokenAddress() */\n      jump\t// in\n    tag_68:\n        /* \"docs.chain.link/samples/APIRequests/APIConsumer.sol\":2446:2515  LinkTokenInterface link = LinkTokenInterface(chainlinkTokenAddress()) */\n      swap1\n      pop\n        /* \"docs.chain.link/samples/APIRequests/APIConsumer.sol\":2546:2550  link */\n      dup1\n        /* \"docs.chain.link/samples/APIRequests/APIConsumer.sol\":2546:2559  link.transfer */\n      0xffffffffffffffffffffffffffffffffffffffff\n      and\n      0xa9059cbb\n        /* \"docs.chain.link/samples/APIRequests/APIConsumer.sol\":2560:2570  msg.sender */\n      caller\n        /* \"docs.chain.link/samples/APIRequests/APIConsumer.sol\":2572:2576  link */\n      dup4\n        /* \"docs.chain.link/samples/APIRequests/APIConsumer.sol\":2572:2586  link.balanceOf */\n      0xffffffffffffffffffffffffffffffffffffffff\n      and\n      0x70a08231\n        /* \"docs.chain.link/samples/APIRequests/APIConsumer.sol\":2595:2599  this */\n      address\n        /* \"docs.chain.link/samples/APIRequests/APIConsumer.sol\":2572:2601  link.balanceOf(address(this)) */\n      mload(0x40)\n      dup3\n      0xffffffff\n      and\n      0xe0\n      shl\n      dup2\n      mstore\n      0x04\n      add\n      tag_70\n      swap2\n      swap1\n      tag_30\n      jump\t// in\n    tag_70:\n      0x20\n      mload(0x40)\n      dup1\n      dup4\n      sub\n      dup2\n      dup7\n      gas\n      staticcall\n      iszero\n      dup1\n      iszero\n      tag_72\n      jumpi\n      returndatasize\n      0x00\n      dup1\n      returndatacopy\n      revert(0x00, returndatasize)\n    tag_72:\n      pop\n      pop\n      pop\n      pop\n      mload(0x40)\n      returndatasize\n      not(0x1f)\n      0x1f\n      dup3\n      add\n      and\n      dup3\n      add\n      dup1\n      0x40\n      mstore\n      pop\n      dup2\n      add\n      swap1\n      tag_73\n      swap2\n      swap1\n      tag_74\n      jump\t// in\n    tag_73:\n        /* \"docs.chain.link/samples/APIRequests/APIConsumer.sol\":2546:2602  link.transfer(msg.sender, link.balanceOf(address(this))) */\n      mload(0x40)\n      dup4\n      0xffffffff\n      and\n      0xe0\n      shl\n      dup2\n      mstore\n      0x04\n      add\n      tag_75\n      swap3\n      swap2\n      swap1\n      tag_76\n      jump\t// in\n    tag_75:\n      0x20\n      mload(0x40)\n      dup1\n      dup4\n      sub\n      dup2\n      0x00\n      dup8\n      gas\n      call\n      iszero\n      dup1\n      iszero\n      tag_78\n      jumpi\n      returndatasize\n      0x00\n      dup1\n      returndatacopy\n      revert(0x00, returndatasize)\n    tag_78:\n      pop\n      pop\n      pop\n      pop\n      mload(0x40)\n      returndatasize\n      not(0x1f)\n      0x1f\n      dup3\n      add\n      and\n      dup3\n      add\n      dup1\n      0x40\n      mstore\n      pop\n      dup2\n      add\n      swap1\n      tag_79\n      swap2\n      swap1\n      tag_80\n      jump\t// in\n    tag_79:\n        /* \"docs.chain.link/samples/APIRequests/APIConsumer.sol\":2525:2646  require(... */\n      tag_81\n      jumpi\n      mload(0x40)\n      0x08c379a000000000000000000000000000000000000000000000000000000000\n      dup2\n      mstore\n      0x04\n      add\n      tag_82\n      swap1\n      tag_83\n      jump\t// in\n    tag_82:\n      mload(0x40)\n      dup1\n      swap2\n      sub\n      swap1\n      revert\n    tag_81:\n        /* \"docs.chain.link/samples/APIRequests/APIConsumer.sol\":2436:2653  {... */\n      pop\n        /* \"docs.chain.link/samples/APIRequests/APIConsumer.sol\":2395:2653  function withdrawLink() public onlyOwner {... */\n      jump\t// out\n        /* \"@chainlink/contracts/src/v0.8/ConfirmedOwnerWithProposal.sol\":826:924  function transferOwnership(address to) public override onlyOwner {... */\n    tag_36:\n        /* \"@chainlink/contracts/src/v0.8/ConfirmedOwnerWithProposal.sol\":1956:1976  _validateOwnership() */\n      tag_85\n        /* \"@chainlink/contracts/src/v0.8/ConfirmedOwnerWithProposal.sol\":1956:1974  _validateOwnership */\n      tag_66\n        /* \"@chainlink/contracts/src/v0.8/ConfirmedOwnerWithProposal.sol\":1956:1976  _validateOwnership() */\n      jump\t// in\n    tag_85:\n        /* \"@chainlink/contracts/src/v0.8/ConfirmedOwnerWithProposal.sol\":897:919  _transferOwnership(to) */\n      tag_87\n        /* \"@chainlink/contracts/src/v0.8/ConfirmedOwnerWithProposal.sol\":916:918  to */\n      dup2\n        /* \"@chainlink/contracts/src/v0.8/ConfirmedOwnerWithProposal.sol\":897:915  _transferOwnership */\n      tag_88\n        /* \"@chainlink/contracts/src/v0.8/ConfirmedOwnerWithProposal.sol\":897:919  _transferOwnership(to) */\n      jump\t// in\n    tag_87:\n        /* \"@chainlink/contracts/src/v0.8/ConfirmedOwnerWithProposal.sol\":826:924  function transferOwnership(address to) public override onlyOwner {... */\n      pop\n      jump\t// out\n        /* \"@chainlink/contracts/src/v0.8/ChainlinkClient.sol\":1850:2133  function buildChainlinkRequest(... */\n    tag_47:\n        /* \"@chainlink/contracts/src/v0.8/ChainlinkClient.sol\":1992:2016  Chainlink.Request memory */\n      tag_89\n      tag_90\n      jump\t// in\n    tag_89:\n        /* \"@chainlink/contracts/src/v0.8/ChainlinkClient.sol\":2024:2052  Chainlink.Request memory req */\n      tag_92\n      tag_90\n      jump\t// in\n    tag_92:\n        /* \"@chainlink/contracts/src/v0.8/ChainlinkClient.sol\":2065:2128  req.initialize(specId, callbackAddr, callbackFunctionSignature) */\n      tag_93\n        /* \"@chainlink/contracts/src/v0.8/ChainlinkClient.sol\":2080:2086  specId */\n      dup6\n        /* \"@chainlink/contracts/src/v0.8/ChainlinkClient.sol\":2088:2100  callbackAddr */\n      dup6\n        /* \"@chainlink/contracts/src/v0.8/ChainlinkClient.sol\":2102:2127  callbackFunctionSignature */\n      dup6\n        /* \"@chainlink/contracts/src/v0.8/ChainlinkClient.sol\":2065:2068  req */\n      dup5\n        /* \"@chainlink/contracts/src/v0.8/ChainlinkClient.sol\":2065:2079  req.initialize */\n      tag_94\n      swap1\n        /* \"@chainlink/contracts/src/v0.8/ChainlinkClient.sol\":2065:2128  req.initialize(specId, callbackAddr, callbackFunctionSignature) */\n      swap4\n      swap3\n      swap2\n      swap1\n      0xffffffff\n      and\n      jump\t// in\n    tag_93:\n        /* \"@chainlink/contracts/src/v0.8/ChainlinkClient.sol\":2058:2128  return req.initialize(specId, callbackAddr, callbackFunctionSignature) */\n      swap2\n      pop\n      pop\n        /* \"@chainlink/contracts/src/v0.8/ChainlinkClient.sol\":1850:2133  function buildChainlinkRequest(... */\n      swap4\n      swap3\n      pop\n      pop\n      pop\n      jump\t// out\n        /* \"@chainlink/contracts/src/v0.8/Chainlink.sol\":1951:2126  function add(... */\n    tag_49:\n        /* \"@chainlink/contracts/src/v0.8/Chainlink.sol\":2061:2087  self.buf.encodeString(key) */\n      tag_96\n        /* \"@chainlink/contracts/src/v0.8/Chainlink.sol\":2083:2086  key */\n      dup3\n        /* \"@chainlink/contracts/src/v0.8/Chainlink.sol\":2061:2065  self */\n      dup5\n        /* \"@chainlink/contracts/src/v0.8/Chainlink.sol\":2061:2069  self.buf */\n      0x80\n      add\n      mload\n        /* \"@chainlink/contracts/src/v0.8/Chainlink.sol\":2061:2082  self.buf.encodeString */\n      tag_97\n      swap1\n        /* \"@chainlink/contracts/src/v0.8/Chainlink.sol\":2061:2087  self.buf.encodeString(key) */\n      swap2\n      swap1\n      0xffffffff\n      and\n      jump\t// in\n    tag_96:\n        /* \"@chainlink/contracts/src/v0.8/Chainlink.sol\":2093:2121  self.buf.encodeString(value) */\n      tag_98\n        /* \"@chainlink/contracts/src/v0.8/Chainlink.sol\":2115:2120  value */\n      dup2\n        /* \"@chainlink/contracts/src/v0.8/Chainlink.sol\":2093:2097  self */\n      dup5\n        /* \"@chainlink/contracts/src/v0.8/Chainlink.sol\":2093:2101  self.buf */\n      0x80\n      add\n      mload\n        /* \"@chainlink/contracts/src/v0.8/Chainlink.sol\":2093:2114  self.buf.encodeString */\n      tag_97\n      swap1\n        /* \"@chainlink/contracts/src/v0.8/Chainlink.sol\":2093:2121  self.buf.encodeString(value) */\n      swap2\n      swap1\n      0xffffffff\n      and\n      jump\t// in\n    tag_98:\n        /* \"@chainlink/contracts/src/v0.8/Chainlink.sol\":1951:2126  function add(... */\n      pop\n      pop\n      pop\n      jump\t// out\n        /* \"@chainlink/contracts/src/v0.8/ChainlinkClient.sol\":2992:3169  function sendChainlinkRequest(Chainlink.Request memory req, uint256 payment) internal returns (bytes32) {... */\n    tag_52:\n        /* \"@chainlink/contracts/src/v0.8/ChainlinkClient.sol\":3087:3094  bytes32 */\n      0x00\n        /* \"@chainlink/contracts/src/v0.8/ChainlinkClient.sol\":3109:3164  sendChainlinkRequestTo(address(s_oracle), req, payment) */\n      tag_100\n        /* \"@chainlink/contracts/src/v0.8/ChainlinkClient.sol\":3140:3148  s_oracle */\n      0x03\n      0x00\n      swap1\n      sload\n      swap1\n      0x0100\n      exp\n      swap1\n      div\n      0xffffffffffffffffffffffffffffffffffffffff\n      and\n        /* \"@chainlink/contracts/src/v0.8/ChainlinkClient.sol\":3151:3154  req */\n      dup5\n        /* \"@chainlink/contracts/src/v0.8/ChainlinkClient.sol\":3156:3163  payment */\n      dup5\n        /* \"@chainlink/contracts/src/v0.8/ChainlinkClient.sol\":3109:3131  sendChainlinkRequestTo */\n      tag_101\n        /* \"@chainlink/contracts/src/v0.8/ChainlinkClient.sol\":3109:3164  sendChainlinkRequestTo(address(s_oracle), req, payment) */\n      jump\t// in\n    tag_100:\n        /* \"@chainlink/contracts/src/v0.8/ChainlinkClient.sol\":3102:3164  return sendChainlinkRequestTo(address(s_oracle), req, payment) */\n      swap1\n      pop\n        /* \"@chainlink/contracts/src/v0.8/ChainlinkClient.sol\":2992:3169  function sendChainlinkRequest(Chainlink.Request memory req, uint256 payment) internal returns (bytes32) {... */\n      swap3\n      swap2\n      pop\n      pop\n      jump\t// out\n        /* \"@chainlink/contracts/src/v0.8/ConfirmedOwnerWithProposal.sol\":1730:1841  function _validateOwnership() internal view {... */\n    tag_66:\n        /* \"@chainlink/contracts/src/v0.8/ConfirmedOwnerWithProposal.sol\":1802:1809  s_owner */\n      0x06\n      0x00\n      swap1\n      sload\n      swap1\n      0x0100\n      exp\n      swap1\n      div\n      0xffffffffffffffffffffffffffffffffffffffff\n      and\n        /* \"@chainlink/contracts/src/v0.8/ConfirmedOwnerWithProposal.sol\":1788:1809  msg.sender == s_owner */\n      0xffffffffffffffffffffffffffffffffffffffff\n      and\n        /* \"@chainlink/contracts/src/v0.8/ConfirmedOwnerWithProposal.sol\":1788:1798  msg.sender */\n      caller\n        /* \"@chainlink/contracts/src/v0.8/ConfirmedOwnerWithProposal.sol\":1788:1809  msg.sender == s_owner */\n      0xffffffffffffffffffffffffffffffffffffffff\n      and\n      eq\n        /* \"@chainlink/contracts/src/v0.8/ConfirmedOwnerWithProposal.sol\":1780:1836  require(msg.sender == s_owner, \"Only callable by owner\") */\n      tag_103\n      jumpi\n      mload(0x40)\n      0x08c379a000000000000000000000000000000000000000000000000000000000\n      dup2\n      mstore\n      0x04\n      add\n      tag_104\n      swap1\n      tag_105\n      jump\t// in\n    tag_104:\n      mload(0x40)\n      dup1\n      swap2\n      sub\n      swap1\n      revert\n    tag_103:\n        /* \"@chainlink/contracts/src/v0.8/ConfirmedOwnerWithProposal.sol\":1730:1841  function _validateOwnership() internal view {... */\n      jump\t// out\n        /* \"@chainlink/contracts/src/v0.8/ChainlinkClient.sol\":9098:9196  function chainlinkTokenAddress() internal view returns (address) {... */\n    tag_69:\n        /* \"@chainlink/contracts/src/v0.8/ChainlinkClient.sol\":9154:9161  address */\n      0x00\n        /* \"@chainlink/contracts/src/v0.8/ChainlinkClient.sol\":9184:9190  s_link */\n      0x02\n      0x00\n      swap1\n      sload\n      swap1\n      0x0100\n      exp\n      swap1\n      div\n      0xffffffffffffffffffffffffffffffffffffffff\n      and\n        /* \"@chainlink/contracts/src/v0.8/ChainlinkClient.sol\":9169:9191  return address(s_link) */\n      swap1\n      pop\n        /* \"@chainlink/contracts/src/v0.8/ChainlinkClient.sol\":9098:9196  function chainlinkTokenAddress() internal view returns (address) {... */\n      swap1\n      jump\t// out\n        /* \"@chainlink/contracts/src/v0.8/ConfirmedOwnerWithProposal.sol\":1497:1685  function _transferOwnership(address to) private {... */\n    tag_88:\n        /* \"@chainlink/contracts/src/v0.8/ConfirmedOwnerWithProposal.sol\":1565:1575  msg.sender */\n      caller\n        /* \"@chainlink/contracts/src/v0.8/ConfirmedOwnerWithProposal.sol\":1559:1575  to != msg.sender */\n      0xffffffffffffffffffffffffffffffffffffffff\n      and\n        /* \"@chainlink/contracts/src/v0.8/ConfirmedOwnerWithProposal.sol\":1559:1561  to */\n      dup2\n        /* \"@chainlink/contracts/src/v0.8/ConfirmedOwnerWithProposal.sol\":1559:1575  to != msg.sender */\n      0xffffffffffffffffffffffffffffffffffffffff\n      and\n      sub\n        /* \"@chainlink/contracts/src/v0.8/ConfirmedOwnerWithProposal.sol\":1551:1603  require(to != msg.sender, \"Cannot transfer to self\") */\n      tag_108\n      jumpi\n      mload(0x40)\n      0x08c379a000000000000000000000000000000000000000000000000000000000\n      dup2\n      mstore\n      0x04\n      add\n      tag_109\n      swap1\n      tag_110\n      jump\t// in\n    tag_109:\n      mload(0x40)\n      dup1\n      swap2\n      sub\n      swap1\n      revert\n    tag_108:\n        /* \"@chainlink/contracts/src/v0.8/ConfirmedOwnerWithProposal.sol\":1627:1629  to */\n      dup1\n        /* \"@chainlink/contracts/src/v0.8/ConfirmedOwnerWithProposal.sol\":1610:1624  s_pendingOwner */\n      0x07\n      0x00\n        /* \"@chainlink/contracts/src/v0.8/ConfirmedOwnerWithProposal.sol\":1610:1629  s_pendingOwner = to */\n      0x0100\n      exp\n      dup2\n      sload\n      dup2\n      0xffffffffffffffffffffffffffffffffffffffff\n      mul\n      not\n      and\n      swap1\n      dup4\n      0xffffffffffffffffffffffffffffffffffffffff\n      and\n      mul\n      or\n      swap1\n      sstore\n      pop\n        /* \"@chainlink/contracts/src/v0.8/ConfirmedOwnerWithProposal.sol\":1677:1679  to */\n      dup1\n        /* \"@chainlink/contracts/src/v0.8/ConfirmedOwnerWithProposal.sol\":1641:1680  OwnershipTransferRequested(s_owner, to) */\n      0xffffffffffffffffffffffffffffffffffffffff\n      and\n        /* \"@chainlink/contracts/src/v0.8/ConfirmedOwnerWithProposal.sol\":1668:1675  s_owner */\n      0x06\n      0x00\n      swap1\n      sload\n      swap1\n      0x0100\n      exp\n      swap1\n      div\n      0xffffffffffffffffffffffffffffffffffffffff\n      and\n        /* \"@chainlink/contracts/src/v0.8/ConfirmedOwnerWithProposal.sol\":1641:1680  OwnershipTransferRequested(s_owner, to) */\n      0xffffffffffffffffffffffffffffffffffffffff\n      and\n      0xed8889f560326eb138920d842192f0eb3dd22b4f139c87a2c57538e05bae1278\n      mload(0x40)\n      mload(0x40)\n      dup1\n      swap2\n      sub\n      swap1\n      log3\n        /* \"@chainlink/contracts/src/v0.8/ConfirmedOwnerWithProposal.sol\":1497:1685  function _transferOwnership(address to) private {... */\n      pop\n      jump\t// out\n        /* \"@chainlink/contracts/src/v0.8/Chainlink.sol\":987:1338  function initialize(... */\n    tag_94:\n        /* \"@chainlink/contracts/src/v0.8/Chainlink.sol\":1129:1153  Chainlink.Request memory */\n      tag_111\n      tag_90\n      jump\t// in\n    tag_111:\n        /* \"@chainlink/contracts/src/v0.8/Chainlink.sol\":1161:1210  BufferChainlink.init(self.buf, defaultBufferSize) */\n      tag_113\n        /* \"@chainlink/contracts/src/v0.8/Chainlink.sol\":1182:1186  self */\n      dup6\n        /* \"@chainlink/contracts/src/v0.8/Chainlink.sol\":1182:1190  self.buf */\n      0x80\n      add\n      mload\n        /* \"@chainlink/contracts/src/v0.8/Chainlink.sol\":361:364  256 */\n      0x0100\n        /* \"@chainlink/contracts/src/v0.8/Chainlink.sol\":1161:1181  BufferChainlink.init */\n      tag_114\n        /* \"@chainlink/contracts/src/v0.8/Chainlink.sol\":1161:1210  BufferChainlink.init(self.buf, defaultBufferSize) */\n      jump\t// in\n    tag_113:\n      pop\n        /* \"@chainlink/contracts/src/v0.8/Chainlink.sol\":1226:1231  jobId */\n      dup4\n        /* \"@chainlink/contracts/src/v0.8/Chainlink.sol\":1216:1220  self */\n      dup6\n        /* \"@chainlink/contracts/src/v0.8/Chainlink.sol\":1216:1223  self.id */\n      0x00\n      add\n        /* \"@chainlink/contracts/src/v0.8/Chainlink.sol\":1216:1231  self.id = jobId */\n      dup2\n      dup2\n      mstore\n      pop\n      pop\n        /* \"@chainlink/contracts/src/v0.8/Chainlink.sol\":1260:1272  callbackAddr */\n      dup3\n        /* \"@chainlink/contracts/src/v0.8/Chainlink.sol\":1237:1241  self */\n      dup6\n        /* \"@chainlink/contracts/src/v0.8/Chainlink.sol\":1237:1257  self.callbackAddress */\n      0x20\n      add\n        /* \"@chainlink/contracts/src/v0.8/Chainlink.sol\":1237:1272  self.callbackAddress = callbackAddr */\n      swap1\n      0xffffffffffffffffffffffffffffffffffffffff\n      and\n      swap1\n      dup2\n      0xffffffffffffffffffffffffffffffffffffffff\n      and\n      dup2\n      mstore\n      pop\n      pop\n        /* \"@chainlink/contracts/src/v0.8/Chainlink.sol\":1304:1316  callbackFunc */\n      dup2\n        /* \"@chainlink/contracts/src/v0.8/Chainlink.sol\":1278:1282  self */\n      dup6\n        /* \"@chainlink/contracts/src/v0.8/Chainlink.sol\":1278:1301  self.callbackFunctionId */\n      0x40\n      add\n        /* \"@chainlink/contracts/src/v0.8/Chainlink.sol\":1278:1316  self.callbackFunctionId = callbackFunc */\n      swap1\n      not(0xffffffffffffffffffffffffffffffffffffffffffffffffffffffff)\n      and\n      swap1\n      dup2\n      not(0xffffffffffffffffffffffffffffffffffffffffffffffffffffffff)\n      and\n      dup2\n      mstore\n      pop\n      pop\n        /* \"@chainlink/contracts/src/v0.8/Chainlink.sol\":1329:1333  self */\n      dup5\n        /* \"@chainlink/contracts/src/v0.8/Chainlink.sol\":1322:1333  return self */\n      swap1\n      pop\n        /* \"@chainlink/contracts/src/v0.8/Chainlink.sol\":987:1338  function initialize(... */\n      swap5\n      swap4\n      pop\n      pop\n      pop\n      pop\n      jump\t// out\n        /* \"@chainlink/contracts/src/v0.8/vendor/CBORChainlink.sol\":2777:2981  function encodeString(BufferChainlink.buffer memory buf, string memory value) internal pure {... */\n    tag_97:\n        /* \"@chainlink/contracts/src/v0.8/vendor/CBORChainlink.sol\":2875:2946  encodeFixedNumeric(buf, MAJOR_TYPE_STRING, uint64(bytes(value).length)) */\n      tag_116\n        /* \"@chainlink/contracts/src/v0.8/vendor/CBORChainlink.sol\":2894:2897  buf */\n      dup3\n        /* \"@chainlink/contracts/src/v0.8/vendor/CBORChainlink.sol\":383:384  3 */\n      0x03\n        /* \"@chainlink/contracts/src/v0.8/vendor/CBORChainlink.sol\":2931:2936  value */\n      dup4\n        /* \"@chainlink/contracts/src/v0.8/vendor/CBORChainlink.sol\":2925:2944  bytes(value).length */\n      mload\n        /* \"@chainlink/contracts/src/v0.8/vendor/CBORChainlink.sol\":2875:2893  encodeFixedNumeric */\n      tag_117\n        /* \"@chainlink/contracts/src/v0.8/vendor/CBORChainlink.sol\":2875:2946  encodeFixedNumeric(buf, MAJOR_TYPE_STRING, uint64(bytes(value).length)) */\n      jump\t// in\n    tag_116:\n        /* \"@chainlink/contracts/src/v0.8/vendor/CBORChainlink.sol\":2952:2976  buf.append(bytes(value)) */\n      tag_118\n        /* \"@chainlink/contracts/src/v0.8/vendor/CBORChainlink.sol\":2969:2974  value */\n      dup2\n        /* \"@chainlink/contracts/src/v0.8/vendor/CBORChainlink.sol\":2952:2955  buf */\n      dup4\n        /* \"@chainlink/contracts/src/v0.8/vendor/CBORChainlink.sol\":2952:2962  buf.append */\n      tag_119\n      swap1\n        /* \"@chainlink/contracts/src/v0.8/vendor/CBORChainlink.sol\":2952:2976  buf.append(bytes(value)) */\n      swap2\n      swap1\n      0xffffffff\n      and\n      jump\t// in\n    tag_118:\n      pop\n        /* \"@chainlink/contracts/src/v0.8/vendor/CBORChainlink.sol\":2777:2981  function encodeString(BufferChainlink.buffer memory buf, string memory value) internal pure {... */\n      pop\n      pop\n      jump\t// out\n        /* \"@chainlink/contracts/src/v0.8/ChainlinkClient.sol\":3687:4443  function sendChainlinkRequestTo(... */\n    tag_101:\n        /* \"@chainlink/contracts/src/v0.8/ChainlinkClient.sol\":3823:3840  bytes32 requestId */\n      0x00\n        /* \"@chainlink/contracts/src/v0.8/ChainlinkClient.sol\":3848:3861  uint256 nonce */\n      dup1\n        /* \"@chainlink/contracts/src/v0.8/ChainlinkClient.sol\":3864:3878  s_requestCount */\n      sload(0x04)\n        /* \"@chainlink/contracts/src/v0.8/ChainlinkClient.sol\":3848:3878  uint256 nonce = s_requestCount */\n      swap1\n      pop\n        /* \"@chainlink/contracts/src/v0.8/ChainlinkClient.sol\":3909:3910  1 */\n      0x01\n        /* \"@chainlink/contracts/src/v0.8/ChainlinkClient.sol\":3901:3906  nonce */\n      dup2\n        /* \"@chainlink/contracts/src/v0.8/ChainlinkClient.sol\":3901:3910  nonce + 1 */\n      tag_121\n      swap2\n      swap1\n      tag_122\n      jump\t// in\n    tag_121:\n        /* \"@chainlink/contracts/src/v0.8/ChainlinkClient.sol\":3884:3898  s_requestCount */\n      0x04\n        /* \"@chainlink/contracts/src/v0.8/ChainlinkClient.sol\":3884:3910  s_requestCount = nonce + 1 */\n      dup2\n      swap1\n      sstore\n      pop\n        /* \"@chainlink/contracts/src/v0.8/ChainlinkClient.sol\":3916:3943  bytes memory encodedRequest */\n      0x00\n        /* \"@chainlink/contracts/src/v0.8/ChainlinkClient.sol\":3976:4024  ChainlinkRequestInterface.oracleRequest.selector */\n      shl(0xe0, 0x40429946)\n        /* \"@chainlink/contracts/src/v0.8/ChainlinkClient.sol\":784:785  0 */\n      0x00\n        /* \"@chainlink/contracts/src/v0.8/ChainlinkClient.sol\":728:729  0 */\n      dup1\n        /* \"@chainlink/contracts/src/v0.8/ChainlinkClient.sol\":4245:4248  req */\n      dup8\n        /* \"@chainlink/contracts/src/v0.8/ChainlinkClient.sol\":4245:4251  req.id */\n      0x00\n      add\n      mload\n        /* \"@chainlink/contracts/src/v0.8/ChainlinkClient.sol\":4267:4271  this */\n      address\n        /* \"@chainlink/contracts/src/v0.8/ChainlinkClient.sol\":4280:4283  req */\n      dup10\n        /* \"@chainlink/contracts/src/v0.8/ChainlinkClient.sol\":4280:4302  req.callbackFunctionId */\n      0x40\n      add\n      mload\n        /* \"@chainlink/contracts/src/v0.8/ChainlinkClient.sol\":4310:4315  nonce */\n      dup8\n        /* \"@chainlink/contracts/src/v0.8/ChainlinkClient.sol\":837:838  1 */\n      0x01\n        /* \"@chainlink/contracts/src/v0.8/ChainlinkClient.sol\":4350:4353  req */\n      dup13\n        /* \"@chainlink/contracts/src/v0.8/ChainlinkClient.sol\":4350:4357  req.buf */\n      0x80\n      add\n      mload\n        /* \"@chainlink/contracts/src/v0.8/ChainlinkClient.sol\":4350:4361  req.buf.buf */\n      0x00\n      add\n      mload\n        /* \"@chainlink/contracts/src/v0.8/ChainlinkClient.sol\":3946:4367  abi.encodeWithSelector(... */\n      add(0x24, mload(0x40))\n      tag_123\n      swap9\n      swap8\n      swap7\n      swap6\n      swap5\n      swap4\n      swap3\n      swap2\n      swap1\n      tag_124\n      jump\t// in\n    tag_123:\n      mload(0x40)\n      0x20\n      dup2\n      dup4\n      sub\n      sub\n      dup2\n      mstore\n      swap1\n      0x40\n      mstore\n      swap1\n      not(0xffffffffffffffffffffffffffffffffffffffffffffffffffffffff)\n      and\n      0x20\n      dup3\n      add\n      dup1\n      mload\n      0xffffffffffffffffffffffffffffffffffffffffffffffffffffffff\n      dup4\n      dup2\n      dup4\n      and\n      or\n      dup4\n      mstore\n      pop\n      pop\n      pop\n      pop\n        /* \"@chainlink/contracts/src/v0.8/ChainlinkClient.sol\":3916:4367  bytes memory encodedRequest = abi.encodeWithSelector(... */\n      swap1\n      pop\n        /* \"@chainlink/contracts/src/v0.8/ChainlinkClient.sol\":4380:4438  _rawRequest(oracleAddress, nonce, payment, encodedRequest) */\n      tag_125\n        /* \"@chainlink/contracts/src/v0.8/ChainlinkClient.sol\":4392:4405  oracleAddress */\n      dup7\n        /* \"@chainlink/contracts/src/v0.8/ChainlinkClient.sol\":4407:4412  nonce */\n      dup4\n        /* \"@chainlink/contracts/src/v0.8/ChainlinkClient.sol\":4414:4421  payment */\n      dup7\n        /* \"@chainlink/contracts/src/v0.8/ChainlinkClient.sol\":4423:4437  encodedRequest */\n      dup5\n        /* \"@chainlink/contracts/src/v0.8/ChainlinkClient.sol\":4380:4391  _rawRequest */\n      tag_126\n        /* \"@chainlink/contracts/src/v0.8/ChainlinkClient.sol\":4380:4438  _rawRequest(oracleAddress, nonce, payment, encodedRequest) */\n      jump\t// in\n    tag_125:\n        /* \"@chainlink/contracts/src/v0.8/ChainlinkClient.sol\":4373:4438  return _rawRequest(oracleAddress, nonce, payment, encodedRequest) */\n      swap3\n      pop\n      pop\n      pop\n        /* \"@chainlink/contracts/src/v0.8/ChainlinkClient.sol\":3687:4443  function sendChainlinkRequestTo(... */\n      swap4\n      swap3\n      pop\n      pop\n      pop\n      jump\t// out\n        /* \"@chainlink/contracts/src/v0.8/vendor/BufferChainlink.sol\":1001:1400  function init(buffer memory buf, uint256 capacity) internal pure returns (buffer memory) {... */\n    tag_114:\n        /* \"@chainlink/contracts/src/v0.8/vendor/BufferChainlink.sol\":1075:1088  buffer memory */\n      tag_127\n      tag_128\n      jump\t// in\n    tag_127:\n        /* \"@chainlink/contracts/src/v0.8/vendor/BufferChainlink.sol\":1117:1118  0 */\n      0x00\n        /* \"@chainlink/contracts/src/v0.8/vendor/BufferChainlink.sol\":1111:1113  32 */\n      0x20\n        /* \"@chainlink/contracts/src/v0.8/vendor/BufferChainlink.sol\":1100:1108  capacity */\n      dup4\n        /* \"@chainlink/contracts/src/v0.8/vendor/BufferChainlink.sol\":1100:1113  capacity % 32 */\n      tag_130\n      swap2\n      swap1\n      tag_131\n      jump\t// in\n    tag_130:\n        /* \"@chainlink/contracts/src/v0.8/vendor/BufferChainlink.sol\":1100:1118  capacity % 32 != 0 */\n      eq\n        /* \"@chainlink/contracts/src/v0.8/vendor/BufferChainlink.sol\":1096:1167  if (capacity % 32 != 0) {... */\n      tag_132\n      jumpi\n        /* \"@chainlink/contracts/src/v0.8/vendor/BufferChainlink.sol\":1157:1159  32 */\n      0x20\n        /* \"@chainlink/contracts/src/v0.8/vendor/BufferChainlink.sol\":1146:1154  capacity */\n      dup3\n        /* \"@chainlink/contracts/src/v0.8/vendor/BufferChainlink.sol\":1146:1159  capacity % 32 */\n      tag_133\n      swap2\n      swap1\n      tag_131\n      jump\t// in\n    tag_133:\n        /* \"@chainlink/contracts/src/v0.8/vendor/BufferChainlink.sol\":1140:1142  32 */\n      0x20\n        /* \"@chainlink/contracts/src/v0.8/vendor/BufferChainlink.sol\":1140:1160  32 - (capacity % 32) */\n      tag_134\n      swap2\n      swap1\n      tag_135\n      jump\t// in\n    tag_134:\n        /* \"@chainlink/contracts/src/v0.8/vendor/BufferChainlink.sol\":1128:1160  capacity += 32 - (capacity % 32) */\n      dup3\n      tag_136\n      swap2\n      swap1\n      tag_122\n      jump\t// in\n    tag_136:\n      swap2\n      pop\n        /* \"@chainlink/contracts/src/v0.8/vendor/BufferChainlink.sol\":1096:1167  if (capacity % 32 != 0) {... */\n    tag_132:\n        /* \"@chainlink/contracts/src/v0.8/vendor/BufferChainlink.sol\":1229:1237  capacity */\n      dup2\n        /* \"@chainlink/contracts/src/v0.8/vendor/BufferChainlink.sol\":1214:1217  buf */\n      dup4\n        /* \"@chainlink/contracts/src/v0.8/vendor/BufferChainlink.sol\":1214:1226  buf.capacity */\n      0x20\n      add\n        /* \"@chainlink/contracts/src/v0.8/vendor/BufferChainlink.sol\":1214:1237  buf.capacity = capacity */\n      dup2\n      dup2\n      mstore\n      pop\n      pop\n        /* \"@chainlink/contracts/src/v0.8/vendor/BufferChainlink.sol\":1277:1281  0x40 */\n      0x40\n        /* \"@chainlink/contracts/src/v0.8/vendor/BufferChainlink.sol\":1271:1282  mload(0x40) */\n      mload\n        /* \"@chainlink/contracts/src/v0.8/vendor/BufferChainlink.sol\":1301:1304  ptr */\n      dup1\n        /* \"@chainlink/contracts/src/v0.8/vendor/BufferChainlink.sol\":1296:1299  buf */\n      dup5\n        /* \"@chainlink/contracts/src/v0.8/vendor/BufferChainlink.sol\":1289:1305  mstore(buf, ptr) */\n      mstore\n        /* \"@chainlink/contracts/src/v0.8/vendor/BufferChainlink.sol\":1324:1325  0 */\n      0x00\n        /* \"@chainlink/contracts/src/v0.8/vendor/BufferChainlink.sol\":1319:1322  ptr */\n      dup2\n        /* \"@chainlink/contracts/src/v0.8/vendor/BufferChainlink.sol\":1312:1326  mstore(ptr, 0) */\n      mstore\n        /* \"@chainlink/contracts/src/v0.8/vendor/BufferChainlink.sol\":1363:1371  capacity */\n      dup3\n        /* \"@chainlink/contracts/src/v0.8/vendor/BufferChainlink.sol\":1358:1361  ptr */\n      dup2\n        /* \"@chainlink/contracts/src/v0.8/vendor/BufferChainlink.sol\":1354:1372  add(ptr, capacity) */\n      add\n        /* \"@chainlink/contracts/src/v0.8/vendor/BufferChainlink.sol\":1350:1352  32 */\n      0x20\n        /* \"@chainlink/contracts/src/v0.8/vendor/BufferChainlink.sol\":1346:1373  add(32, add(ptr, capacity)) */\n      add\n        /* \"@chainlink/contracts/src/v0.8/vendor/BufferChainlink.sol\":1340:1344  0x40 */\n      0x40\n        /* \"@chainlink/contracts/src/v0.8/vendor/BufferChainlink.sol\":1333:1374  mstore(0x40, add(32, add(ptr, capacity))) */\n      mstore\n        /* \"@chainlink/contracts/src/v0.8/vendor/BufferChainlink.sol\":1252:1380  {... */\n      pop\n        /* \"@chainlink/contracts/src/v0.8/vendor/BufferChainlink.sol\":1392:1395  buf */\n      dup3\n        /* \"@chainlink/contracts/src/v0.8/vendor/BufferChainlink.sol\":1385:1395  return buf */\n      swap1\n      pop\n        /* \"@chainlink/contracts/src/v0.8/vendor/BufferChainlink.sol\":1001:1400  function init(buffer memory buf, uint256 capacity) internal pure returns (buffer memory) {... */\n      swap3\n      swap2\n      pop\n      pop\n      jump\t// out\n        /* \"@chainlink/contracts/src/v0.8/vendor/CBORChainlink.sol\":682:1307  function encodeFixedNumeric(BufferChainlink.buffer memory buf, uint8 major, uint64 value) private pure {... */\n    tag_117:\n        /* \"@chainlink/contracts/src/v0.8/vendor/CBORChainlink.sol\":803:805  23 */\n      0x17\n        /* \"@chainlink/contracts/src/v0.8/vendor/CBORChainlink.sol\":794:799  value */\n      dup2\n        /* \"@chainlink/contracts/src/v0.8/vendor/CBORChainlink.sol\":794:805  value <= 23 */\n      0xffffffffffffffff\n      and\n      gt\n        /* \"@chainlink/contracts/src/v0.8/vendor/CBORChainlink.sol\":791:1303  if(value <= 23) {... */\n      tag_138\n      jumpi\n        /* \"@chainlink/contracts/src/v0.8/vendor/CBORChainlink.sol\":815:859  buf.appendUint8(uint8((major << 5) | value)) */\n      tag_139\n        /* \"@chainlink/contracts/src/v0.8/vendor/CBORChainlink.sol\":852:857  value */\n      dup2\n        /* \"@chainlink/contracts/src/v0.8/vendor/CBORChainlink.sol\":847:848  5 */\n      0x05\n        /* \"@chainlink/contracts/src/v0.8/vendor/CBORChainlink.sol\":838:843  major */\n      dup5\n        /* \"@chainlink/contracts/src/v0.8/vendor/CBORChainlink.sol\":838:848  major << 5 */\n      0xff\n      and\n      swap1\n      shl\n        /* \"@chainlink/contracts/src/v0.8/vendor/CBORChainlink.sol\":837:857  (major << 5) | value */\n      0xff\n      and\n      or\n        /* \"@chainlink/contracts/src/v0.8/vendor/CBORChainlink.sol\":815:818  buf */\n      dup5\n        /* \"@chainlink/contracts/src/v0.8/vendor/CBORChainlink.sol\":815:830  buf.appendUint8 */\n      tag_140\n      swap1\n        /* \"@chainlink/contracts/src/v0.8/vendor/CBORChainlink.sol\":815:859  buf.appendUint8(uint8((major << 5) | value)) */\n      swap2\n      swap1\n      0xffffffff\n      and\n      jump\t// in\n    tag_139:\n      pop\n        /* \"@chainlink/contracts/src/v0.8/vendor/CBORChainlink.sol\":791:1303  if(value <= 23) {... */\n      jump(tag_141)\n    tag_138:\n        /* \"@chainlink/contracts/src/v0.8/vendor/CBORChainlink.sol\":885:889  0xFF */\n      0xff\n        /* \"@chainlink/contracts/src/v0.8/vendor/CBORChainlink.sol\":876:881  value */\n      dup2\n        /* \"@chainlink/contracts/src/v0.8/vendor/CBORChainlink.sol\":876:889  value <= 0xFF */\n      0xffffffffffffffff\n      and\n      gt\n        /* \"@chainlink/contracts/src/v0.8/vendor/CBORChainlink.sol\":872:1303  if (value <= 0xFF) {... */\n      tag_142\n      jumpi\n        /* \"@chainlink/contracts/src/v0.8/vendor/CBORChainlink.sol\":899:940  buf.appendUint8(uint8((major << 5) | 24)) */\n      tag_143\n        /* \"@chainlink/contracts/src/v0.8/vendor/CBORChainlink.sol\":936:938  24 */\n      0x18\n        /* \"@chainlink/contracts/src/v0.8/vendor/CBORChainlink.sol\":931:932  5 */\n      0x05\n        /* \"@chainlink/contracts/src/v0.8/vendor/CBORChainlink.sol\":922:927  major */\n      dup5\n        /* \"@chainlink/contracts/src/v0.8/vendor/CBORChainlink.sol\":922:932  major << 5 */\n      0xff\n      and\n      swap1\n      shl\n        /* \"@chainlink/contracts/src/v0.8/vendor/CBORChainlink.sol\":921:938  (major << 5) | 24 */\n      or\n        /* \"@chainlink/contracts/src/v0.8/vendor/CBORChainlink.sol\":899:902  buf */\n      dup5\n        /* \"@chainlink/contracts/src/v0.8/vendor/CBORChainlink.sol\":899:914  buf.appendUint8 */\n      tag_140\n      swap1\n        /* \"@chainlink/contracts/src/v0.8/vendor/CBORChainlink.sol\":899:940  buf.appendUint8(uint8((major << 5) | 24)) */\n      swap2\n      swap1\n      0xffffffff\n      and\n      jump\t// in\n    tag_143:\n      pop\n        /* \"@chainlink/contracts/src/v0.8/vendor/CBORChainlink.sol\":948:971  buf.appendInt(value, 1) */\n      tag_144\n        /* \"@chainlink/contracts/src/v0.8/vendor/CBORChainlink.sol\":962:967  value */\n      dup2\n        /* \"@chainlink/contracts/src/v0.8/vendor/CBORChainlink.sol\":948:971  buf.appendInt(value, 1) */\n      0xffffffffffffffff\n      and\n        /* \"@chainlink/contracts/src/v0.8/vendor/CBORChainlink.sol\":969:970  1 */\n      0x01\n        /* \"@chainlink/contracts/src/v0.8/vendor/CBORChainlink.sol\":948:951  buf */\n      dup6\n        /* \"@chainlink/contracts/src/v0.8/vendor/CBORChainlink.sol\":948:961  buf.appendInt */\n      tag_145\n      swap1\n        /* \"@chainlink/contracts/src/v0.8/vendor/CBORChainlink.sol\":948:971  buf.appendInt(value, 1) */\n      swap3\n      swap2\n      swap1\n      0xffffffff\n      and\n      jump\t// in\n    tag_144:\n      pop\n        /* \"@chainlink/contracts/src/v0.8/vendor/CBORChainlink.sol\":872:1303  if (value <= 0xFF) {... */\n      jump(tag_146)\n    tag_142:\n        /* \"@chainlink/contracts/src/v0.8/vendor/CBORChainlink.sol\":997:1003  0xFFFF */\n      0xffff\n        /* \"@chainlink/contracts/src/v0.8/vendor/CBORChainlink.sol\":988:993  value */\n      dup2\n        /* \"@chainlink/contracts/src/v0.8/vendor/CBORChainlink.sol\":988:1003  value <= 0xFFFF */\n      0xffffffffffffffff\n      and\n      gt\n        /* \"@chainlink/contracts/src/v0.8/vendor/CBORChainlink.sol\":984:1303  if (value <= 0xFFFF) {... */\n      tag_147\n      jumpi\n        /* \"@chainlink/contracts/src/v0.8/vendor/CBORChainlink.sol\":1013:1054  buf.appendUint8(uint8((major << 5) | 25)) */\n      tag_148\n        /* \"@chainlink/contracts/src/v0.8/vendor/CBORChainlink.sol\":1050:1052  25 */\n      0x19\n        /* \"@chainlink/contracts/src/v0.8/vendor/CBORChainlink.sol\":1045:1046  5 */\n      0x05\n        /* \"@chainlink/contracts/src/v0.8/vendor/CBORChainlink.sol\":1036:1041  major */\n      dup5\n        /* \"@chainlink/contracts/src/v0.8/vendor/CBORChainlink.sol\":1036:1046  major << 5 */\n      0xff\n      and\n      swap1\n      shl\n        /* \"@chainlink/contracts/src/v0.8/vendor/CBORChainlink.sol\":1035:1052  (major << 5) | 25 */\n      or\n        /* \"@chainlink/contracts/src/v0.8/vendor/CBORChainlink.sol\":1013:1016  buf */\n      dup5\n        /* \"@chainlink/contracts/src/v0.8/vendor/CBORChainlink.sol\":1013:1028  buf.appendUint8 */\n      tag_140\n      swap1\n        /* \"@chainlink/contracts/src/v0.8/vendor/CBORChainlink.sol\":1013:1054  buf.appendUint8(uint8((major << 5) | 25)) */\n      swap2\n      swap1\n      0xffffffff\n      and\n      jump\t// in\n    tag_148:\n      pop\n        /* \"@chainlink/contracts/src/v0.8/vendor/CBORChainlink.sol\":1062:1085  buf.appendInt(value, 2) */\n      tag_149\n        /* \"@chainlink/contracts/src/v0.8/vendor/CBORChainlink.sol\":1076:1081  value */\n      dup2\n        /* \"@chainlink/contracts/src/v0.8/vendor/CBORChainlink.sol\":1062:1085  buf.appendInt(value, 2) */\n      0xffffffffffffffff\n      and\n        /* \"@chainlink/contracts/src/v0.8/vendor/CBORChainlink.sol\":1083:1084  2 */\n      0x02\n        /* \"@chainlink/contracts/src/v0.8/vendor/CBORChainlink.sol\":1062:1065  buf */\n      dup6\n        /* \"@chainlink/contracts/src/v0.8/vendor/CBORChainlink.sol\":1062:1075  buf.appendInt */\n      tag_145\n      swap1\n        /* \"@chainlink/contracts/src/v0.8/vendor/CBORChainlink.sol\":1062:1085  buf.appendInt(value, 2) */\n      swap3\n      swap2\n      swap1\n      0xffffffff\n      and\n      jump\t// in\n    tag_149:\n      pop\n        /* \"@chainlink/contracts/src/v0.8/vendor/CBORChainlink.sol\":984:1303  if (value <= 0xFFFF) {... */\n      jump(tag_150)\n    tag_147:\n        /* \"@chainlink/contracts/src/v0.8/vendor/CBORChainlink.sol\":1111:1121  0xFFFFFFFF */\n      0xffffffff\n        /* \"@chainlink/contracts/src/v0.8/vendor/CBORChainlink.sol\":1102:1107  value */\n      dup2\n        /* \"@chainlink/contracts/src/v0.8/vendor/CBORChainlink.sol\":1102:1121  value <= 0xFFFFFFFF */\n      0xffffffffffffffff\n      and\n      gt\n        /* \"@chainlink/contracts/src/v0.8/vendor/CBORChainlink.sol\":1098:1303  if (value <= 0xFFFFFFFF) {... */\n      tag_151\n      jumpi\n        /* \"@chainlink/contracts/src/v0.8/vendor/CBORChainlink.sol\":1131:1172  buf.appendUint8(uint8((major << 5) | 26)) */\n      tag_152\n        /* \"@chainlink/contracts/src/v0.8/vendor/CBORChainlink.sol\":1168:1170  26 */\n      0x1a\n        /* \"@chainlink/contracts/src/v0.8/vendor/CBORChainlink.sol\":1163:1164  5 */\n      0x05\n        /* \"@chainlink/contracts/src/v0.8/vendor/CBORChainlink.sol\":1154:1159  major */\n      dup5\n        /* \"@chainlink/contracts/src/v0.8/vendor/CBORChainlink.sol\":1154:1164  major << 5 */\n      0xff\n      and\n      swap1\n      shl\n        /* \"@chainlink/contracts/src/v0.8/vendor/CBORChainlink.sol\":1153:1170  (major << 5) | 26 */\n      or\n        /* \"@chainlink/contracts/src/v0.8/vendor/CBORChainlink.sol\":1131:1134  buf */\n      dup5\n        /* \"@chainlink/contracts/src/v0.8/vendor/CBORChainlink.sol\":1131:1146  buf.appendUint8 */\n      tag_140\n      swap1\n        /* \"@chainlink/contracts/src/v0.8/vendor/CBORChainlink.sol\":1131:1172  buf.appendUint8(uint8((major << 5) | 26)) */\n      swap2\n      swap1\n      0xffffffff\n      and\n      jump\t// in\n    tag_152:\n      pop\n        /* \"@chainlink/contracts/src/v0.8/vendor/CBORChainlink.sol\":1180:1203  buf.appendInt(value, 4) */\n      tag_153\n        /* \"@chainlink/contracts/src/v0.8/vendor/CBORChainlink.sol\":1194:1199  value */\n      dup2\n        /* \"@chainlink/contracts/src/v0.8/vendor/CBORChainlink.sol\":1180:1203  buf.appendInt(value, 4) */\n      0xffffffffffffffff\n      and\n        /* \"@chainlink/contracts/src/v0.8/vendor/CBORChainlink.sol\":1201:1202  4 */\n      0x04\n        /* \"@chainlink/contracts/src/v0.8/vendor/CBORChainlink.sol\":1180:1183  buf */\n      dup6\n        /* \"@chainlink/contracts/src/v0.8/vendor/CBORChainlink.sol\":1180:1193  buf.appendInt */\n      tag_145\n      swap1\n        /* \"@chainlink/contracts/src/v0.8/vendor/CBORChainlink.sol\":1180:1203  buf.appendInt(value, 4) */\n      swap3\n      swap2\n      swap1\n      0xffffffff\n      and\n      jump\t// in\n    tag_153:\n      pop\n        /* \"@chainlink/contracts/src/v0.8/vendor/CBORChainlink.sol\":1098:1303  if (value <= 0xFFFFFFFF) {... */\n      jump(tag_154)\n    tag_151:\n        /* \"@chainlink/contracts/src/v0.8/vendor/CBORChainlink.sol\":1224:1265  buf.appendUint8(uint8((major << 5) | 27)) */\n      tag_155\n        /* \"@chainlink/contracts/src/v0.8/vendor/CBORChainlink.sol\":1261:1263  27 */\n      0x1b\n        /* \"@chainlink/contracts/src/v0.8/vendor/CBORChainlink.sol\":1256:1257  5 */\n      0x05\n        /* \"@chainlink/contracts/src/v0.8/vendor/CBORChainlink.sol\":1247:1252  major */\n      dup5\n        /* \"@chainlink/contracts/src/v0.8/vendor/CBORChainlink.sol\":1247:1257  major << 5 */\n      0xff\n      and\n      swap1\n      shl\n        /* \"@chainlink/contracts/src/v0.8/vendor/CBORChainlink.sol\":1246:1263  (major << 5) | 27 */\n      or\n        /* \"@chainlink/contracts/src/v0.8/vendor/CBORChainlink.sol\":1224:1227  buf */\n      dup5\n        /* \"@chainlink/contracts/src/v0.8/vendor/CBORChainlink.sol\":1224:1239  buf.appendUint8 */\n      tag_140\n      swap1\n        /* \"@chainlink/contracts/src/v0.8/vendor/CBORChainlink.sol\":1224:1265  buf.appendUint8(uint8((major << 5) | 27)) */\n      swap2\n      swap1\n      0xffffffff\n      and\n      jump\t// in\n    tag_155:\n      pop\n        /* \"@chainlink/contracts/src/v0.8/vendor/CBORChainlink.sol\":1273:1296  buf.appendInt(value, 8) */\n      tag_156\n        /* \"@chainlink/contracts/src/v0.8/vendor/CBORChainlink.sol\":1287:1292  value */\n      dup2\n        /* \"@chainlink/contracts/src/v0.8/vendor/CBORChainlink.sol\":1273:1296  buf.appendInt(value, 8) */\n      0xffffffffffffffff\n      and\n        /* \"@chainlink/contracts/src/v0.8/vendor/CBORChainlink.sol\":1294:1295  8 */\n      0x08\n        /* \"@chainlink/contracts/src/v0.8/vendor/CBORChainlink.sol\":1273:1276  buf */\n      dup6\n        /* \"@chainlink/contracts/src/v0.8/vendor/CBORChainlink.sol\":1273:1286  buf.appendInt */\n      tag_145\n      swap1\n        /* \"@chainlink/contracts/src/v0.8/vendor/CBORChainlink.sol\":1273:1296  buf.appendInt(value, 8) */\n      swap3\n      swap2\n      swap1\n      0xffffffff\n      and\n      jump\t// in\n    tag_156:\n      pop\n        /* \"@chainlink/contracts/src/v0.8/vendor/CBORChainlink.sol\":1098:1303  if (value <= 0xFFFFFFFF) {... */\n    tag_154:\n        /* \"@chainlink/contracts/src/v0.8/vendor/CBORChainlink.sol\":984:1303  if (value <= 0xFFFF) {... */\n    tag_150:\n        /* \"@chainlink/contracts/src/v0.8/vendor/CBORChainlink.sol\":872:1303  if (value <= 0xFF) {... */\n    tag_146:\n        /* \"@chainlink/contracts/src/v0.8/vendor/CBORChainlink.sol\":791:1303  if(value <= 23) {... */\n    tag_141:\n        /* \"@chainlink/contracts/src/v0.8/vendor/CBORChainlink.sol\":682:1307  function encodeFixedNumeric(BufferChainlink.buffer memory buf, uint8 major, uint64 value) private pure {... */\n      pop\n      pop\n      pop\n      jump\t// out\n        /* \"@chainlink/contracts/src/v0.8/vendor/BufferChainlink.sol\":4692:4847  function append(buffer memory buf, bytes memory data) internal pure returns (buffer memory) {... */\n    tag_119:\n        /* \"@chainlink/contracts/src/v0.8/vendor/BufferChainlink.sol\":4769:4782  buffer memory */\n      tag_157\n      tag_128\n      jump\t// in\n    tag_157:\n        /* \"@chainlink/contracts/src/v0.8/vendor/BufferChainlink.sol\":4797:4842  write(buf, buf.buf.length, data, data.length) */\n      tag_159\n        /* \"@chainlink/contracts/src/v0.8/vendor/BufferChainlink.sol\":4803:4806  buf */\n      dup4\n        /* \"@chainlink/contracts/src/v0.8/vendor/BufferChainlink.sol\":4808:4811  buf */\n      dup5\n        /* \"@chainlink/contracts/src/v0.8/vendor/BufferChainlink.sol\":4808:4815  buf.buf */\n      0x00\n      add\n      mload\n        /* \"@chainlink/contracts/src/v0.8/vendor/BufferChainlink.sol\":4808:4822  buf.buf.length */\n      mload\n        /* \"@chainlink/contracts/src/v0.8/vendor/BufferChainlink.sol\":4824:4828  data */\n      dup5\n        /* \"@chainlink/contracts/src/v0.8/vendor/BufferChainlink.sol\":4830:4834  data */\n      dup6\n        /* \"@chainlink/contracts/src/v0.8/vendor/BufferChainlink.sol\":4830:4841  data.length */\n      mload\n        /* \"@chainlink/contracts/src/v0.8/vendor/BufferChainlink.sol\":4797:4802  write */\n      tag_160\n        /* \"@chainlink/contracts/src/v0.8/vendor/BufferChainlink.sol\":4797:4842  write(buf, buf.buf.length, data, data.length) */\n      jump\t// in\n    tag_159:\n        /* \"@chainlink/contracts/src/v0.8/vendor/BufferChainlink.sol\":4790:4842  return write(buf, buf.buf.length, data, data.length) */\n      swap1\n      pop\n        /* \"@chainlink/contracts/src/v0.8/vendor/BufferChainlink.sol\":4692:4847  function append(buffer memory buf, bytes memory data) internal pure returns (buffer memory) {... */\n      swap3\n      swap2\n      pop\n      pop\n      jump\t// out\n        /* \"@chainlink/contracts/src/v0.8/ChainlinkClient.sol\":6629:7059  function _rawRequest(... */\n    tag_126:\n        /* \"@chainlink/contracts/src/v0.8/ChainlinkClient.sol\":6771:6788  bytes32 requestId */\n      0x00\n        /* \"@chainlink/contracts/src/v0.8/ChainlinkClient.sol\":6835:6839  this */\n      address\n        /* \"@chainlink/contracts/src/v0.8/ChainlinkClient.sol\":6841:6846  nonce */\n      dup5\n        /* \"@chainlink/contracts/src/v0.8/ChainlinkClient.sol\":6818:6847  abi.encodePacked(this, nonce) */\n      add(0x20, mload(0x40))\n      tag_162\n      swap3\n      swap2\n      swap1\n      tag_163\n      jump\t// in\n    tag_162:\n      mload(0x40)\n      0x20\n      dup2\n      dup4\n      sub\n      sub\n      dup2\n      mstore\n      swap1\n      0x40\n      mstore\n        /* \"@chainlink/contracts/src/v0.8/ChainlinkClient.sol\":6808:6848  keccak256(abi.encodePacked(this, nonce)) */\n      dup1\n      mload\n      swap1\n      0x20\n      add\n      keccak256\n        /* \"@chainlink/contracts/src/v0.8/ChainlinkClient.sol\":6796:6848  requestId = keccak256(abi.encodePacked(this, nonce)) */\n      swap1\n      pop\n        /* \"@chainlink/contracts/src/v0.8/ChainlinkClient.sol\":6885:6898  oracleAddress */\n      dup5\n        /* \"@chainlink/contracts/src/v0.8/ChainlinkClient.sol\":6854:6871  s_pendingRequests */\n      0x05\n        /* \"@chainlink/contracts/src/v0.8/ChainlinkClient.sol\":6854:6882  s_pendingRequests[requestId] */\n      0x00\n        /* \"@chainlink/contracts/src/v0.8/ChainlinkClient.sol\":6872:6881  requestId */\n      dup4\n        /* \"@chainlink/contracts/src/v0.8/ChainlinkClient.sol\":6854:6882  s_pendingRequests[requestId] */\n      dup2\n      mstore\n      0x20\n      add\n      swap1\n      dup2\n      mstore\n      0x20\n      add\n      0x00\n      keccak256\n      0x00\n        /* \"@chainlink/contracts/src/v0.8/ChainlinkClient.sol\":6854:6898  s_pendingRequests[requestId] = oracleAddress */\n      0x0100\n      exp\n      dup2\n      sload\n      dup2\n      0xffffffffffffffffffffffffffffffffffffffff\n      mul\n      not\n      and\n      swap1\n      dup4\n      0xffffffffffffffffffffffffffffffffffffffff\n      and\n      mul\n      or\n      swap1\n      sstore\n      pop\n        /* \"@chainlink/contracts/src/v0.8/ChainlinkClient.sol\":6928:6937  requestId */\n      dup1\n        /* \"@chainlink/contracts/src/v0.8/ChainlinkClient.sol\":6909:6938  ChainlinkRequested(requestId) */\n      0xb5e6e01e79f91267dc17b4e6314d5d4d03593d2ceee0fbb452b750bd70ea5af9\n      mload(0x40)\n      mload(0x40)\n      dup1\n      swap2\n      sub\n      swap1\n      log2\n        /* \"@chainlink/contracts/src/v0.8/ChainlinkClient.sol\":6952:6958  s_link */\n      0x02\n      0x00\n      swap1\n      sload\n      swap1\n      0x0100\n      exp\n      swap1\n      div\n      0xffffffffffffffffffffffffffffffffffffffff\n      and\n        /* \"@chainlink/contracts/src/v0.8/ChainlinkClient.sol\":6952:6974  s_link.transferAndCall */\n      0xffffffffffffffffffffffffffffffffffffffff\n      and\n      0x4000aea0\n        /* \"@chainlink/contracts/src/v0.8/ChainlinkClient.sol\":6975:6988  oracleAddress */\n      dup7\n        /* \"@chainlink/contracts/src/v0.8/ChainlinkClient.sol\":6990:6997  payment */\n      dup6\n        /* \"@chainlink/contracts/src/v0.8/ChainlinkClient.sol\":6999:7013  encodedRequest */\n      dup6\n        /* \"@chainlink/contracts/src/v0.8/ChainlinkClient.sol\":6952:7014  s_link.transferAndCall(oracleAddress, payment, encodedRequest) */\n      mload(0x40)\n      dup5\n      0xffffffff\n      and\n      0xe0\n      shl\n      dup2\n      mstore\n      0x04\n      add\n      tag_164\n      swap4\n      swap3\n      swap2\n      swap1\n      tag_165\n      jump\t// in\n    tag_164:\n      0x20\n      mload(0x40)\n      dup1\n      dup4\n      sub\n      dup2\n      0x00\n      dup8\n      gas\n      call\n      iszero\n      dup1\n      iszero\n      tag_167\n      jumpi\n      returndatasize\n      0x00\n      dup1\n      returndatacopy\n      revert(0x00, returndatasize)\n    tag_167:\n      pop\n      pop\n      pop\n      pop\n      mload(0x40)\n      returndatasize\n      not(0x1f)\n      0x1f\n      dup3\n      add\n      and\n      dup3\n      add\n      dup1\n      0x40\n      mstore\n      pop\n      dup2\n      add\n      swap1\n      tag_168\n      swap2\n      swap1\n      tag_80\n      jump\t// in\n    tag_168:\n        /* \"@chainlink/contracts/src/v0.8/ChainlinkClient.sol\":6944:7054  require(s_link.transferAndCall(oracleAddress, payment, encodedRequest), \"unable to transferAndCall to oracle\") */\n      tag_169\n      jumpi\n      mload(0x40)\n      0x08c379a000000000000000000000000000000000000000000000000000000000\n      dup2\n      mstore\n      0x04\n      add\n      tag_170\n      swap1\n      tag_171\n      jump\t// in\n    tag_170:\n      mload(0x40)\n      dup1\n      swap2\n      sub\n      swap1\n      revert\n    tag_169:\n        /* \"@chainlink/contracts/src/v0.8/ChainlinkClient.sol\":6629:7059  function _rawRequest(... */\n      swap5\n      swap4\n      pop\n      pop\n      pop\n      pop\n      jump\t// out\n        /* \"@chainlink/contracts/src/v0.8/vendor/BufferChainlink.sol\":6040:6185  function appendUint8(buffer memory buf, uint8 data) internal pure returns (buffer memory) {... */\n    tag_140:\n        /* \"@chainlink/contracts/src/v0.8/vendor/BufferChainlink.sol\":6115:6128  buffer memory */\n      tag_172\n      tag_128\n      jump\t// in\n    tag_172:\n        /* \"@chainlink/contracts/src/v0.8/vendor/BufferChainlink.sol\":6143:6180  writeUint8(buf, buf.buf.length, data) */\n      tag_174\n        /* \"@chainlink/contracts/src/v0.8/vendor/BufferChainlink.sol\":6154:6157  buf */\n      dup4\n        /* \"@chainlink/contracts/src/v0.8/vendor/BufferChainlink.sol\":6159:6162  buf */\n      dup5\n        /* \"@chainlink/contracts/src/v0.8/vendor/BufferChainlink.sol\":6159:6166  buf.buf */\n      0x00\n      add\n      mload\n        /* \"@chainlink/contracts/src/v0.8/vendor/BufferChainlink.sol\":6159:6173  buf.buf.length */\n      mload\n        /* \"@chainlink/contracts/src/v0.8/vendor/BufferChainlink.sol\":6175:6179  data */\n      dup5\n        /* \"@chainlink/contracts/src/v0.8/vendor/BufferChainlink.sol\":6143:6153  writeUint8 */\n      tag_175\n        /* \"@chainlink/contracts/src/v0.8/vendor/BufferChainlink.sol\":6143:6180  writeUint8(buf, buf.buf.length, data) */\n      jump\t// in\n    tag_174:\n        /* \"@chainlink/contracts/src/v0.8/vendor/BufferChainlink.sol\":6136:6180  return writeUint8(buf, buf.buf.length, data) */\n      swap1\n      pop\n        /* \"@chainlink/contracts/src/v0.8/vendor/BufferChainlink.sol\":6040:6185  function appendUint8(buffer memory buf, uint8 data) internal pure returns (buffer memory) {... */\n      swap3\n      swap2\n      pop\n      pop\n      jump\t// out\n        /* \"@chainlink/contracts/src/v0.8/vendor/BufferChainlink.sol\":9894:10071  function appendInt(... */\n    tag_145:\n        /* \"@chainlink/contracts/src/v0.8/vendor/BufferChainlink.sol\":9998:10011  buffer memory */\n      tag_176\n      tag_128\n      jump\t// in\n    tag_176:\n        /* \"@chainlink/contracts/src/v0.8/vendor/BufferChainlink.sol\":10026:10066  writeInt(buf, buf.buf.length, data, len) */\n      tag_178\n        /* \"@chainlink/contracts/src/v0.8/vendor/BufferChainlink.sol\":10035:10038  buf */\n      dup5\n        /* \"@chainlink/contracts/src/v0.8/vendor/BufferChainlink.sol\":10040:10043  buf */\n      dup6\n        /* \"@chainlink/contracts/src/v0.8/vendor/BufferChainlink.sol\":10040:10047  buf.buf */\n      0x00\n      add\n      mload\n        /* \"@chainlink/contracts/src/v0.8/vendor/BufferChainlink.sol\":10040:10054  buf.buf.length */\n      mload\n        /* \"@chainlink/contracts/src/v0.8/vendor/BufferChainlink.sol\":10056:10060  data */\n      dup6\n        /* \"@chainlink/contracts/src/v0.8/vendor/BufferChainlink.sol\":10062:10065  len */\n      dup6\n        /* \"@chainlink/contracts/src/v0.8/vendor/BufferChainlink.sol\":10026:10034  writeInt */\n      tag_179\n        /* \"@chainlink/contracts/src/v0.8/vendor/BufferChainlink.sol\":10026:10066  writeInt(buf, buf.buf.length, data, len) */\n      jump\t// in\n    tag_178:\n        /* \"@chainlink/contracts/src/v0.8/vendor/BufferChainlink.sol\":10019:10066  return writeInt(buf, buf.buf.length, data, len) */\n      swap1\n      pop\n        /* \"@chainlink/contracts/src/v0.8/vendor/BufferChainlink.sol\":9894:10071  function appendInt(... */\n      swap4\n      swap3\n      pop\n      pop\n      pop\n      jump\t// out\n        /* \"@chainlink/contracts/src/v0.8/vendor/BufferChainlink.sol\":2745:3955  function write(... */\n    tag_160:\n        /* \"@chainlink/contracts/src/v0.8/vendor/BufferChainlink.sol\":2867:2880  buffer memory */\n      tag_180\n      tag_128\n      jump\t// in\n    tag_180:\n        /* \"@chainlink/contracts/src/v0.8/vendor/BufferChainlink.sol\":2903:2907  data */\n      dup3\n        /* \"@chainlink/contracts/src/v0.8/vendor/BufferChainlink.sol\":2903:2914  data.length */\n      mload\n        /* \"@chainlink/contracts/src/v0.8/vendor/BufferChainlink.sol\":2896:2899  len */\n      dup3\n        /* \"@chainlink/contracts/src/v0.8/vendor/BufferChainlink.sol\":2896:2914  len <= data.length */\n      gt\n      iszero\n        /* \"@chainlink/contracts/src/v0.8/vendor/BufferChainlink.sol\":2888:2915  require(len <= data.length) */\n      tag_182\n      jumpi\n      0x00\n      dup1\n      revert\n    tag_182:\n        /* \"@chainlink/contracts/src/v0.8/vendor/BufferChainlink.sol\":2938:2941  buf */\n      dup5\n        /* \"@chainlink/contracts/src/v0.8/vendor/BufferChainlink.sol\":2938:2950  buf.capacity */\n      0x20\n      add\n      mload\n        /* \"@chainlink/contracts/src/v0.8/vendor/BufferChainlink.sol\":2932:2935  len */\n      dup3\n        /* \"@chainlink/contracts/src/v0.8/vendor/BufferChainlink.sol\":2926:2929  off */\n      dup6\n        /* \"@chainlink/contracts/src/v0.8/vendor/BufferChainlink.sol\":2926:2935  off + len */\n      tag_183\n      swap2\n      swap1\n      tag_122\n      jump\t// in\n    tag_183:\n        /* \"@chainlink/contracts/src/v0.8/vendor/BufferChainlink.sol\":2926:2950  off + len > buf.capacity */\n      gt\n        /* \"@chainlink/contracts/src/v0.8/vendor/BufferChainlink.sol\":2922:3012  if (off + len > buf.capacity) {... */\n      iszero\n      tag_184\n      jumpi\n        /* \"@chainlink/contracts/src/v0.8/vendor/BufferChainlink.sol\":2960:3005  resize(buf, max(buf.capacity, len + off) * 2) */\n      tag_185\n        /* \"@chainlink/contracts/src/v0.8/vendor/BufferChainlink.sol\":2967:2970  buf */\n      dup6\n        /* \"@chainlink/contracts/src/v0.8/vendor/BufferChainlink.sol\":3003:3004  2 */\n      0x02\n        /* \"@chainlink/contracts/src/v0.8/vendor/BufferChainlink.sol\":2972:3000  max(buf.capacity, len + off) */\n      tag_186\n        /* \"@chainlink/contracts/src/v0.8/vendor/BufferChainlink.sol\":2976:2979  buf */\n      dup9\n        /* \"@chainlink/contracts/src/v0.8/vendor/BufferChainlink.sol\":2976:2988  buf.capacity */\n      0x20\n      add\n      mload\n        /* \"@chainlink/contracts/src/v0.8/vendor/BufferChainlink.sol\":2996:2999  off */\n      dup9\n        /* \"@chainlink/contracts/src/v0.8/vendor/BufferChainlink.sol\":2990:2993  len */\n      dup8\n        /* \"@chainlink/contracts/src/v0.8/vendor/BufferChainlink.sol\":2990:2999  len + off */\n      tag_187\n      swap2\n      swap1\n      tag_122\n      jump\t// in\n    tag_187:\n        /* \"@chainlink/contracts/src/v0.8/vendor/BufferChainlink.sol\":2972:2975  max */\n      tag_188\n        /* \"@chainlink/contracts/src/v0.8/vendor/BufferChainlink.sol\":2972:3000  max(buf.capacity, len + off) */\n      jump\t// in\n    tag_186:\n        /* \"@chainlink/contracts/src/v0.8/vendor/BufferChainlink.sol\":2972:3004  max(buf.capacity, len + off) * 2 */\n      tag_189\n      swap2\n      swap1\n      tag_190\n      jump\t// in\n    tag_189:\n        /* \"@chainlink/contracts/src/v0.8/vendor/BufferChainlink.sol\":2960:2966  resize */\n      tag_191\n        /* \"@chainlink/contracts/src/v0.8/vendor/BufferChainlink.sol\":2960:3005  resize(buf, max(buf.capacity, len + off) * 2) */\n      jump\t// in\n    tag_185:\n        /* \"@chainlink/contracts/src/v0.8/vendor/BufferChainlink.sol\":2922:3012  if (off + len > buf.capacity) {... */\n    tag_184:\n        /* \"@chainlink/contracts/src/v0.8/vendor/BufferChainlink.sol\":3018:3030  uint256 dest */\n      0x00\n        /* \"@chainlink/contracts/src/v0.8/vendor/BufferChainlink.sol\":3036:3047  uint256 src */\n      dup1\n        /* \"@chainlink/contracts/src/v0.8/vendor/BufferChainlink.sol\":3133:3136  buf */\n      dup7\n        /* \"@chainlink/contracts/src/v0.8/vendor/BufferChainlink.sol\":3127:3137  mload(buf) */\n      mload\n        /* \"@chainlink/contracts/src/v0.8/vendor/BufferChainlink.sol\":3204:3210  bufptr */\n      dup1\n        /* \"@chainlink/contracts/src/v0.8/vendor/BufferChainlink.sol\":3198:3211  mload(bufptr) */\n      mload\n        /* \"@chainlink/contracts/src/v0.8/vendor/BufferChainlink.sol\":3320:3323  off */\n      dup8\n        /* \"@chainlink/contracts/src/v0.8/vendor/BufferChainlink.sol\":3315:3317  32 */\n      0x20\n        /* \"@chainlink/contracts/src/v0.8/vendor/BufferChainlink.sol\":3307:3313  bufptr */\n      dup4\n        /* \"@chainlink/contracts/src/v0.8/vendor/BufferChainlink.sol\":3303:3318  add(bufptr, 32) */\n      add\n        /* \"@chainlink/contracts/src/v0.8/vendor/BufferChainlink.sol\":3299:3324  add(add(bufptr, 32), off) */\n      add\n        /* \"@chainlink/contracts/src/v0.8/vendor/BufferChainlink.sol\":3291:3324  dest := add(add(bufptr, 32), off) */\n      swap4\n      pop\n        /* \"@chainlink/contracts/src/v0.8/vendor/BufferChainlink.sol\":3404:3410  buflen */\n      dup1\n        /* \"@chainlink/contracts/src/v0.8/vendor/BufferChainlink.sol\":3398:3401  off */\n      dup9\n        /* \"@chainlink/contracts/src/v0.8/vendor/BufferChainlink.sol\":3393:3396  len */\n      dup8\n        /* \"@chainlink/contracts/src/v0.8/vendor/BufferChainlink.sol\":3389:3402  add(len, off) */\n      add\n        /* \"@chainlink/contracts/src/v0.8/vendor/BufferChainlink.sol\":3386:3411  gt(add(len, off), buflen) */\n      gt\n        /* \"@chainlink/contracts/src/v0.8/vendor/BufferChainlink.sol\":3383:3459  if gt(add(len, off), buflen) {... */\n      iszero\n      tag_192\n      jumpi\n        /* \"@chainlink/contracts/src/v0.8/vendor/BufferChainlink.sol\":3446:3449  off */\n      dup8\n        /* \"@chainlink/contracts/src/v0.8/vendor/BufferChainlink.sol\":3441:3444  len */\n      dup7\n        /* \"@chainlink/contracts/src/v0.8/vendor/BufferChainlink.sol\":3437:3450  add(len, off) */\n      add\n        /* \"@chainlink/contracts/src/v0.8/vendor/BufferChainlink.sol\":3429:3435  bufptr */\n      dup3\n        /* \"@chainlink/contracts/src/v0.8/vendor/BufferChainlink.sol\":3422:3451  mstore(bufptr, add(len, off)) */\n      mstore\n        /* \"@chainlink/contracts/src/v0.8/vendor/BufferChainlink.sol\":3383:3459  if gt(add(len, off), buflen) {... */\n    tag_192:\n        /* \"@chainlink/contracts/src/v0.8/vendor/BufferChainlink.sol\":3483:3485  32 */\n      0x20\n        /* \"@chainlink/contracts/src/v0.8/vendor/BufferChainlink.sol\":3477:3481  data */\n      dup8\n        /* \"@chainlink/contracts/src/v0.8/vendor/BufferChainlink.sol\":3473:3486  add(data, 32) */\n      add\n        /* \"@chainlink/contracts/src/v0.8/vendor/BufferChainlink.sol\":3466:3486  src := add(data, 32) */\n      swap3\n      pop\n        /* \"@chainlink/contracts/src/v0.8/vendor/BufferChainlink.sol\":3062:3492  {... */\n      pop\n      pop\n        /* \"@chainlink/contracts/src/v0.8/vendor/BufferChainlink.sol\":3544:3673  for (; len >= 32; len -= 32) {... */\n    tag_193:\n        /* \"@chainlink/contracts/src/v0.8/vendor/BufferChainlink.sol\":3558:3560  32 */\n      0x20\n        /* \"@chainlink/contracts/src/v0.8/vendor/BufferChainlink.sol\":3551:3554  len */\n      dup5\n        /* \"@chainlink/contracts/src/v0.8/vendor/BufferChainlink.sol\":3551:3560  len >= 32 */\n      lt\n        /* \"@chainlink/contracts/src/v0.8/vendor/BufferChainlink.sol\":3544:3673  for (; len >= 32; len -= 32) {... */\n      tag_194\n      jumpi\n        /* \"@chainlink/contracts/src/v0.8/vendor/BufferChainlink.sol\":3619:3622  src */\n      dup1\n        /* \"@chainlink/contracts/src/v0.8/vendor/BufferChainlink.sol\":3613:3623  mload(src) */\n      mload\n        /* \"@chainlink/contracts/src/v0.8/vendor/BufferChainlink.sol\":3607:3611  dest */\n      dup3\n        /* \"@chainlink/contracts/src/v0.8/vendor/BufferChainlink.sol\":3600:3624  mstore(dest, mload(src)) */\n      mstore\n        /* \"@chainlink/contracts/src/v0.8/vendor/BufferChainlink.sol\":3647:3649  32 */\n      0x20\n        /* \"@chainlink/contracts/src/v0.8/vendor/BufferChainlink.sol\":3639:3649  dest += 32 */\n      dup3\n      tag_196\n      swap2\n      swap1\n      tag_122\n      jump\t// in\n    tag_196:\n      swap2\n      pop\n        /* \"@chainlink/contracts/src/v0.8/vendor/BufferChainlink.sol\":3664:3666  32 */\n      0x20\n        /* \"@chainlink/contracts/src/v0.8/vendor/BufferChainlink.sol\":3657:3666  src += 32 */\n      dup2\n      tag_197\n      swap2\n      swap1\n      tag_122\n      jump\t// in\n    tag_197:\n      swap1\n      pop\n        /* \"@chainlink/contracts/src/v0.8/vendor/BufferChainlink.sol\":3569:3571  32 */\n      0x20\n        /* \"@chainlink/contracts/src/v0.8/vendor/BufferChainlink.sol\":3562:3571  len -= 32 */\n      dup5\n      tag_198\n      swap2\n      swap1\n      tag_135\n      jump\t// in\n    tag_198:\n      swap4\n      pop\n        /* \"@chainlink/contracts/src/v0.8/vendor/BufferChainlink.sol\":3544:3673  for (; len >= 32; len -= 32) {... */\n      jump(tag_193)\n    tag_194:\n        /* \"@chainlink/contracts/src/v0.8/vendor/BufferChainlink.sol\":3725:3737  uint256 mask */\n      0x00\n        /* \"@chainlink/contracts/src/v0.8/vendor/BufferChainlink.sol\":3760:3761  1 */\n      0x01\n        /* \"@chainlink/contracts/src/v0.8/vendor/BufferChainlink.sol\":3752:3755  len */\n      dup6\n        /* \"@chainlink/contracts/src/v0.8/vendor/BufferChainlink.sol\":3747:3749  32 */\n      0x20\n        /* \"@chainlink/contracts/src/v0.8/vendor/BufferChainlink.sol\":3747:3755  32 - len */\n      sub\n        /* \"@chainlink/contracts/src/v0.8/vendor/BufferChainlink.sol\":3741:3744  256 */\n      0x0100\n        /* \"@chainlink/contracts/src/v0.8/vendor/BufferChainlink.sol\":3741:3756  256**(32 - len) */\n      exp\n        /* \"@chainlink/contracts/src/v0.8/vendor/BufferChainlink.sol\":3740:3761  (256**(32 - len)) - 1 */\n      sub\n        /* \"@chainlink/contracts/src/v0.8/vendor/BufferChainlink.sol\":3725:3761  uint256 mask = (256**(32 - len)) - 1 */\n      swap1\n      pop\n        /* \"@chainlink/contracts/src/v0.8/vendor/BufferChainlink.sol\":3823:3827  mask */\n      dup1\n        /* \"@chainlink/contracts/src/v0.8/vendor/BufferChainlink.sol\":3819:3828  not(mask) */\n      not\n        /* \"@chainlink/contracts/src/v0.8/vendor/BufferChainlink.sol\":3813:3816  src */\n      dup3\n        /* \"@chainlink/contracts/src/v0.8/vendor/BufferChainlink.sol\":3807:3817  mload(src) */\n      mload\n        /* \"@chainlink/contracts/src/v0.8/vendor/BufferChainlink.sol\":3803:3829  and(mload(src), not(mask)) */\n      and\n        /* \"@chainlink/contracts/src/v0.8/vendor/BufferChainlink.sol\":3871:3875  mask */\n      dup2\n        /* \"@chainlink/contracts/src/v0.8/vendor/BufferChainlink.sol\":3864:3868  dest */\n      dup5\n        /* \"@chainlink/contracts/src/v0.8/vendor/BufferChainlink.sol\":3858:3869  mload(dest) */\n      mload\n        /* \"@chainlink/contracts/src/v0.8/vendor/BufferChainlink.sol\":3854:3876  and(mload(dest), mask) */\n      and\n        /* \"@chainlink/contracts/src/v0.8/vendor/BufferChainlink.sol\":3911:3918  srcpart */\n      dup2\n        /* \"@chainlink/contracts/src/v0.8/vendor/BufferChainlink.sol\":3901:3909  destpart */\n      dup2\n        /* \"@chainlink/contracts/src/v0.8/vendor/BufferChainlink.sol\":3898:3919  or(destpart, srcpart) */\n      or\n        /* \"@chainlink/contracts/src/v0.8/vendor/BufferChainlink.sol\":3892:3896  dest */\n      dup6\n        /* \"@chainlink/contracts/src/v0.8/vendor/BufferChainlink.sol\":3885:3920  mstore(dest, or(destpart, srcpart)) */\n      mstore\n        /* \"@chainlink/contracts/src/v0.8/vendor/BufferChainlink.sol\":3778:3928  {... */\n      pop\n      pop\n      pop\n        /* \"@chainlink/contracts/src/v0.8/vendor/BufferChainlink.sol\":3947:3950  buf */\n      dup7\n        /* \"@chainlink/contracts/src/v0.8/vendor/BufferChainlink.sol\":3940:3950  return buf */\n      swap3\n      pop\n      pop\n      pop\n        /* \"@chainlink/contracts/src/v0.8/vendor/BufferChainlink.sol\":2745:3955  function write(... */\n      swap5\n      swap4\n      pop\n      pop\n      pop\n      pop\n      jump\t// out\n        /* \"@chainlink/contracts/src/v0.8/vendor/BufferChainlink.sol\":5148:5787  function writeUint8(... */\n    tag_175:\n        /* \"@chainlink/contracts/src/v0.8/vendor/BufferChainlink.sol\":5251:5264  buffer memory */\n      tag_199\n      tag_128\n      jump\t// in\n    tag_199:\n        /* \"@chainlink/contracts/src/v0.8/vendor/BufferChainlink.sol\":5283:5286  buf */\n      dup4\n        /* \"@chainlink/contracts/src/v0.8/vendor/BufferChainlink.sol\":5283:5295  buf.capacity */\n      0x20\n      add\n      mload\n        /* \"@chainlink/contracts/src/v0.8/vendor/BufferChainlink.sol\":5276:5279  off */\n      dup4\n        /* \"@chainlink/contracts/src/v0.8/vendor/BufferChainlink.sol\":5276:5295  off >= buf.capacity */\n      lt\n        /* \"@chainlink/contracts/src/v0.8/vendor/BufferChainlink.sol\":5272:5341  if (off >= buf.capacity) {... */\n      tag_201\n      jumpi\n        /* \"@chainlink/contracts/src/v0.8/vendor/BufferChainlink.sol\":5305:5334  resize(buf, buf.capacity * 2) */\n      tag_202\n        /* \"@chainlink/contracts/src/v0.8/vendor/BufferChainlink.sol\":5312:5315  buf */\n      dup5\n        /* \"@chainlink/contracts/src/v0.8/vendor/BufferChainlink.sol\":5332:5333  2 */\n      0x02\n        /* \"@chainlink/contracts/src/v0.8/vendor/BufferChainlink.sol\":5317:5320  buf */\n      dup7\n        /* \"@chainlink/contracts/src/v0.8/vendor/BufferChainlink.sol\":5317:5329  buf.capacity */\n      0x20\n      add\n      mload\n        /* \"@chainlink/contracts/src/v0.8/vendor/BufferChainlink.sol\":5317:5333  buf.capacity * 2 */\n      tag_203\n      swap2\n      swap1\n      tag_190\n      jump\t// in\n    tag_203:\n        /* \"@chainlink/contracts/src/v0.8/vendor/BufferChainlink.sol\":5305:5311  resize */\n      tag_191\n        /* \"@chainlink/contracts/src/v0.8/vendor/BufferChainlink.sol\":5305:5334  resize(buf, buf.capacity * 2) */\n      jump\t// in\n    tag_202:\n        /* \"@chainlink/contracts/src/v0.8/vendor/BufferChainlink.sol\":5272:5341  if (off >= buf.capacity) {... */\n    tag_201:\n        /* \"@chainlink/contracts/src/v0.8/vendor/BufferChainlink.sol\":5427:5430  buf */\n      dup4\n        /* \"@chainlink/contracts/src/v0.8/vendor/BufferChainlink.sol\":5421:5431  mload(buf) */\n      mload\n        /* \"@chainlink/contracts/src/v0.8/vendor/BufferChainlink.sol\":5498:5504  bufptr */\n      dup1\n        /* \"@chainlink/contracts/src/v0.8/vendor/BufferChainlink.sol\":5492:5505  mload(bufptr) */\n      mload\n        /* \"@chainlink/contracts/src/v0.8/vendor/BufferChainlink.sol\":5610:5612  32 */\n      0x20\n        /* \"@chainlink/contracts/src/v0.8/vendor/BufferChainlink.sol\":5604:5607  off */\n      dup6\n        /* \"@chainlink/contracts/src/v0.8/vendor/BufferChainlink.sol\":5596:5602  bufptr */\n      dup4\n        /* \"@chainlink/contracts/src/v0.8/vendor/BufferChainlink.sol\":5592:5608  add(bufptr, off) */\n      add\n        /* \"@chainlink/contracts/src/v0.8/vendor/BufferChainlink.sol\":5588:5613  add(add(bufptr, off), 32) */\n      add\n        /* \"@chainlink/contracts/src/v0.8/vendor/BufferChainlink.sol\":5634:5638  data */\n      dup5\n        /* \"@chainlink/contracts/src/v0.8/vendor/BufferChainlink.sol\":5628:5632  dest */\n      dup2\n        /* \"@chainlink/contracts/src/v0.8/vendor/BufferChainlink.sol\":5620:5639  mstore8(dest, data) */\n      mstore8\n        /* \"@chainlink/contracts/src/v0.8/vendor/BufferChainlink.sol\":5705:5711  buflen */\n      dup2\n        /* \"@chainlink/contracts/src/v0.8/vendor/BufferChainlink.sol\":5700:5703  off */\n      dup7\n        /* \"@chainlink/contracts/src/v0.8/vendor/BufferChainlink.sol\":5697:5712  eq(off, buflen) */\n      sub\n        /* \"@chainlink/contracts/src/v0.8/vendor/BufferChainlink.sol\":5694:5761  if eq(off, buflen) {... */\n      tag_204\n      jumpi\n        /* \"@chainlink/contracts/src/v0.8/vendor/BufferChainlink.sol\":5750:5751  1 */\n      0x01\n        /* \"@chainlink/contracts/src/v0.8/vendor/BufferChainlink.sol\":5742:5748  buflen */\n      dup3\n        /* \"@chainlink/contracts/src/v0.8/vendor/BufferChainlink.sol\":5738:5752  add(buflen, 1) */\n      add\n        /* \"@chainlink/contracts/src/v0.8/vendor/BufferChainlink.sol\":5730:5736  bufptr */\n      dup4\n        /* \"@chainlink/contracts/src/v0.8/vendor/BufferChainlink.sol\":5723:5753  mstore(bufptr, add(buflen, 1)) */\n      mstore\n        /* \"@chainlink/contracts/src/v0.8/vendor/BufferChainlink.sol\":5694:5761  if eq(off, buflen) {... */\n    tag_204:\n        /* \"@chainlink/contracts/src/v0.8/vendor/BufferChainlink.sol\":5356:5767  {... */\n      pop\n      pop\n      pop\n        /* \"@chainlink/contracts/src/v0.8/vendor/BufferChainlink.sol\":5779:5782  buf */\n      dup4\n        /* \"@chainlink/contracts/src/v0.8/vendor/BufferChainlink.sol\":5772:5782  return buf */\n      swap1\n      pop\n        /* \"@chainlink/contracts/src/v0.8/vendor/BufferChainlink.sol\":5148:5787  function writeUint8(... */\n      swap4\n      swap3\n      pop\n      pop\n      pop\n      jump\t// out\n        /* \"@chainlink/contracts/src/v0.8/vendor/BufferChainlink.sol\":8974:9649  function writeInt(... */\n    tag_179:\n        /* \"@chainlink/contracts/src/v0.8/vendor/BufferChainlink.sol\":9093:9106  buffer memory */\n      tag_205\n      tag_128\n      jump\t// in\n    tag_205:\n        /* \"@chainlink/contracts/src/v0.8/vendor/BufferChainlink.sol\":9130:9133  buf */\n      dup5\n        /* \"@chainlink/contracts/src/v0.8/vendor/BufferChainlink.sol\":9130:9142  buf.capacity */\n      0x20\n      add\n      mload\n        /* \"@chainlink/contracts/src/v0.8/vendor/BufferChainlink.sol\":9124:9127  off */\n      dup5\n        /* \"@chainlink/contracts/src/v0.8/vendor/BufferChainlink.sol\":9118:9121  len */\n      dup4\n        /* \"@chainlink/contracts/src/v0.8/vendor/BufferChainlink.sol\":9118:9127  len + off */\n      tag_207\n      swap2\n      swap1\n      tag_122\n      jump\t// in\n    tag_207:\n        /* \"@chainlink/contracts/src/v0.8/vendor/BufferChainlink.sol\":9118:9142  len + off > buf.capacity */\n      gt\n        /* \"@chainlink/contracts/src/v0.8/vendor/BufferChainlink.sol\":9114:9187  if (len + off > buf.capacity) {... */\n      iszero\n      tag_208\n      jumpi\n        /* \"@chainlink/contracts/src/v0.8/vendor/BufferChainlink.sol\":9152:9180  resize(buf, (len + off) * 2) */\n      tag_209\n        /* \"@chainlink/contracts/src/v0.8/vendor/BufferChainlink.sol\":9159:9162  buf */\n      dup6\n        /* \"@chainlink/contracts/src/v0.8/vendor/BufferChainlink.sol\":9178:9179  2 */\n      0x02\n        /* \"@chainlink/contracts/src/v0.8/vendor/BufferChainlink.sol\":9171:9174  off */\n      dup7\n        /* \"@chainlink/contracts/src/v0.8/vendor/BufferChainlink.sol\":9165:9168  len */\n      dup6\n        /* \"@chainlink/contracts/src/v0.8/vendor/BufferChainlink.sol\":9165:9174  len + off */\n      tag_210\n      swap2\n      swap1\n      tag_122\n      jump\t// in\n    tag_210:\n        /* \"@chainlink/contracts/src/v0.8/vendor/BufferChainlink.sol\":9164:9179  (len + off) * 2 */\n      tag_211\n      swap2\n      swap1\n      tag_190\n      jump\t// in\n    tag_211:\n        /* \"@chainlink/contracts/src/v0.8/vendor/BufferChainlink.sol\":9152:9158  resize */\n      tag_191\n        /* \"@chainlink/contracts/src/v0.8/vendor/BufferChainlink.sol\":9152:9180  resize(buf, (len + off) * 2) */\n      jump\t// in\n    tag_209:\n        /* \"@chainlink/contracts/src/v0.8/vendor/BufferChainlink.sol\":9114:9187  if (len + off > buf.capacity) {... */\n    tag_208:\n        /* \"@chainlink/contracts/src/v0.8/vendor/BufferChainlink.sol\":9193:9205  uint256 mask */\n      0x00\n        /* \"@chainlink/contracts/src/v0.8/vendor/BufferChainlink.sol\":9221:9222  1 */\n      0x01\n        /* \"@chainlink/contracts/src/v0.8/vendor/BufferChainlink.sol\":9214:9217  len */\n      dup4\n        /* \"@chainlink/contracts/src/v0.8/vendor/BufferChainlink.sol\":9209:9212  256 */\n      0x0100\n        /* \"@chainlink/contracts/src/v0.8/vendor/BufferChainlink.sol\":9209:9217  256**len */\n      tag_212\n      swap2\n      swap1\n      tag_213\n      jump\t// in\n    tag_212:\n        /* \"@chainlink/contracts/src/v0.8/vendor/BufferChainlink.sol\":9208:9222  (256**len) - 1 */\n      tag_214\n      swap2\n      swap1\n      tag_135\n      jump\t// in\n    tag_214:\n        /* \"@chainlink/contracts/src/v0.8/vendor/BufferChainlink.sol\":9193:9222  uint256 mask = (256**len) - 1 */\n      swap1\n      pop\n        /* \"@chainlink/contracts/src/v0.8/vendor/BufferChainlink.sol\":9308:9311  buf */\n      dup6\n        /* \"@chainlink/contracts/src/v0.8/vendor/BufferChainlink.sol\":9302:9312  mload(buf) */\n      mload\n        /* \"@chainlink/contracts/src/v0.8/vendor/BufferChainlink.sol\":9423:9426  len */\n      dup4\n        /* \"@chainlink/contracts/src/v0.8/vendor/BufferChainlink.sol\":9417:9420  off */\n      dup7\n        /* \"@chainlink/contracts/src/v0.8/vendor/BufferChainlink.sol\":9409:9415  bufptr */\n      dup3\n        /* \"@chainlink/contracts/src/v0.8/vendor/BufferChainlink.sol\":9405:9421  add(bufptr, off) */\n      add\n        /* \"@chainlink/contracts/src/v0.8/vendor/BufferChainlink.sol\":9401:9427  add(add(bufptr, off), len) */\n      add\n        /* \"@chainlink/contracts/src/v0.8/vendor/BufferChainlink.sol\":9479:9483  data */\n      dup6\n        /* \"@chainlink/contracts/src/v0.8/vendor/BufferChainlink.sol\":9471:9475  mask */\n      dup4\n        /* \"@chainlink/contracts/src/v0.8/vendor/BufferChainlink.sol\":9467:9476  not(mask) */\n      not\n        /* \"@chainlink/contracts/src/v0.8/vendor/BufferChainlink.sol\":9460:9464  dest */\n      dup3\n        /* \"@chainlink/contracts/src/v0.8/vendor/BufferChainlink.sol\":9454:9465  mload(dest) */\n      mload\n        /* \"@chainlink/contracts/src/v0.8/vendor/BufferChainlink.sol\":9450:9477  and(mload(dest), not(mask)) */\n      and\n        /* \"@chainlink/contracts/src/v0.8/vendor/BufferChainlink.sol\":9447:9484  or(and(mload(dest), not(mask)), data) */\n      or\n        /* \"@chainlink/contracts/src/v0.8/vendor/BufferChainlink.sol\":9441:9445  dest */\n      dup2\n        /* \"@chainlink/contracts/src/v0.8/vendor/BufferChainlink.sol\":9434:9485  mstore(dest, or(and(mload(dest), not(mask)), data)) */\n      mstore\n        /* \"@chainlink/contracts/src/v0.8/vendor/BufferChainlink.sol\":9567:9573  bufptr */\n      dup2\n        /* \"@chainlink/contracts/src/v0.8/vendor/BufferChainlink.sol\":9561:9574  mload(bufptr) */\n      mload\n        /* \"@chainlink/contracts/src/v0.8/vendor/BufferChainlink.sol\":9555:9558  len */\n      dup6\n        /* \"@chainlink/contracts/src/v0.8/vendor/BufferChainlink.sol\":9550:9553  off */\n      dup9\n        /* \"@chainlink/contracts/src/v0.8/vendor/BufferChainlink.sol\":9546:9559  add(off, len) */\n      add\n        /* \"@chainlink/contracts/src/v0.8/vendor/BufferChainlink.sol\":9543:9575  gt(add(off, len), mload(bufptr)) */\n      gt\n        /* \"@chainlink/contracts/src/v0.8/vendor/BufferChainlink.sol\":9540:9623  if gt(add(off, len), mload(bufptr)) {... */\n      iszero\n      tag_215\n      jumpi\n        /* \"@chainlink/contracts/src/v0.8/vendor/BufferChainlink.sol\":9610:9613  len */\n      dup5\n        /* \"@chainlink/contracts/src/v0.8/vendor/BufferChainlink.sol\":9605:9608  off */\n      dup8\n        /* \"@chainlink/contracts/src/v0.8/vendor/BufferChainlink.sol\":9601:9614  add(off, len) */\n      add\n        /* \"@chainlink/contracts/src/v0.8/vendor/BufferChainlink.sol\":9593:9599  bufptr */\n      dup3\n        /* \"@chainlink/contracts/src/v0.8/vendor/BufferChainlink.sol\":9586:9615  mstore(bufptr, add(off, len)) */\n      mstore\n        /* \"@chainlink/contracts/src/v0.8/vendor/BufferChainlink.sol\":9540:9623  if gt(add(off, len), mload(bufptr)) {... */\n    tag_215:\n        /* \"@chainlink/contracts/src/v0.8/vendor/BufferChainlink.sol\":9237:9629  {... */\n      pop\n      pop\n        /* \"@chainlink/contracts/src/v0.8/vendor/BufferChainlink.sol\":9641:9644  buf */\n      dup6\n        /* \"@chainlink/contracts/src/v0.8/vendor/BufferChainlink.sol\":9634:9644  return buf */\n      swap2\n      pop\n      pop\n        /* \"@chainlink/contracts/src/v0.8/vendor/BufferChainlink.sol\":8974:9649  function writeInt(... */\n      swap5\n      swap4\n      pop\n      pop\n      pop\n      pop\n      jump\t// out\n        /* \"@chainlink/contracts/src/v0.8/vendor/BufferChainlink.sol\":1961:2085  function max(uint256 a, uint256 b) private pure returns (uint256) {... */\n    tag_188:\n        /* \"@chainlink/contracts/src/v0.8/vendor/BufferChainlink.sol\":2018:2025  uint256 */\n      0x00\n        /* \"@chainlink/contracts/src/v0.8/vendor/BufferChainlink.sol\":2041:2042  b */\n      dup2\n        /* \"@chainlink/contracts/src/v0.8/vendor/BufferChainlink.sol\":2037:2038  a */\n      dup4\n        /* \"@chainlink/contracts/src/v0.8/vendor/BufferChainlink.sol\":2037:2042  a > b */\n      gt\n        /* \"@chainlink/contracts/src/v0.8/vendor/BufferChainlink.sol\":2033:2067  if (a > b) {... */\n      iszero\n      tag_217\n      jumpi\n        /* \"@chainlink/contracts/src/v0.8/vendor/BufferChainlink.sol\":2059:2060  a */\n      dup3\n        /* \"@chainlink/contracts/src/v0.8/vendor/BufferChainlink.sol\":2052:2060  return a */\n      swap1\n      pop\n      jump(tag_216)\n        /* \"@chainlink/contracts/src/v0.8/vendor/BufferChainlink.sol\":2033:2067  if (a > b) {... */\n    tag_217:\n        /* \"@chainlink/contracts/src/v0.8/vendor/BufferChainlink.sol\":2079:2080  b */\n      dup2\n        /* \"@chainlink/contracts/src/v0.8/vendor/BufferChainlink.sol\":2072:2080  return b */\n      swap1\n      pop\n        /* \"@chainlink/contracts/src/v0.8/vendor/BufferChainlink.sol\":1961:2085  function max(uint256 a, uint256 b) private pure returns (uint256) {... */\n    tag_216:\n      swap3\n      swap2\n      pop\n      pop\n      jump\t// out\n        /* \"@chainlink/contracts/src/v0.8/vendor/BufferChainlink.sol\":1801:1957  function resize(buffer memory buf, uint256 capacity) private pure {... */\n    tag_191:\n        /* \"@chainlink/contracts/src/v0.8/vendor/BufferChainlink.sol\":1873:1892  bytes memory oldbuf */\n      0x00\n        /* \"@chainlink/contracts/src/v0.8/vendor/BufferChainlink.sol\":1895:1898  buf */\n      dup3\n        /* \"@chainlink/contracts/src/v0.8/vendor/BufferChainlink.sol\":1895:1902  buf.buf */\n      0x00\n      add\n      mload\n        /* \"@chainlink/contracts/src/v0.8/vendor/BufferChainlink.sol\":1873:1902  bytes memory oldbuf = buf.buf */\n      swap1\n      pop\n        /* \"@chainlink/contracts/src/v0.8/vendor/BufferChainlink.sol\":1908:1927  init(buf, capacity) */\n      tag_219\n        /* \"@chainlink/contracts/src/v0.8/vendor/BufferChainlink.sol\":1913:1916  buf */\n      dup4\n        /* \"@chainlink/contracts/src/v0.8/vendor/BufferChainlink.sol\":1918:1926  capacity */\n      dup4\n        /* \"@chainlink/contracts/src/v0.8/vendor/BufferChainlink.sol\":1908:1912  init */\n      tag_114\n        /* \"@chainlink/contracts/src/v0.8/vendor/BufferChainlink.sol\":1908:1927  init(buf, capacity) */\n      jump\t// in\n    tag_219:\n      pop\n        /* \"@chainlink/contracts/src/v0.8/vendor/BufferChainlink.sol\":1933:1952  append(buf, oldbuf) */\n      tag_220\n        /* \"@chainlink/contracts/src/v0.8/vendor/BufferChainlink.sol\":1940:1943  buf */\n      dup4\n        /* \"@chainlink/contracts/src/v0.8/vendor/BufferChainlink.sol\":1945:1951  oldbuf */\n      dup3\n        /* \"@chainlink/contracts/src/v0.8/vendor/BufferChainlink.sol\":1933:1939  append */\n      tag_119\n        /* \"@chainlink/contracts/src/v0.8/vendor/BufferChainlink.sol\":1933:1952  append(buf, oldbuf) */\n      jump\t// in\n    tag_220:\n      pop\n        /* \"@chainlink/contracts/src/v0.8/vendor/BufferChainlink.sol\":1867:1957  {... */\n      pop\n        /* \"@chainlink/contracts/src/v0.8/vendor/BufferChainlink.sol\":1801:1957  function resize(buffer memory buf, uint256 capacity) private pure {... */\n      pop\n      pop\n      jump\t// out\n    tag_90:\n      mload(0x40)\n      dup1\n      0xa0\n      add\n      0x40\n      mstore\n      dup1\n      0x00\n      dup1\n      not\n      and\n      dup2\n      mstore\n      0x20\n      add\n      and(0xffffffffffffffffffffffffffffffffffffffff, 0x00)\n      dup2\n      mstore\n      0x20\n      add\n      and(not(0xffffffffffffffffffffffffffffffffffffffffffffffffffffffff), 0x00)\n      dup2\n      mstore\n      0x20\n      add\n      0x00\n      dup2\n      mstore\n      0x20\n      add\n      tag_221\n      tag_128\n      jump\t// in\n    tag_221:\n      dup2\n      mstore\n      pop\n      swap1\n      jump\t// out\n    tag_128:\n      mload(0x40)\n      dup1\n      0x40\n      add\n      0x40\n      mstore\n      dup1\n      0x60\n      dup2\n      mstore\n      0x20\n      add\n      0x00\n      dup2\n      mstore\n      pop\n      swap1\n      jump\t// out\n        /* \"#utility.yul\":7:82   */\n    tag_222:\n        /* \"#utility.yul\":40:46   */\n      0x00\n        /* \"#utility.yul\":73:75   */\n      0x40\n        /* \"#utility.yul\":67:76   */\n      mload\n        /* \"#utility.yul\":57:76   */\n      swap1\n      pop\n        /* \"#utility.yul\":7:82   */\n      swap1\n      jump\t// out\n        /* \"#utility.yul\":88:205   */\n    tag_223:\n        /* \"#utility.yul\":197:198   */\n      0x00\n        /* \"#utility.yul\":194:195   */\n      dup1\n        /* \"#utility.yul\":187:199   */\n      revert\n        /* \"#utility.yul\":211:328   */\n    tag_224:\n        /* \"#utility.yul\":320:321   */\n      0x00\n        /* \"#utility.yul\":317:318   */\n      dup1\n        /* \"#utility.yul\":310:322   */\n      revert\n        /* \"#utility.yul\":334:411   */\n    tag_225:\n        /* \"#utility.yul\":371:378   */\n      0x00\n        /* \"#utility.yul\":400:405   */\n      dup2\n        /* \"#utility.yul\":389:405   */\n      swap1\n      pop\n        /* \"#utility.yul\":334:411   */\n      swap2\n      swap1\n      pop\n      jump\t// out\n        /* \"#utility.yul\":417:539   */\n    tag_226:\n        /* \"#utility.yul\":490:514   */\n      tag_309\n        /* \"#utility.yul\":508:513   */\n      dup2\n        /* \"#utility.yul\":490:514   */\n      tag_225\n      jump\t// in\n    tag_309:\n        /* \"#utility.yul\":483:488   */\n      dup2\n        /* \"#utility.yul\":480:515   */\n      eq\n        /* \"#utility.yul\":470:533   */\n      tag_310\n      jumpi\n        /* \"#utility.yul\":529:530   */\n      0x00\n        /* \"#utility.yul\":526:527   */\n      dup1\n        /* \"#utility.yul\":519:531   */\n      revert\n        /* \"#utility.yul\":470:533   */\n    tag_310:\n        /* \"#utility.yul\":417:539   */\n      pop\n      jump\t// out\n        /* \"#utility.yul\":545:684   */\n    tag_227:\n        /* \"#utility.yul\":591:596   */\n      0x00\n        /* \"#utility.yul\":629:635   */\n      dup2\n        /* \"#utility.yul\":616:636   */\n      calldataload\n        /* \"#utility.yul\":607:636   */\n      swap1\n      pop\n        /* \"#utility.yul\":645:678   */\n      tag_312\n        /* \"#utility.yul\":672:677   */\n      dup2\n        /* \"#utility.yul\":645:678   */\n      tag_226\n      jump\t// in\n    tag_312:\n        /* \"#utility.yul\":545:684   */\n      swap3\n      swap2\n      pop\n      pop\n      jump\t// out\n        /* \"#utility.yul\":690:807   */\n    tag_228:\n        /* \"#utility.yul\":799:800   */\n      0x00\n        /* \"#utility.yul\":796:797   */\n      dup1\n        /* \"#utility.yul\":789:801   */\n      revert\n        /* \"#utility.yul\":813:930   */\n    tag_229:\n        /* \"#utility.yul\":922:923   */\n      0x00\n        /* \"#utility.yul\":919:920   */\n      dup1\n        /* \"#utility.yul\":912:924   */\n      revert\n        /* \"#utility.yul\":936:1038   */\n    tag_230:\n        /* \"#utility.yul\":977:983   */\n      0x00\n        /* \"#utility.yul\":1028:1030   */\n      0x1f\n        /* \"#utility.yul\":1024:1031   */\n      not\n        /* \"#utility.yul\":1019:1021   */\n      0x1f\n        /* \"#utility.yul\":1012:1017   */\n      dup4\n        /* \"#utility.yul\":1008:1022   */\n      add\n        /* \"#utility.yul\":1004:1032   */\n      and\n        /* \"#utility.yul\":994:1032   */\n      swap1\n      pop\n        /* \"#utility.yul\":936:1038   */\n      swap2\n      swap1\n      pop\n      jump\t// out\n        /* \"#utility.yul\":1044:1224   */\n    tag_231:\n        /* \"#utility.yul\":1092:1169   */\n      0x4e487b7100000000000000000000000000000000000000000000000000000000\n        /* \"#utility.yul\":1089:1090   */\n      0x00\n        /* \"#utility.yul\":1082:1170   */\n      mstore\n        /* \"#utility.yul\":1189:1193   */\n      0x41\n        /* \"#utility.yul\":1186:1187   */\n      0x04\n        /* \"#utility.yul\":1179:1194   */\n      mstore\n        /* \"#utility.yul\":1213:1217   */\n      0x24\n        /* \"#utility.yul\":1210:1211   */\n      0x00\n        /* \"#utility.yul\":1203:1218   */\n      revert\n        /* \"#utility.yul\":1230:1511   */\n    tag_232:\n        /* \"#utility.yul\":1313:1340   */\n      tag_318\n        /* \"#utility.yul\":1335:1339   */\n      dup3\n        /* \"#utility.yul\":1313:1340   */\n      tag_230\n      jump\t// in\n    tag_318:\n        /* \"#utility.yul\":1305:1311   */\n      dup2\n        /* \"#utility.yul\":1301:1341   */\n      add\n        /* \"#utility.yul\":1443:1449   */\n      dup2\n        /* \"#utility.yul\":1431:1441   */\n      dup2\n        /* \"#utility.yul\":1428:1450   */\n      lt\n        /* \"#utility.yul\":1407:1425   */\n      0xffffffffffffffff\n        /* \"#utility.yul\":1395:1405   */\n      dup3\n        /* \"#utility.yul\":1392:1426   */\n      gt\n        /* \"#utility.yul\":1389:1451   */\n      or\n        /* \"#utility.yul\":1386:1474   */\n      iszero\n      tag_319\n      jumpi\n        /* \"#utility.yul\":1454:1472   */\n      tag_320\n      tag_231\n      jump\t// in\n    tag_320:\n        /* \"#utility.yul\":1386:1474   */\n    tag_319:\n        /* \"#utility.yul\":1494:1504   */\n      dup1\n        /* \"#utility.yul\":1490:1492   */\n      0x40\n        /* \"#utility.yul\":1483:1505   */\n      mstore\n        /* \"#utility.yul\":1273:1511   */\n      pop\n        /* \"#utility.yul\":1230:1511   */\n      pop\n      pop\n      jump\t// out\n        /* \"#utility.yul\":1517:1646   */\n    tag_233:\n        /* \"#utility.yul\":1551:1557   */\n      0x00\n        /* \"#utility.yul\":1578:1598   */\n      tag_322\n      tag_222\n      jump\t// in\n    tag_322:\n        /* \"#utility.yul\":1568:1598   */\n      swap1\n      pop\n        /* \"#utility.yul\":1607:1640   */\n      tag_323\n        /* \"#utility.yul\":1635:1639   */\n      dup3\n        /* \"#utility.yul\":1627:1633   */\n      dup3\n        /* \"#utility.yul\":1607:1640   */\n      tag_232\n      jump\t// in\n    tag_323:\n        /* \"#utility.yul\":1517:1646   */\n      swap2\n      swap1\n      pop\n      jump\t// out\n        /* \"#utility.yul\":1652:1960   */\n    tag_234:\n        /* \"#utility.yul\":1714:1718   */\n      0x00\n        /* \"#utility.yul\":1804:1822   */\n      0xffffffffffffffff\n        /* \"#utility.yul\":1796:1802   */\n      dup3\n        /* \"#utility.yul\":1793:1823   */\n      gt\n        /* \"#utility.yul\":1790:1846   */\n      iszero\n      tag_325\n      jumpi\n        /* \"#utility.yul\":1826:1844   */\n      tag_326\n      tag_231\n      jump\t// in\n    tag_326:\n        /* \"#utility.yul\":1790:1846   */\n    tag_325:\n        /* \"#utility.yul\":1864:1893   */\n      tag_327\n        /* \"#utility.yul\":1886:1892   */\n      dup3\n        /* \"#utility.yul\":1864:1893   */\n      tag_230\n      jump\t// in\n    tag_327:\n        /* \"#utility.yul\":1856:1893   */\n      swap1\n      pop\n        /* \"#utility.yul\":1948:1952   */\n      0x20\n        /* \"#utility.yul\":1942:1946   */\n      dup2\n        /* \"#utility.yul\":1938:1953   */\n      add\n        /* \"#utility.yul\":1930:1953   */\n      swap1\n      pop\n        /* \"#utility.yul\":1652:1960   */\n      swap2\n      swap1\n      pop\n      jump\t// out\n        /* \"#utility.yul\":1966:2112   */\n    tag_235:\n        /* \"#utility.yul\":2063:2069   */\n      dup3\n        /* \"#utility.yul\":2058:2061   */\n      dup2\n        /* \"#utility.yul\":2053:2056   */\n      dup4\n        /* \"#utility.yul\":2040:2070   */\n      calldatacopy\n        /* \"#utility.yul\":2104:2105   */\n      0x00\n        /* \"#utility.yul\":2095:2101   */\n      dup4\n        /* \"#utility.yul\":2090:2093   */\n      dup4\n        /* \"#utility.yul\":2086:2102   */\n      add\n        /* \"#utility.yul\":2079:2106   */\n      mstore\n        /* \"#utility.yul\":1966:2112   */\n      pop\n      pop\n      pop\n      jump\t// out\n        /* \"#utility.yul\":2118:2543   */\n    tag_236:\n        /* \"#utility.yul\":2196:2201   */\n      0x00\n        /* \"#utility.yul\":2221:2287   */\n      tag_330\n        /* \"#utility.yul\":2237:2286   */\n      tag_331\n        /* \"#utility.yul\":2279:2285   */\n      dup5\n        /* \"#utility.yul\":2237:2286   */\n      tag_234\n      jump\t// in\n    tag_331:\n        /* \"#utility.yul\":2221:2287   */\n      tag_233\n      jump\t// in\n    tag_330:\n        /* \"#utility.yul\":2212:2287   */\n      swap1\n      pop\n        /* \"#utility.yul\":2310:2316   */\n      dup3\n        /* \"#utility.yul\":2303:2308   */\n      dup2\n        /* \"#utility.yul\":2296:2317   */\n      mstore\n        /* \"#utility.yul\":2348:2352   */\n      0x20\n        /* \"#utility.yul\":2341:2346   */\n      dup2\n        /* \"#utility.yul\":2337:2353   */\n      add\n        /* \"#utility.yul\":2386:2389   */\n      dup5\n        /* \"#utility.yul\":2377:2383   */\n      dup5\n        /* \"#utility.yul\":2372:2375   */\n      dup5\n        /* \"#utility.yul\":2368:2384   */\n      add\n        /* \"#utility.yul\":2365:2390   */\n      gt\n        /* \"#utility.yul\":2362:2474   */\n      iszero\n      tag_332\n      jumpi\n        /* \"#utility.yul\":2393:2472   */\n      tag_333\n      tag_229\n      jump\t// in\n    tag_333:\n        /* \"#utility.yul\":2362:2474   */\n    tag_332:\n        /* \"#utility.yul\":2483:2537   */\n      tag_334\n        /* \"#utility.yul\":2530:2536   */\n      dup5\n        /* \"#utility.yul\":2525:2528   */\n      dup3\n        /* \"#utility.yul\":2520:2523   */\n      dup6\n        /* \"#utility.yul\":2483:2537   */\n      tag_235\n      jump\t// in\n    tag_334:\n        /* \"#utility.yul\":2202:2543   */\n      pop\n        /* \"#utility.yul\":2118:2543   */\n      swap4\n      swap3\n      pop\n      pop\n      pop\n      jump\t// out\n        /* \"#utility.yul\":2563:2903   */\n    tag_237:\n        /* \"#utility.yul\":2619:2624   */\n      0x00\n        /* \"#utility.yul\":2668:2671   */\n      dup3\n        /* \"#utility.yul\":2661:2665   */\n      0x1f\n        /* \"#utility.yul\":2653:2659   */\n      dup4\n        /* \"#utility.yul\":2649:2666   */\n      add\n        /* \"#utility.yul\":2645:2672   */\n      slt\n        /* \"#utility.yul\":2635:2757   */\n      tag_336\n      jumpi\n        /* \"#utility.yul\":2676:2755   */\n      tag_337\n      tag_228\n      jump\t// in\n    tag_337:\n        /* \"#utility.yul\":2635:2757   */\n    tag_336:\n        /* \"#utility.yul\":2793:2799   */\n      dup2\n        /* \"#utility.yul\":2780:2800   */\n      calldataload\n        /* \"#utility.yul\":2818:2897   */\n      tag_338\n        /* \"#utility.yul\":2893:2896   */\n      dup5\n        /* \"#utility.yul\":2885:2891   */\n      dup3\n        /* \"#utility.yul\":2878:2882   */\n      0x20\n        /* \"#utility.yul\":2870:2876   */\n      dup7\n        /* \"#utility.yul\":2866:2883   */\n      add\n        /* \"#utility.yul\":2818:2897   */\n      tag_236\n      jump\t// in\n    tag_338:\n        /* \"#utility.yul\":2809:2897   */\n      swap2\n      pop\n        /* \"#utility.yul\":2625:2903   */\n      pop\n        /* \"#utility.yul\":2563:2903   */\n      swap3\n      swap2\n      pop\n      pop\n      jump\t// out\n        /* \"#utility.yul\":2909:3563   */\n    tag_13:\n        /* \"#utility.yul\":2987:2993   */\n      0x00\n        /* \"#utility.yul\":2995:3001   */\n      dup1\n        /* \"#utility.yul\":3044:3046   */\n      0x40\n        /* \"#utility.yul\":3032:3041   */\n      dup4\n        /* \"#utility.yul\":3023:3030   */\n      dup6\n        /* \"#utility.yul\":3019:3042   */\n      sub\n        /* \"#utility.yul\":3015:3047   */\n      slt\n        /* \"#utility.yul\":3012:3131   */\n      iszero\n      tag_340\n      jumpi\n        /* \"#utility.yul\":3050:3129   */\n      tag_341\n      tag_223\n      jump\t// in\n    tag_341:\n        /* \"#utility.yul\":3012:3131   */\n    tag_340:\n        /* \"#utility.yul\":3170:3171   */\n      0x00\n        /* \"#utility.yul\":3195:3248   */\n      tag_342\n        /* \"#utility.yul\":3240:3247   */\n      dup6\n        /* \"#utility.yul\":3231:3237   */\n      dup3\n        /* \"#utility.yul\":3220:3229   */\n      dup7\n        /* \"#utility.yul\":3216:3238   */\n      add\n        /* \"#utility.yul\":3195:3248   */\n      tag_227\n      jump\t// in\n    tag_342:\n        /* \"#utility.yul\":3185:3248   */\n      swap3\n      pop\n        /* \"#utility.yul\":3141:3258   */\n      pop\n        /* \"#utility.yul\":3325:3327   */\n      0x20\n        /* \"#utility.yul\":3314:3323   */\n      dup4\n        /* \"#utility.yul\":3310:3328   */\n      add\n        /* \"#utility.yul\":3297:3329   */\n      calldataload\n        /* \"#utility.yul\":3356:3374   */\n      0xffffffffffffffff\n        /* \"#utility.yul\":3348:3354   */\n      dup2\n        /* \"#utility.yul\":3345:3375   */\n      gt\n        /* \"#utility.yul\":3342:3459   */\n      iszero\n      tag_343\n      jumpi\n        /* \"#utility.yul\":3378:3457   */\n      tag_344\n      tag_224\n      jump\t// in\n    tag_344:\n        /* \"#utility.yul\":3342:3459   */\n    tag_343:\n        /* \"#utility.yul\":3483:3546   */\n      tag_345\n        /* \"#utility.yul\":3538:3545   */\n      dup6\n        /* \"#utility.yul\":3529:3535   */\n      dup3\n        /* \"#utility.yul\":3518:3527   */\n      dup7\n        /* \"#utility.yul\":3514:3536   */\n      add\n        /* \"#utility.yul\":3483:3546   */\n      tag_237\n      jump\t// in\n    tag_345:\n        /* \"#utility.yul\":3473:3546   */\n      swap2\n      pop\n        /* \"#utility.yul\":3268:3556   */\n      pop\n        /* \"#utility.yul\":2909:3563   */\n      swap3\n      pop\n      swap3\n      swap1\n      pop\n      jump\t// out\n        /* \"#utility.yul\":3569:3646   */\n    tag_238:\n        /* \"#utility.yul\":3606:3613   */\n      0x00\n        /* \"#utility.yul\":3635:3640   */\n      dup2\n        /* \"#utility.yul\":3624:3640   */\n      swap1\n      pop\n        /* \"#utility.yul\":3569:3646   */\n      swap2\n      swap1\n      pop\n      jump\t// out\n        /* \"#utility.yul\":3652:3774   */\n    tag_239:\n        /* \"#utility.yul\":3725:3749   */\n      tag_348\n        /* \"#utility.yul\":3743:3748   */\n      dup2\n        /* \"#utility.yul\":3725:3749   */\n      tag_238\n      jump\t// in\n    tag_348:\n        /* \"#utility.yul\":3718:3723   */\n      dup2\n        /* \"#utility.yul\":3715:3750   */\n      eq\n        /* \"#utility.yul\":3705:3768   */\n      tag_349\n      jumpi\n        /* \"#utility.yul\":3764:3765   */\n      0x00\n        /* \"#utility.yul\":3761:3762   */\n      dup1\n        /* \"#utility.yul\":3754:3766   */\n      revert\n        /* \"#utility.yul\":3705:3768   */\n    tag_349:\n        /* \"#utility.yul\":3652:3774   */\n      pop\n      jump\t// out\n        /* \"#utility.yul\":3780:3919   */\n    tag_240:\n        /* \"#utility.yul\":3826:3831   */\n      0x00\n        /* \"#utility.yul\":3864:3870   */\n      dup2\n        /* \"#utility.yul\":3851:3871   */\n      calldataload\n        /* \"#utility.yul\":3842:3871   */\n      swap1\n      pop\n        /* \"#utility.yul\":3880:3913   */\n      tag_351\n        /* \"#utility.yul\":3907:3912   */\n      dup2\n        /* \"#utility.yul\":3880:3913   */\n      tag_239\n      jump\t// in\n    tag_351:\n        /* \"#utility.yul\":3780:3919   */\n      swap3\n      swap2\n      pop\n      pop\n      jump\t// out\n        /* \"#utility.yul\":3925:4254   */\n    tag_17:\n        /* \"#utility.yul\":3984:3990   */\n      0x00\n        /* \"#utility.yul\":4033:4035   */\n      0x20\n        /* \"#utility.yul\":4021:4030   */\n      dup3\n        /* \"#utility.yul\":4012:4019   */\n      dup5\n        /* \"#utility.yul\":4008:4031   */\n      sub\n        /* \"#utility.yul\":4004:4036   */\n      slt\n        /* \"#utility.yul\":4001:4120   */\n      iszero\n      tag_353\n      jumpi\n        /* \"#utility.yul\":4039:4118   */\n      tag_354\n      tag_223\n      jump\t// in\n    tag_354:\n        /* \"#utility.yul\":4001:4120   */\n    tag_353:\n        /* \"#utility.yul\":4159:4160   */\n      0x00\n        /* \"#utility.yul\":4184:4237   */\n      tag_355\n        /* \"#utility.yul\":4229:4236   */\n      dup5\n        /* \"#utility.yul\":4220:4226   */\n      dup3\n        /* \"#utility.yul\":4209:4218   */\n      dup6\n        /* \"#utility.yul\":4205:4227   */\n      add\n        /* \"#utility.yul\":4184:4237   */\n      tag_240\n      jump\t// in\n    tag_355:\n        /* \"#utility.yul\":4174:4237   */\n      swap2\n      pop\n        /* \"#utility.yul\":4130:4247   */\n      pop\n        /* \"#utility.yul\":3925:4254   */\n      swap3\n      swap2\n      pop\n      pop\n      jump\t// out\n        /* \"#utility.yul\":4260:4378   */\n    tag_241:\n        /* \"#utility.yul\":4347:4371   */\n      tag_357\n        /* \"#utility.yul\":4365:4370   */\n      dup2\n        /* \"#utility.yul\":4347:4371   */\n      tag_225\n      jump\t// in\n    tag_357:\n        /* \"#utility.yul\":4342:4345   */\n      dup3\n        /* \"#utility.yul\":4335:4372   */\n      mstore\n        /* \"#utility.yul\":4260:4378   */\n      pop\n      pop\n      jump\t// out\n        /* \"#utility.yul\":4384:4606   */\n    tag_20:\n        /* \"#utility.yul\":4477:4481   */\n      0x00\n        /* \"#utility.yul\":4515:4517   */\n      0x20\n        /* \"#utility.yul\":4504:4513   */\n      dup3\n        /* \"#utility.yul\":4500:4518   */\n      add\n        /* \"#utility.yul\":4492:4518   */\n      swap1\n      pop\n        /* \"#utility.yul\":4528:4599   */\n      tag_359\n        /* \"#utility.yul\":4596:4597   */\n      0x00\n        /* \"#utility.yul\":4585:4594   */\n      dup4\n        /* \"#utility.yul\":4581:4598   */\n      add\n        /* \"#utility.yul\":4572:4578   */\n      dup5\n        /* \"#utility.yul\":4528:4599   */\n      tag_241\n      jump\t// in\n    tag_359:\n        /* \"#utility.yul\":4384:4606   */\n      swap3\n      swap2\n      pop\n      pop\n      jump\t// out\n        /* \"#utility.yul\":4612:4711   */\n    tag_242:\n        /* \"#utility.yul\":4664:4670   */\n      0x00\n        /* \"#utility.yul\":4698:4703   */\n      dup2\n        /* \"#utility.yul\":4692:4704   */\n      mload\n        /* \"#utility.yul\":4682:4704   */\n      swap1\n      pop\n        /* \"#utility.yul\":4612:4711   */\n      swap2\n      swap1\n      pop\n      jump\t// out\n        /* \"#utility.yul\":4717:4886   */\n    tag_243:\n        /* \"#utility.yul\":4801:4812   */\n      0x00\n        /* \"#utility.yul\":4835:4841   */\n      dup3\n        /* \"#utility.yul\":4830:4833   */\n      dup3\n        /* \"#utility.yul\":4823:4842   */\n      mstore\n        /* \"#utility.yul\":4875:4879   */\n      0x20\n        /* \"#utility.yul\":4870:4873   */\n      dup3\n        /* \"#utility.yul\":4866:4880   */\n      add\n        /* \"#utility.yul\":4851:4880   */\n      swap1\n      pop\n        /* \"#utility.yul\":4717:4886   */\n      swap3\n      swap2\n      pop\n      pop\n      jump\t// out\n        /* \"#utility.yul\":4892:5138   */\n    tag_244:\n        /* \"#utility.yul\":4973:4974   */\n      0x00\n        /* \"#utility.yul\":4983:5096   */\n    tag_363:\n        /* \"#utility.yul\":4997:5003   */\n      dup4\n        /* \"#utility.yul\":4994:4995   */\n      dup2\n        /* \"#utility.yul\":4991:5004   */\n      lt\n        /* \"#utility.yul\":4983:5096   */\n      iszero\n      tag_365\n      jumpi\n        /* \"#utility.yul\":5082:5083   */\n      dup1\n        /* \"#utility.yul\":5077:5080   */\n      dup3\n        /* \"#utility.yul\":5073:5084   */\n      add\n        /* \"#utility.yul\":5067:5085   */\n      mload\n        /* \"#utility.yul\":5063:5064   */\n      dup2\n        /* \"#utility.yul\":5058:5061   */\n      dup5\n        /* \"#utility.yul\":5054:5065   */\n      add\n        /* \"#utility.yul\":5047:5086   */\n      mstore\n        /* \"#utility.yul\":5019:5021   */\n      0x20\n        /* \"#utility.yul\":5016:5017   */\n      dup2\n        /* \"#utility.yul\":5012:5022   */\n      add\n        /* \"#utility.yul\":5007:5022   */\n      swap1\n      pop\n        /* \"#utility.yul\":4983:5096   */\n      jump(tag_363)\n    tag_365:\n        /* \"#utility.yul\":5130:5131   */\n      0x00\n        /* \"#utility.yul\":5121:5127   */\n      dup5\n        /* \"#utility.yul\":5116:5119   */\n      dup5\n        /* \"#utility.yul\":5112:5128   */\n      add\n        /* \"#utility.yul\":5105:5132   */\n      mstore\n        /* \"#utility.yul\":4954:5138   */\n      pop\n        /* \"#utility.yul\":4892:5138   */\n      pop\n      pop\n      pop\n      jump\t// out\n        /* \"#utility.yul\":5144:5521   */\n    tag_245:\n        /* \"#utility.yul\":5232:5235   */\n      0x00\n        /* \"#utility.yul\":5260:5299   */\n      tag_367\n        /* \"#utility.yul\":5293:5298   */\n      dup3\n        /* \"#utility.yul\":5260:5299   */\n      tag_242\n      jump\t// in\n    tag_367:\n        /* \"#utility.yul\":5315:5386   */\n      tag_368\n        /* \"#utility.yul\":5379:5385   */\n      dup2\n        /* \"#utility.yul\":5374:5377   */\n      dup6\n        /* \"#utility.yul\":5315:5386   */\n      tag_243\n      jump\t// in\n    tag_368:\n        /* \"#utility.yul\":5308:5386   */\n      swap4\n      pop\n        /* \"#utility.yul\":5395:5460   */\n      tag_369\n        /* \"#utility.yul\":5453:5459   */\n      dup2\n        /* \"#utility.yul\":5448:5451   */\n      dup6\n        /* \"#utility.yul\":5441:5445   */\n      0x20\n        /* \"#utility.yul\":5434:5439   */\n      dup7\n        /* \"#utility.yul\":5430:5446   */\n      add\n        /* \"#utility.yul\":5395:5460   */\n      tag_244\n      jump\t// in\n    tag_369:\n        /* \"#utility.yul\":5485:5514   */\n      tag_370\n        /* \"#utility.yul\":5507:5513   */\n      dup2\n        /* \"#utility.yul\":5485:5514   */\n      tag_230\n      jump\t// in\n    tag_370:\n        /* \"#utility.yul\":5480:5483   */\n      dup5\n        /* \"#utility.yul\":5476:5515   */\n      add\n        /* \"#utility.yul\":5469:5515   */\n      swap2\n      pop\n        /* \"#utility.yul\":5236:5521   */\n      pop\n        /* \"#utility.yul\":5144:5521   */\n      swap3\n      swap2\n      pop\n      pop\n      jump\t// out\n        /* \"#utility.yul\":5527:5840   */\n    tag_24:\n        /* \"#utility.yul\":5640:5644   */\n      0x00\n        /* \"#utility.yul\":5678:5680   */\n      0x20\n        /* \"#utility.yul\":5667:5676   */\n      dup3\n        /* \"#utility.yul\":5663:5681   */\n      add\n        /* \"#utility.yul\":5655:5681   */\n      swap1\n      pop\n        /* \"#utility.yul\":5727:5736   */\n      dup2\n        /* \"#utility.yul\":5721:5725   */\n      dup2\n        /* \"#utility.yul\":5717:5737   */\n      sub\n        /* \"#utility.yul\":5713:5714   */\n      0x00\n        /* \"#utility.yul\":5702:5711   */\n      dup4\n        /* \"#utility.yul\":5698:5715   */\n      add\n        /* \"#utility.yul\":5691:5738   */\n      mstore\n        /* \"#utility.yul\":5755:5833   */\n      tag_372\n        /* \"#utility.yul\":5828:5832   */\n      dup2\n        /* \"#utility.yul\":5819:5825   */\n      dup5\n        /* \"#utility.yul\":5755:5833   */\n      tag_245\n      jump\t// in\n    tag_372:\n        /* \"#utility.yul\":5747:5833   */\n      swap1\n      pop\n        /* \"#utility.yul\":5527:5840   */\n      swap3\n      swap2\n      pop\n      pop\n      jump\t// out\n        /* \"#utility.yul\":5846:5972   */\n    tag_246:\n        /* \"#utility.yul\":5883:5890   */\n      0x00\n        /* \"#utility.yul\":5923:5965   */\n      0xffffffffffffffffffffffffffffffffffffffff\n        /* \"#utility.yul\":5916:5921   */\n      dup3\n        /* \"#utility.yul\":5912:5966   */\n      and\n        /* \"#utility.yul\":5901:5966   */\n      swap1\n      pop\n        /* \"#utility.yul\":5846:5972   */\n      swap2\n      swap1\n      pop\n      jump\t// out\n        /* \"#utility.yul\":5978:6074   */\n    tag_247:\n        /* \"#utility.yul\":6015:6022   */\n      0x00\n        /* \"#utility.yul\":6044:6068   */\n      tag_375\n        /* \"#utility.yul\":6062:6067   */\n      dup3\n        /* \"#utility.yul\":6044:6068   */\n      tag_246\n      jump\t// in\n    tag_375:\n        /* \"#utility.yul\":6033:6068   */\n      swap1\n      pop\n        /* \"#utility.yul\":5978:6074   */\n      swap2\n      swap1\n      pop\n      jump\t// out\n        /* \"#utility.yul\":6080:6198   */\n    tag_248:\n        /* \"#utility.yul\":6167:6191   */\n      tag_377\n        /* \"#utility.yul\":6185:6190   */\n      dup2\n        /* \"#utility.yul\":6167:6191   */\n      tag_247\n      jump\t// in\n    tag_377:\n        /* \"#utility.yul\":6162:6165   */\n      dup3\n        /* \"#utility.yul\":6155:6192   */\n      mstore\n        /* \"#utility.yul\":6080:6198   */\n      pop\n      pop\n      jump\t// out\n        /* \"#utility.yul\":6204:6426   */\n    tag_30:\n        /* \"#utility.yul\":6297:6301   */\n      0x00\n        /* \"#utility.yul\":6335:6337   */\n      0x20\n        /* \"#utility.yul\":6324:6333   */\n      dup3\n        /* \"#utility.yul\":6320:6338   */\n      add\n        /* \"#utility.yul\":6312:6338   */\n      swap1\n      pop\n        /* \"#utility.yul\":6348:6419   */\n      tag_379\n        /* \"#utility.yul\":6416:6417   */\n      0x00\n        /* \"#utility.yul\":6405:6414   */\n      dup4\n        /* \"#utility.yul\":6401:6418   */\n      add\n        /* \"#utility.yul\":6392:6398   */\n      dup5\n        /* \"#utility.yul\":6348:6419   */\n      tag_248\n      jump\t// in\n    tag_379:\n        /* \"#utility.yul\":6204:6426   */\n      swap3\n      swap2\n      pop\n      pop\n      jump\t// out\n        /* \"#utility.yul\":6432:6554   */\n    tag_249:\n        /* \"#utility.yul\":6505:6529   */\n      tag_381\n        /* \"#utility.yul\":6523:6528   */\n      dup2\n        /* \"#utility.yul\":6505:6529   */\n      tag_247\n      jump\t// in\n    tag_381:\n        /* \"#utility.yul\":6498:6503   */\n      dup2\n        /* \"#utility.yul\":6495:6530   */\n      eq\n        /* \"#utility.yul\":6485:6548   */\n      tag_382\n      jumpi\n        /* \"#utility.yul\":6544:6545   */\n      0x00\n        /* \"#utility.yul\":6541:6542   */\n      dup1\n        /* \"#utility.yul\":6534:6546   */\n      revert\n        /* \"#utility.yul\":6485:6548   */\n    tag_382:\n        /* \"#utility.yul\":6432:6554   */\n      pop\n      jump\t// out\n        /* \"#utility.yul\":6560:6699   */\n    tag_250:\n        /* \"#utility.yul\":6606:6611   */\n      0x00\n        /* \"#utility.yul\":6644:6650   */\n      dup2\n        /* \"#utility.yul\":6631:6651   */\n      calldataload\n        /* \"#utility.yul\":6622:6651   */\n      swap1\n      pop\n        /* \"#utility.yul\":6660:6693   */\n      tag_384\n        /* \"#utility.yul\":6687:6692   */\n      dup2\n        /* \"#utility.yul\":6660:6693   */\n      tag_249\n      jump\t// in\n    tag_384:\n        /* \"#utility.yul\":6560:6699   */\n      swap3\n      swap2\n      pop\n      pop\n      jump\t// out\n        /* \"#utility.yul\":6705:7034   */\n    tag_35:\n        /* \"#utility.yul\":6764:6770   */\n      0x00\n        /* \"#utility.yul\":6813:6815   */\n      0x20\n        /* \"#utility.yul\":6801:6810   */\n      dup3\n        /* \"#utility.yul\":6792:6799   */\n      dup5\n        /* \"#utility.yul\":6788:6811   */\n      sub\n        /* \"#utility.yul\":6784:6816   */\n      slt\n        /* \"#utility.yul\":6781:6900   */\n      iszero\n      tag_386\n      jumpi\n        /* \"#utility.yul\":6819:6898   */\n      tag_387\n      tag_223\n      jump\t// in\n    tag_387:\n        /* \"#utility.yul\":6781:6900   */\n    tag_386:\n        /* \"#utility.yul\":6939:6940   */\n      0x00\n        /* \"#utility.yul\":6964:7017   */\n      tag_388\n        /* \"#utility.yul\":7009:7016   */\n      dup5\n        /* \"#utility.yul\":7000:7006   */\n      dup3\n        /* \"#utility.yul\":6989:6998   */\n      dup6\n        /* \"#utility.yul\":6985:7007   */\n      add\n        /* \"#utility.yul\":6964:7017   */\n      tag_250\n      jump\t// in\n    tag_388:\n        /* \"#utility.yul\":6954:7017   */\n      swap2\n      pop\n        /* \"#utility.yul\":6910:7027   */\n      pop\n        /* \"#utility.yul\":6705:7034   */\n      swap3\n      swap2\n      pop\n      pop\n      jump\t// out\n        /* \"#utility.yul\":7040:7267   */\n    tag_251:\n        /* \"#utility.yul\":7180:7214   */\n      0x536f75726365206d75737420626520746865206f7261636c65206f6620746865\n        /* \"#utility.yul\":7176:7177   */\n      0x00\n        /* \"#utility.yul\":7168:7174   */\n      dup3\n        /* \"#utility.yul\":7164:7178   */\n      add\n        /* \"#utility.yul\":7157:7215   */\n      mstore\n        /* \"#utility.yul\":7249:7259   */\n      0x2072657175657374000000000000000000000000000000000000000000000000\n        /* \"#utility.yul\":7244:7246   */\n      0x20\n        /* \"#utility.yul\":7236:7242   */\n      dup3\n        /* \"#utility.yul\":7232:7247   */\n      add\n        /* \"#utility.yul\":7225:7260   */\n      mstore\n        /* \"#utility.yul\":7040:7267   */\n      pop\n      jump\t// out\n        /* \"#utility.yul\":7273:7639   */\n    tag_252:\n        /* \"#utility.yul\":7415:7418   */\n      0x00\n        /* \"#utility.yul\":7436:7503   */\n      tag_391\n        /* \"#utility.yul\":7500:7502   */\n      0x28\n        /* \"#utility.yul\":7495:7498   */\n      dup4\n        /* \"#utility.yul\":7436:7503   */\n      tag_243\n      jump\t// in\n    tag_391:\n        /* \"#utility.yul\":7429:7503   */\n      swap2\n      pop\n        /* \"#utility.yul\":7512:7605   */\n      tag_392\n        /* \"#utility.yul\":7601:7604   */\n      dup3\n        /* \"#utility.yul\":7512:7605   */\n      tag_251\n      jump\t// in\n    tag_392:\n        /* \"#utility.yul\":7630:7632   */\n      0x40\n        /* \"#utility.yul\":7625:7628   */\n      dup3\n        /* \"#utility.yul\":7621:7633   */\n      add\n        /* \"#utility.yul\":7614:7633   */\n      swap1\n      pop\n        /* \"#utility.yul\":7273:7639   */\n      swap2\n      swap1\n      pop\n      jump\t// out\n        /* \"#utility.yul\":7645:8064   */\n    tag_40:\n        /* \"#utility.yul\":7811:7815   */\n      0x00\n        /* \"#utility.yul\":7849:7851   */\n      0x20\n        /* \"#utility.yul\":7838:7847   */\n      dup3\n        /* \"#utility.yul\":7834:7852   */\n      add\n        /* \"#utility.yul\":7826:7852   */\n      swap1\n      pop\n        /* \"#utility.yul\":7898:7907   */\n      dup2\n        /* \"#utility.yul\":7892:7896   */\n      dup2\n        /* \"#utility.yul\":7888:7908   */\n      sub\n        /* \"#utility.yul\":7884:7885   */\n      0x00\n        /* \"#utility.yul\":7873:7882   */\n      dup4\n        /* \"#utility.yul\":7869:7886   */\n      add\n        /* \"#utility.yul\":7862:7909   */\n      mstore\n        /* \"#utility.yul\":7926:8057   */\n      tag_394\n        /* \"#utility.yul\":8052:8056   */\n      dup2\n        /* \"#utility.yul\":7926:8057   */\n      tag_252\n      jump\t// in\n    tag_394:\n        /* \"#utility.yul\":7918:8057   */\n      swap1\n      pop\n        /* \"#utility.yul\":7645:8064   */\n      swap2\n      swap1\n      pop\n      jump\t// out\n        /* \"#utility.yul\":8070:8250   */\n    tag_253:\n        /* \"#utility.yul\":8118:8195   */\n      0x4e487b7100000000000000000000000000000000000000000000000000000000\n        /* \"#utility.yul\":8115:8116   */\n      0x00\n        /* \"#utility.yul\":8108:8196   */\n      mstore\n        /* \"#utility.yul\":8215:8219   */\n      0x22\n        /* \"#utility.yul\":8212:8213   */\n      0x04\n        /* \"#utility.yul\":8205:8220   */\n      mstore\n        /* \"#utility.yul\":8239:8243   */\n      0x24\n        /* \"#utility.yul\":8236:8237   */\n      0x00\n        /* \"#utility.yul\":8229:8244   */\n      revert\n        /* \"#utility.yul\":8256:8576   */\n    tag_54:\n        /* \"#utility.yul\":8300:8306   */\n      0x00\n        /* \"#utility.yul\":8337:8338   */\n      0x02\n        /* \"#utility.yul\":8331:8335   */\n      dup3\n        /* \"#utility.yul\":8327:8339   */\n      div\n        /* \"#utility.yul\":8317:8339   */\n      swap1\n      pop\n        /* \"#utility.yul\":8384:8385   */\n      0x01\n        /* \"#utility.yul\":8378:8382   */\n      dup3\n        /* \"#utility.yul\":8374:8386   */\n      and\n        /* \"#utility.yul\":8405:8423   */\n      dup1\n        /* \"#utility.yul\":8395:8476   */\n      tag_397\n      jumpi\n        /* \"#utility.yul\":8461:8465   */\n      0x7f\n        /* \"#utility.yul\":8453:8459   */\n      dup3\n        /* \"#utility.yul\":8449:8466   */\n      and\n        /* \"#utility.yul\":8439:8466   */\n      swap2\n      pop\n        /* \"#utility.yul\":8395:8476   */\n    tag_397:\n        /* \"#utility.yul\":8523:8525   */\n      0x20\n        /* \"#utility.yul\":8515:8521   */\n      dup3\n        /* \"#utility.yul\":8512:8526   */\n      lt\n        /* \"#utility.yul\":8492:8510   */\n      dup2\n        /* \"#utility.yul\":8489:8527   */\n      sub\n        /* \"#utility.yul\":8486:8570   */\n      tag_398\n      jumpi\n        /* \"#utility.yul\":8542:8560   */\n      tag_399\n      tag_253\n      jump\t// in\n    tag_399:\n        /* \"#utility.yul\":8486:8570   */\n    tag_398:\n        /* \"#utility.yul\":8307:8576   */\n      pop\n        /* \"#utility.yul\":8256:8576   */\n      swap2\n      swap1\n      pop\n      jump\t// out\n        /* \"#utility.yul\":8582:8723   */\n    tag_254:\n        /* \"#utility.yul\":8631:8635   */\n      0x00\n        /* \"#utility.yul\":8654:8657   */\n      dup2\n        /* \"#utility.yul\":8646:8657   */\n      swap1\n      pop\n        /* \"#utility.yul\":8677:8680   */\n      dup2\n        /* \"#utility.yul\":8674:8675   */\n      0x00\n        /* \"#utility.yul\":8667:8681   */\n      mstore\n        /* \"#utility.yul\":8711:8715   */\n      0x20\n        /* \"#utility.yul\":8708:8709   */\n      0x00\n        /* \"#utility.yul\":8698:8716   */\n      keccak256\n        /* \"#utility.yul\":8690:8716   */\n      swap1\n      pop\n        /* \"#utility.yul\":8582:8723   */\n      swap2\n      swap1\n      pop\n      jump\t// out\n        /* \"#utility.yul\":8729:8822   */\n    tag_255:\n        /* \"#utility.yul\":8766:8772   */\n      0x00\n        /* \"#utility.yul\":8813:8815   */\n      0x20\n        /* \"#utility.yul\":8808:8810   */\n      0x1f\n        /* \"#utility.yul\":8801:8806   */\n      dup4\n        /* \"#utility.yul\":8797:8811   */\n      add\n        /* \"#utility.yul\":8793:8816   */\n      div\n        /* \"#utility.yul\":8783:8816   */\n      swap1\n      pop\n        /* \"#utility.yul\":8729:8822   */\n      swap2\n      swap1\n      pop\n      jump\t// out\n        /* \"#utility.yul\":8828:8935   */\n    tag_256:\n        /* \"#utility.yul\":8872:8880   */\n      0x00\n        /* \"#utility.yul\":8922:8927   */\n      dup3\n        /* \"#utility.yul\":8916:8920   */\n      dup3\n        /* \"#utility.yul\":8912:8928   */\n      shl\n        /* \"#utility.yul\":8891:8928   */\n      swap1\n      pop\n        /* \"#utility.yul\":8828:8935   */\n      swap3\n      swap2\n      pop\n      pop\n      jump\t// out\n        /* \"#utility.yul\":8941:9334   */\n    tag_257:\n        /* \"#utility.yul\":9010:9016   */\n      0x00\n        /* \"#utility.yul\":9060:9061   */\n      0x08\n        /* \"#utility.yul\":9048:9058   */\n      dup4\n        /* \"#utility.yul\":9044:9062   */\n      mul\n        /* \"#utility.yul\":9083:9180   */\n      tag_404\n        /* \"#utility.yul\":9113:9179   */\n      0xffffffffffffffffffffffffffffffffffffffffffffffffffffffffffffffff\n        /* \"#utility.yul\":9102:9111   */\n      dup3\n        /* \"#utility.yul\":9083:9180   */\n      tag_256\n      jump\t// in\n    tag_404:\n        /* \"#utility.yul\":9201:9240   */\n      tag_405\n        /* \"#utility.yul\":9231:9239   */\n      dup7\n        /* \"#utility.yul\":9220:9229   */\n      dup4\n        /* \"#utility.yul\":9201:9240   */\n      tag_256\n      jump\t// in\n    tag_405:\n        /* \"#utility.yul\":9189:9240   */\n      swap6\n      pop\n        /* \"#utility.yul\":9273:9277   */\n      dup1\n        /* \"#utility.yul\":9269:9278   */\n      not\n        /* \"#utility.yul\":9262:9267   */\n      dup5\n        /* \"#utility.yul\":9258:9279   */\n      and\n        /* \"#utility.yul\":9249:9279   */\n      swap4\n      pop\n        /* \"#utility.yul\":9322:9326   */\n      dup1\n        /* \"#utility.yul\":9312:9320   */\n      dup7\n        /* \"#utility.yul\":9308:9327   */\n      and\n        /* \"#utility.yul\":9301:9306   */\n      dup5\n        /* \"#utility.yul\":9298:9328   */\n      or\n        /* \"#utility.yul\":9288:9328   */\n      swap3\n      pop\n        /* \"#utility.yul\":9017:9334   */\n      pop\n      pop\n        /* \"#utility.yul\":8941:9334   */\n      swap4\n      swap3\n      pop\n      pop\n      pop\n      jump\t// out\n        /* \"#utility.yul\":9340:9400   */\n    tag_258:\n        /* \"#utility.yul\":9368:9371   */\n      0x00\n        /* \"#utility.yul\":9389:9394   */\n      dup2\n        /* \"#utility.yul\":9382:9394   */\n      swap1\n      pop\n        /* \"#utility.yul\":9340:9400   */\n      swap2\n      swap1\n      pop\n      jump\t// out\n        /* \"#utility.yul\":9406:9548   */\n    tag_259:\n        /* \"#utility.yul\":9456:9465   */\n      0x00\n        /* \"#utility.yul\":9489:9542   */\n      tag_408\n        /* \"#utility.yul\":9507:9541   */\n      tag_409\n        /* \"#utility.yul\":9516:9540   */\n      tag_410\n        /* \"#utility.yul\":9534:9539   */\n      dup5\n        /* \"#utility.yul\":9516:9540   */\n      tag_238\n      jump\t// in\n    tag_410:\n        /* \"#utility.yul\":9507:9541   */\n      tag_258\n      jump\t// in\n    tag_409:\n        /* \"#utility.yul\":9489:9542   */\n      tag_238\n      jump\t// in\n    tag_408:\n        /* \"#utility.yul\":9476:9542   */\n      swap1\n      pop\n        /* \"#utility.yul\":9406:9548   */\n      swap2\n      swap1\n      pop\n      jump\t// out\n        /* \"#utility.yul\":9554:9629   */\n    tag_260:\n        /* \"#utility.yul\":9597:9600   */\n      0x00\n        /* \"#utility.yul\":9618:9623   */\n      dup2\n        /* \"#utility.yul\":9611:9623   */\n      swap1\n      pop\n        /* \"#utility.yul\":9554:9629   */\n      swap2\n      swap1\n      pop\n      jump\t// out\n        /* \"#utility.yul\":9635:9904   */\n    tag_261:\n        /* \"#utility.yul\":9745:9784   */\n      tag_413\n        /* \"#utility.yul\":9776:9783   */\n      dup4\n        /* \"#utility.yul\":9745:9784   */\n      tag_259\n      jump\t// in\n    tag_413:\n        /* \"#utility.yul\":9806:9897   */\n      tag_414\n        /* \"#utility.yul\":9855:9896   */\n      tag_415\n        /* \"#utility.yul\":9879:9895   */\n      dup3\n        /* \"#utility.yul\":9855:9896   */\n      tag_260\n      jump\t// in\n    tag_415:\n        /* \"#utility.yul\":9847:9853   */\n      dup5\n        /* \"#utility.yul\":9840:9844   */\n      dup5\n        /* \"#utility.yul\":9834:9845   */\n      sload\n        /* \"#utility.yul\":9806:9897   */\n      tag_257\n      jump\t// in\n    tag_414:\n        /* \"#utility.yul\":9800:9804   */\n      dup3\n        /* \"#utility.yul\":9793:9898   */\n      sstore\n        /* \"#utility.yul\":9711:9904   */\n      pop\n        /* \"#utility.yul\":9635:9904   */\n      pop\n      pop\n      pop\n      jump\t// out\n        /* \"#utility.yul\":9910:9983   */\n    tag_262:\n        /* \"#utility.yul\":9955:9958   */\n      0x00\n        /* \"#utility.yul\":9910:9983   */\n      swap1\n      jump\t// out\n        /* \"#utility.yul\":9989:10178   */\n    tag_263:\n        /* \"#utility.yul\":10066:10098   */\n      tag_418\n      tag_262\n      jump\t// in\n    tag_418:\n        /* \"#utility.yul\":10107:10172   */\n      tag_419\n        /* \"#utility.yul\":10165:10171   */\n      dup2\n        /* \"#utility.yul\":10157:10163   */\n      dup5\n        /* \"#utility.yul\":10151:10155   */\n      dup5\n        /* \"#utility.yul\":10107:10172   */\n      tag_261\n      jump\t// in\n    tag_419:\n        /* \"#utility.yul\":10042:10178   */\n      pop\n        /* \"#utility.yul\":9989:10178   */\n      pop\n      pop\n      jump\t// out\n        /* \"#utility.yul\":10184:10370   */\n    tag_264:\n        /* \"#utility.yul\":10244:10364   */\n    tag_421:\n        /* \"#utility.yul\":10261:10264   */\n      dup2\n        /* \"#utility.yul\":10254:10259   */\n      dup2\n        /* \"#utility.yul\":10251:10265   */\n      lt\n        /* \"#utility.yul\":10244:10364   */\n      iszero\n      tag_423\n      jumpi\n        /* \"#utility.yul\":10315:10354   */\n      tag_424\n        /* \"#utility.yul\":10352:10353   */\n      0x00\n        /* \"#utility.yul\":10345:10350   */\n      dup3\n        /* \"#utility.yul\":10315:10354   */\n      tag_263\n      jump\t// in\n    tag_424:\n        /* \"#utility.yul\":10288:10289   */\n      0x01\n        /* \"#utility.yul\":10281:10286   */\n      dup2\n        /* \"#utility.yul\":10277:10290   */\n      add\n        /* \"#utility.yul\":10268:10290   */\n      swap1\n      pop\n        /* \"#utility.yul\":10244:10364   */\n      jump(tag_421)\n    tag_423:\n        /* \"#utility.yul\":10184:10370   */\n      pop\n      pop\n      jump\t// out\n        /* \"#utility.yul\":10376:10919   */\n    tag_265:\n        /* \"#utility.yul\":10477:10479   */\n      0x1f\n        /* \"#utility.yul\":10472:10475   */\n      dup3\n        /* \"#utility.yul\":10469:10480   */\n      gt\n        /* \"#utility.yul\":10466:10912   */\n      iszero\n      tag_426\n      jumpi\n        /* \"#utility.yul\":10511:10549   */\n      tag_427\n        /* \"#utility.yul\":10543:10548   */\n      dup2\n        /* \"#utility.yul\":10511:10549   */\n      tag_254\n      jump\t// in\n    tag_427:\n        /* \"#utility.yul\":10595:10624   */\n      tag_428\n        /* \"#utility.yul\":10613:10623   */\n      dup5\n        /* \"#utility.yul\":10595:10624   */\n      tag_255\n      jump\t// in\n    tag_428:\n        /* \"#utility.yul\":10585:10593   */\n      dup2\n        /* \"#utility.yul\":10581:10625   */\n      add\n        /* \"#utility.yul\":10778:10780   */\n      0x20\n        /* \"#utility.yul\":10766:10776   */\n      dup6\n        /* \"#utility.yul\":10763:10781   */\n      lt\n        /* \"#utility.yul\":10760:10809   */\n      iszero\n      tag_429\n      jumpi\n        /* \"#utility.yul\":10799:10807   */\n      dup2\n        /* \"#utility.yul\":10784:10807   */\n      swap1\n      pop\n        /* \"#utility.yul\":10760:10809   */\n    tag_429:\n        /* \"#utility.yul\":10822:10902   */\n      tag_430\n        /* \"#utility.yul\":10878:10900   */\n      tag_431\n        /* \"#utility.yul\":10896:10899   */\n      dup6\n        /* \"#utility.yul\":10878:10900   */\n      tag_255\n      jump\t// in\n    tag_431:\n        /* \"#utility.yul\":10868:10876   */\n      dup4\n        /* \"#utility.yul\":10864:10901   */\n      add\n        /* \"#utility.yul\":10851:10862   */\n      dup3\n        /* \"#utility.yul\":10822:10902   */\n      tag_264\n      jump\t// in\n    tag_430:\n        /* \"#utility.yul\":10481:10912   */\n      pop\n      pop\n        /* \"#utility.yul\":10466:10912   */\n    tag_426:\n        /* \"#utility.yul\":10376:10919   */\n      pop\n      pop\n      pop\n      jump\t// out\n        /* \"#utility.yul\":10925:11042   */\n    tag_266:\n        /* \"#utility.yul\":10979:10987   */\n      0x00\n        /* \"#utility.yul\":11029:11034   */\n      dup3\n        /* \"#utility.yul\":11023:11027   */\n      dup3\n        /* \"#utility.yul\":11019:11035   */\n      shr\n        /* \"#utility.yul\":10998:11035   */\n      swap1\n      pop\n        /* \"#utility.yul\":10925:11042   */\n      swap3\n      swap2\n      pop\n      pop\n      jump\t// out\n        /* \"#utility.yul\":11048:11217   */\n    tag_267:\n        /* \"#utility.yul\":11092:11098   */\n      0x00\n        /* \"#utility.yul\":11125:11176   */\n      tag_434\n        /* \"#utility.yul\":11173:11174   */\n      0x00\n        /* \"#utility.yul\":11169:11175   */\n      not\n        /* \"#utility.yul\":11161:11166   */\n      dup5\n        /* \"#utility.yul\":11158:11159   */\n      0x08\n        /* \"#utility.yul\":11154:11167   */\n      mul\n        /* \"#utility.yul\":11125:11176   */\n      tag_266\n      jump\t// in\n    tag_434:\n        /* \"#utility.yul\":11121:11177   */\n      not\n        /* \"#utility.yul\":11206:11210   */\n      dup1\n        /* \"#utility.yul\":11200:11204   */\n      dup4\n        /* \"#utility.yul\":11196:11211   */\n      and\n        /* \"#utility.yul\":11186:11211   */\n      swap2\n      pop\n        /* \"#utility.yul\":11099:11217   */\n      pop\n        /* \"#utility.yul\":11048:11217   */\n      swap3\n      swap2\n      pop\n      pop\n      jump\t// out\n        /* \"#utility.yul\":11222:11517   */\n    tag_268:\n        /* \"#utility.yul\":11298:11302   */\n      0x00\n        /* \"#utility.yul\":11444:11473   */\n      tag_436\n        /* \"#utility.yul\":11469:11472   */\n      dup4\n        /* \"#utility.yul\":11463:11467   */\n      dup4\n        /* \"#utility.yul\":11444:11473   */\n      tag_267\n      jump\t// in\n    tag_436:\n        /* \"#utility.yul\":11436:11473   */\n      swap2\n      pop\n        /* \"#utility.yul\":11506:11509   */\n      dup3\n        /* \"#utility.yul\":11503:11504   */\n      0x02\n        /* \"#utility.yul\":11499:11510   */\n      mul\n        /* \"#utility.yul\":11493:11497   */\n      dup3\n        /* \"#utility.yul\":11490:11511   */\n      or\n        /* \"#utility.yul\":11482:11511   */\n      swap1\n      pop\n        /* \"#utility.yul\":11222:11517   */\n      swap3\n      swap2\n      pop\n      pop\n      jump\t// out\n        /* \"#utility.yul\":11522:12917   */\n    tag_44:\n        /* \"#utility.yul\":11639:11676   */\n      tag_438\n        /* \"#utility.yul\":11672:11675   */\n      dup3\n        /* \"#utility.yul\":11639:11676   */\n      tag_242\n      jump\t// in\n    tag_438:\n        /* \"#utility.yul\":11741:11759   */\n      0xffffffffffffffff\n        /* \"#utility.yul\":11733:11739   */\n      dup2\n        /* \"#utility.yul\":11730:11760   */\n      gt\n        /* \"#utility.yul\":11727:11783   */\n      iszero\n      tag_439\n      jumpi\n        /* \"#utility.yul\":11763:11781   */\n      tag_440\n      tag_231\n      jump\t// in\n    tag_440:\n        /* \"#utility.yul\":11727:11783   */\n    tag_439:\n        /* \"#utility.yul\":11807:11845   */\n      tag_441\n        /* \"#utility.yul\":11839:11843   */\n      dup3\n        /* \"#utility.yul\":11833:11844   */\n      sload\n        /* \"#utility.yul\":11807:11845   */\n      tag_54\n      jump\t// in\n    tag_441:\n        /* \"#utility.yul\":11892:11959   */\n      tag_442\n        /* \"#utility.yul\":11952:11958   */\n      dup3\n        /* \"#utility.yul\":11944:11950   */\n      dup3\n        /* \"#utility.yul\":11938:11942   */\n      dup6\n        /* \"#utility.yul\":11892:11959   */\n      tag_265\n      jump\t// in\n    tag_442:\n        /* \"#utility.yul\":11986:11987   */\n      0x00\n        /* \"#utility.yul\":12010:12014   */\n      0x20\n        /* \"#utility.yul\":11997:12014   */\n      swap1\n      pop\n        /* \"#utility.yul\":12042:12044   */\n      0x1f\n        /* \"#utility.yul\":12034:12040   */\n      dup4\n        /* \"#utility.yul\":12031:12045   */\n      gt\n        /* \"#utility.yul\":12059:12060   */\n      0x01\n        /* \"#utility.yul\":12054:12672   */\n      dup2\n      eq\n      tag_444\n      jumpi\n        /* \"#utility.yul\":12716:12717   */\n      0x00\n        /* \"#utility.yul\":12733:12739   */\n      dup5\n        /* \"#utility.yul\":12730:12807   */\n      iszero\n      tag_445\n      jumpi\n        /* \"#utility.yul\":12782:12791   */\n      dup3\n        /* \"#utility.yul\":12777:12780   */\n      dup8\n        /* \"#utility.yul\":12773:12792   */\n      add\n        /* \"#utility.yul\":12767:12793   */\n      mload\n        /* \"#utility.yul\":12758:12793   */\n      swap1\n      pop\n        /* \"#utility.yul\":12730:12807   */\n    tag_445:\n        /* \"#utility.yul\":12833:12900   */\n      tag_446\n        /* \"#utility.yul\":12893:12899   */\n      dup6\n        /* \"#utility.yul\":12886:12891   */\n      dup3\n        /* \"#utility.yul\":12833:12900   */\n      tag_268\n      jump\t// in\n    tag_446:\n        /* \"#utility.yul\":12827:12831   */\n      dup7\n        /* \"#utility.yul\":12820:12901   */\n      sstore\n        /* \"#utility.yul\":12689:12911   */\n      pop\n        /* \"#utility.yul\":12024:12911   */\n      jump(tag_443)\n        /* \"#utility.yul\":12054:12672   */\n    tag_444:\n        /* \"#utility.yul\":12106:12110   */\n      0x1f\n        /* \"#utility.yul\":12102:12111   */\n      not\n        /* \"#utility.yul\":12094:12100   */\n      dup5\n        /* \"#utility.yul\":12090:12112   */\n      and\n        /* \"#utility.yul\":12140:12177   */\n      tag_447\n        /* \"#utility.yul\":12172:12176   */\n      dup7\n        /* \"#utility.yul\":12140:12177   */\n      tag_254\n      jump\t// in\n    tag_447:\n        /* \"#utility.yul\":12199:12200   */\n      0x00\n        /* \"#utility.yul\":12213:12421   */\n    tag_448:\n        /* \"#utility.yul\":12227:12234   */\n      dup3\n        /* \"#utility.yul\":12224:12225   */\n      dup2\n        /* \"#utility.yul\":12221:12235   */\n      lt\n        /* \"#utility.yul\":12213:12421   */\n      iszero\n      tag_450\n      jumpi\n        /* \"#utility.yul\":12306:12315   */\n      dup5\n        /* \"#utility.yul\":12301:12304   */\n      dup10\n        /* \"#utility.yul\":12297:12316   */\n      add\n        /* \"#utility.yul\":12291:12317   */\n      mload\n        /* \"#utility.yul\":12283:12289   */\n      dup3\n        /* \"#utility.yul\":12276:12318   */\n      sstore\n        /* \"#utility.yul\":12357:12358   */\n      0x01\n        /* \"#utility.yul\":12349:12355   */\n      dup3\n        /* \"#utility.yul\":12345:12359   */\n      add\n        /* \"#utility.yul\":12335:12359   */\n      swap2\n      pop\n        /* \"#utility.yul\":12404:12406   */\n      0x20\n        /* \"#utility.yul\":12393:12402   */\n      dup6\n        /* \"#utility.yul\":12389:12407   */\n      add\n        /* \"#utility.yul\":12376:12407   */\n      swap5\n      pop\n        /* \"#utility.yul\":12250:12254   */\n      0x20\n        /* \"#utility.yul\":12247:12248   */\n      dup2\n        /* \"#utility.yul\":12243:12255   */\n      add\n        /* \"#utility.yul\":12238:12255   */\n      swap1\n      pop\n        /* \"#utility.yul\":12213:12421   */\n      jump(tag_448)\n    tag_450:\n        /* \"#utility.yul\":12449:12455   */\n      dup7\n        /* \"#utility.yul\":12440:12447   */\n      dup4\n        /* \"#utility.yul\":12437:12456   */\n      lt\n        /* \"#utility.yul\":12434:12613   */\n      iszero\n      tag_451\n      jumpi\n        /* \"#utility.yul\":12507:12516   */\n      dup5\n        /* \"#utility.yul\":12502:12505   */\n      dup10\n        /* \"#utility.yul\":12498:12517   */\n      add\n        /* \"#utility.yul\":12492:12518   */\n      mload\n        /* \"#utility.yul\":12550:12598   */\n      tag_452\n        /* \"#utility.yul\":12592:12596   */\n      0x1f\n        /* \"#utility.yul\":12584:12590   */\n      dup10\n        /* \"#utility.yul\":12580:12597   */\n      and\n        /* \"#utility.yul\":12569:12578   */\n      dup3\n        /* \"#utility.yul\":12550:12598   */\n      tag_267\n      jump\t// in\n    tag_452:\n        /* \"#utility.yul\":12542:12548   */\n      dup4\n        /* \"#utility.yul\":12535:12599   */\n      sstore\n        /* \"#utility.yul\":12457:12613   */\n      pop\n        /* \"#utility.yul\":12434:12613   */\n    tag_451:\n        /* \"#utility.yul\":12659:12660   */\n      0x01\n        /* \"#utility.yul\":12655:12656   */\n      0x02\n        /* \"#utility.yul\":12647:12653   */\n      dup9\n        /* \"#utility.yul\":12643:12657   */\n      mul\n        /* \"#utility.yul\":12639:12661   */\n      add\n        /* \"#utility.yul\":12633:12637   */\n      dup9\n        /* \"#utility.yul\":12626:12662   */\n      sstore\n        /* \"#utility.yul\":12061:12672   */\n      pop\n      pop\n      pop\n        /* \"#utility.yul\":12024:12911   */\n    tag_443:\n      pop\n        /* \"#utility.yul\":11614:12917   */\n      pop\n      pop\n      pop\n        /* \"#utility.yul\":11522:12917   */\n      pop\n      pop\n      jump\t// out\n        /* \"#utility.yul\":12923:13095   */\n    tag_269:\n        /* \"#utility.yul\":13063:13087   */\n      0x4d7573742062652070726f706f736564206f776e657200000000000000000000\n        /* \"#utility.yul\":13059:13060   */\n      0x00\n        /* \"#utility.yul\":13051:13057   */\n      dup3\n        /* \"#utility.yul\":13047:13061   */\n      add\n        /* \"#utility.yul\":13040:13088   */\n      mstore\n        /* \"#utility.yul\":12923:13095   */\n      pop\n      jump\t// out\n        /* \"#utility.yul\":13101:13467   */\n    tag_270:\n        /* \"#utility.yul\":13243:13246   */\n      0x00\n        /* \"#utility.yul\":13264:13331   */\n      tag_455\n        /* \"#utility.yul\":13328:13330   */\n      0x16\n        /* \"#utility.yul\":13323:13326   */\n      dup4\n        /* \"#utility.yul\":13264:13331   */\n      tag_243\n      jump\t// in\n    tag_455:\n        /* \"#utility.yul\":13257:13331   */\n      swap2\n      pop\n        /* \"#utility.yul\":13340:13433   */\n      tag_456\n        /* \"#utility.yul\":13429:13432   */\n      dup3\n        /* \"#utility.yul\":13340:13433   */\n      tag_269\n      jump\t// in\n    tag_456:\n        /* \"#utility.yul\":13458:13460   */\n      0x20\n        /* \"#utility.yul\":13453:13456   */\n      dup3\n        /* \"#utility.yul\":13449:13461   */\n      add\n        /* \"#utility.yul\":13442:13461   */\n      swap1\n      pop\n        /* \"#utility.yul\":13101:13467   */\n      swap2\n      swap1\n      pop\n      jump\t// out\n        /* \"#utility.yul\":13473:13892   */\n    tag_62:\n        /* \"#utility.yul\":13639:13643   */\n      0x00\n        /* \"#utility.yul\":13677:13679   */\n      0x20\n        /* \"#utility.yul\":13666:13675   */\n      dup3\n        /* \"#utility.yul\":13662:13680   */\n      add\n        /* \"#utility.yul\":13654:13680   */\n      swap1\n      pop\n        /* \"#utility.yul\":13726:13735   */\n      dup2\n        /* \"#utility.yul\":13720:13724   */\n      dup2\n        /* \"#utility.yul\":13716:13736   */\n      sub\n        /* \"#utility.yul\":13712:13713   */\n      0x00\n        /* \"#utility.yul\":13701:13710   */\n      dup4\n        /* \"#utility.yul\":13697:13714   */\n      add\n        /* \"#utility.yul\":13690:13737   */\n      mstore\n        /* \"#utility.yul\":13754:13885   */\n      tag_458\n        /* \"#utility.yul\":13880:13884   */\n      dup2\n        /* \"#utility.yul\":13754:13885   */\n      tag_270\n      jump\t// in\n    tag_458:\n        /* \"#utility.yul\":13746:13885   */\n      swap1\n      pop\n        /* \"#utility.yul\":13473:13892   */\n      swap2\n      swap1\n      pop\n      jump\t// out\n        /* \"#utility.yul\":13898:14041   */\n    tag_271:\n        /* \"#utility.yul\":13955:13960   */\n      0x00\n        /* \"#utility.yul\":13986:13992   */\n      dup2\n        /* \"#utility.yul\":13980:13993   */\n      mload\n        /* \"#utility.yul\":13971:13993   */\n      swap1\n      pop\n        /* \"#utility.yul\":14002:14035   */\n      tag_460\n        /* \"#utility.yul\":14029:14034   */\n      dup2\n        /* \"#utility.yul\":14002:14035   */\n      tag_239\n      jump\t// in\n    tag_460:\n        /* \"#utility.yul\":13898:14041   */\n      swap3\n      swap2\n      pop\n      pop\n      jump\t// out\n        /* \"#utility.yul\":14047:14398   */\n    tag_74:\n        /* \"#utility.yul\":14117:14123   */\n      0x00\n        /* \"#utility.yul\":14166:14168   */\n      0x20\n        /* \"#utility.yul\":14154:14163   */\n      dup3\n        /* \"#utility.yul\":14145:14152   */\n      dup5\n        /* \"#utility.yul\":14141:14164   */\n      sub\n        /* \"#utility.yul\":14137:14169   */\n      slt\n        /* \"#utility.yul\":14134:14253   */\n      iszero\n      tag_462\n      jumpi\n        /* \"#utility.yul\":14172:14251   */\n      tag_463\n      tag_223\n      jump\t// in\n    tag_463:\n        /* \"#utility.yul\":14134:14253   */\n    tag_462:\n        /* \"#utility.yul\":14292:14293   */\n      0x00\n        /* \"#utility.yul\":14317:14381   */\n      tag_464\n        /* \"#utility.yul\":14373:14380   */\n      dup5\n        /* \"#utility.yul\":14364:14370   */\n      dup3\n        /* \"#utility.yul\":14353:14362   */\n      dup6\n        /* \"#utility.yul\":14349:14371   */\n      add\n        /* \"#utility.yul\":14317:14381   */\n      tag_271\n      jump\t// in\n    tag_464:\n        /* \"#utility.yul\":14307:14381   */\n      swap2\n      pop\n        /* \"#utility.yul\":14263:14391   */\n      pop\n        /* \"#utility.yul\":14047:14398   */\n      swap3\n      swap2\n      pop\n      pop\n      jump\t// out\n        /* \"#utility.yul\":14404:14522   */\n    tag_272:\n        /* \"#utility.yul\":14491:14515   */\n      tag_466\n        /* \"#utility.yul\":14509:14514   */\n      dup2\n        /* \"#utility.yul\":14491:14515   */\n      tag_238\n      jump\t// in\n    tag_466:\n        /* \"#utility.yul\":14486:14489   */\n      dup3\n        /* \"#utility.yul\":14479:14516   */\n      mstore\n        /* \"#utility.yul\":14404:14522   */\n      pop\n      pop\n      jump\t// out\n        /* \"#utility.yul\":14528:14860   */\n    tag_76:\n        /* \"#utility.yul\":14649:14653   */\n      0x00\n        /* \"#utility.yul\":14687:14689   */\n      0x40\n        /* \"#utility.yul\":14676:14685   */\n      dup3\n        /* \"#utility.yul\":14672:14690   */\n      add\n        /* \"#utility.yul\":14664:14690   */\n      swap1\n      pop\n        /* \"#utility.yul\":14700:14771   */\n      tag_468\n        /* \"#utility.yul\":14768:14769   */\n      0x00\n        /* \"#utility.yul\":14757:14766   */\n      dup4\n        /* \"#utility.yul\":14753:14770   */\n      add\n        /* \"#utility.yul\":14744:14750   */\n      dup6\n        /* \"#utility.yul\":14700:14771   */\n      tag_248\n      jump\t// in\n    tag_468:\n        /* \"#utility.yul\":14781:14853   */\n      tag_469\n        /* \"#utility.yul\":14849:14851   */\n      0x20\n        /* \"#utility.yul\":14838:14847   */\n      dup4\n        /* \"#utility.yul\":14834:14852   */\n      add\n        /* \"#utility.yul\":14825:14831   */\n      dup5\n        /* \"#utility.yul\":14781:14853   */\n      tag_272\n      jump\t// in\n    tag_469:\n        /* \"#utility.yul\":14528:14860   */\n      swap4\n      swap3\n      pop\n      pop\n      pop\n      jump\t// out\n        /* \"#utility.yul\":14866:14956   */\n    tag_273:\n        /* \"#utility.yul\":14900:14907   */\n      0x00\n        /* \"#utility.yul\":14943:14948   */\n      dup2\n        /* \"#utility.yul\":14936:14949   */\n      iszero\n        /* \"#utility.yul\":14929:14950   */\n      iszero\n        /* \"#utility.yul\":14918:14950   */\n      swap1\n      pop\n        /* \"#utility.yul\":14866:14956   */\n      swap2\n      swap1\n      pop\n      jump\t// out\n        /* \"#utility.yul\":14962:15078   */\n    tag_274:\n        /* \"#utility.yul\":15032:15053   */\n      tag_472\n        /* \"#utility.yul\":15047:15052   */\n      dup2\n        /* \"#utility.yul\":15032:15053   */\n      tag_273\n      jump\t// in\n    tag_472:\n        /* \"#utility.yul\":15025:15030   */\n      dup2\n        /* \"#utility.yul\":15022:15054   */\n      eq\n        /* \"#utility.yul\":15012:15072   */\n      tag_473\n      jumpi\n        /* \"#utility.yul\":15068:15069   */\n      0x00\n        /* \"#utility.yul\":15065:15066   */\n      dup1\n        /* \"#utility.yul\":15058:15070   */\n      revert\n        /* \"#utility.yul\":15012:15072   */\n    tag_473:\n        /* \"#utility.yul\":14962:15078   */\n      pop\n      jump\t// out\n        /* \"#utility.yul\":15084:15221   */\n    tag_275:\n        /* \"#utility.yul\":15138:15143   */\n      0x00\n        /* \"#utility.yul\":15169:15175   */\n      dup2\n        /* \"#utility.yul\":15163:15176   */\n      mload\n        /* \"#utility.yul\":15154:15176   */\n      swap1\n      pop\n        /* \"#utility.yul\":15185:15215   */\n      tag_475\n        /* \"#utility.yul\":15209:15214   */\n      dup2\n        /* \"#utility.yul\":15185:15215   */\n      tag_274\n      jump\t// in\n    tag_475:\n        /* \"#utility.yul\":15084:15221   */\n      swap3\n      swap2\n      pop\n      pop\n      jump\t// out\n        /* \"#utility.yul\":15227:15572   */\n    tag_80:\n        /* \"#utility.yul\":15294:15300   */\n      0x00\n        /* \"#utility.yul\":15343:15345   */\n      0x20\n        /* \"#utility.yul\":15331:15340   */\n      dup3\n        /* \"#utility.yul\":15322:15329   */\n      dup5\n        /* \"#utility.yul\":15318:15341   */\n      sub\n        /* \"#utility.yul\":15314:15346   */\n      slt\n        /* \"#utility.yul\":15311:15430   */\n      iszero\n      tag_477\n      jumpi\n        /* \"#utility.yul\":15349:15428   */\n      tag_478\n      tag_223\n      jump\t// in\n    tag_478:\n        /* \"#utility.yul\":15311:15430   */\n    tag_477:\n        /* \"#utility.yul\":15469:15470   */\n      0x00\n        /* \"#utility.yul\":15494:15555   */\n      tag_479\n        /* \"#utility.yul\":15547:15554   */\n      dup5\n        /* \"#utility.yul\":15538:15544   */\n      dup3\n        /* \"#utility.yul\":15527:15536   */\n      dup6\n        /* \"#utility.yul\":15523:15545   */\n      add\n        /* \"#utility.yul\":15494:15555   */\n      tag_275\n      jump\t// in\n    tag_479:\n        /* \"#utility.yul\":15484:15555   */\n      swap2\n      pop\n        /* \"#utility.yul\":15440:15565   */\n      pop\n        /* \"#utility.yul\":15227:15572   */\n      swap3\n      swap2\n      pop\n      pop\n      jump\t// out\n        /* \"#utility.yul\":15578:15746   */\n    tag_276:\n        /* \"#utility.yul\":15718:15738   */\n      0x556e61626c6520746f207472616e736665720000000000000000000000000000\n        /* \"#utility.yul\":15714:15715   */\n      0x00\n        /* \"#utility.yul\":15706:15712   */\n      dup3\n        /* \"#utility.yul\":15702:15716   */\n      add\n        /* \"#utility.yul\":15695:15739   */\n      mstore\n        /* \"#utility.yul\":15578:15746   */\n      pop\n      jump\t// out\n        /* \"#utility.yul\":15752:16118   */\n    tag_277:\n        /* \"#utility.yul\":15894:15897   */\n      0x00\n        /* \"#utility.yul\":15915:15982   */\n      tag_482\n        /* \"#utility.yul\":15979:15981   */\n      0x12\n        /* \"#utility.yul\":15974:15977   */\n      dup4\n        /* \"#utility.yul\":15915:15982   */\n      tag_243\n      jump\t// in\n    tag_482:\n        /* \"#utility.yul\":15908:15982   */\n      swap2\n      pop\n        /* \"#utility.yul\":15991:16084   */\n      tag_483\n        /* \"#utility.yul\":16080:16083   */\n      dup3\n        /* \"#utility.yul\":15991:16084   */\n      tag_276\n      jump\t// in\n    tag_483:\n        /* \"#utility.yul\":16109:16111   */\n      0x20\n        /* \"#utility.yul\":16104:16107   */\n      dup3\n        /* \"#utility.yul\":16100:16112   */\n      add\n        /* \"#utility.yul\":16093:16112   */\n      swap1\n      pop\n        /* \"#utility.yul\":15752:16118   */\n      swap2\n      swap1\n      pop\n      jump\t// out\n        /* \"#utility.yul\":16124:16543   */\n    tag_83:\n        /* \"#utility.yul\":16290:16294   */\n      0x00\n        /* \"#utility.yul\":16328:16330   */\n      0x20\n        /* \"#utility.yul\":16317:16326   */\n      dup3\n        /* \"#utility.yul\":16313:16331   */\n      add\n        /* \"#utility.yul\":16305:16331   */\n      swap1\n      pop\n        /* \"#utility.yul\":16377:16386   */\n      dup2\n        /* \"#utility.yul\":16371:16375   */\n      dup2\n        /* \"#utility.yul\":16367:16387   */\n      sub\n        /* \"#utility.yul\":16363:16364   */\n      0x00\n        /* \"#utility.yul\":16352:16361   */\n      dup4\n        /* \"#utility.yul\":16348:16365   */\n      add\n        /* \"#utility.yul\":16341:16388   */\n      mstore\n        /* \"#utility.yul\":16405:16536   */\n      tag_485\n        /* \"#utility.yul\":16531:16535   */\n      dup2\n        /* \"#utility.yul\":16405:16536   */\n      tag_277\n      jump\t// in\n    tag_485:\n        /* \"#utility.yul\":16397:16536   */\n      swap1\n      pop\n        /* \"#utility.yul\":16124:16543   */\n      swap2\n      swap1\n      pop\n      jump\t// out\n        /* \"#utility.yul\":16549:16721   */\n    tag_278:\n        /* \"#utility.yul\":16689:16713   */\n      0x4f6e6c792063616c6c61626c65206279206f776e657200000000000000000000\n        /* \"#utility.yul\":16685:16686   */\n      0x00\n        /* \"#utility.yul\":16677:16683   */\n      dup3\n        /* \"#utility.yul\":16673:16687   */\n      add\n        /* \"#utility.yul\":16666:16714   */\n      mstore\n        /* \"#utility.yul\":16549:16721   */\n      pop\n      jump\t// out\n        /* \"#utility.yul\":16727:17093   */\n    tag_279:\n        /* \"#utility.yul\":16869:16872   */\n      0x00\n        /* \"#utility.yul\":16890:16957   */\n      tag_488\n        /* \"#utility.yul\":16954:16956   */\n      0x16\n        /* \"#utility.yul\":16949:16952   */\n      dup4\n        /* \"#utility.yul\":16890:16957   */\n      tag_243\n      jump\t// in\n    tag_488:\n        /* \"#utility.yul\":16883:16957   */\n      swap2\n      pop\n        /* \"#utility.yul\":16966:17059   */\n      tag_489\n        /* \"#utility.yul\":17055:17058   */\n      dup3\n        /* \"#utility.yul\":16966:17059   */\n      tag_278\n      jump\t// in\n    tag_489:\n        /* \"#utility.yul\":17084:17086   */\n      0x20\n        /* \"#utility.yul\":17079:17082   */\n      dup3\n        /* \"#utility.yul\":17075:17087   */\n      add\n        /* \"#utility.yul\":17068:17087   */\n      swap1\n      pop\n        /* \"#utility.yul\":16727:17093   */\n      swap2\n      swap1\n      pop\n      jump\t// out\n        /* \"#utility.yul\":17099:17518   */\n    tag_105:\n        /* \"#utility.yul\":17265:17269   */\n      0x00\n        /* \"#utility.yul\":17303:17305   */\n      0x20\n        /* \"#utility.yul\":17292:17301   */\n      dup3\n        /* \"#utility.yul\":17288:17306   */\n      add\n        /* \"#utility.yul\":17280:17306   */\n      swap1\n      pop\n        /* \"#utility.yul\":17352:17361   */\n      dup2\n        /* \"#utility.yul\":17346:17350   */\n      dup2\n        /* \"#utility.yul\":17342:17362   */\n      sub\n        /* \"#utility.yul\":17338:17339   */\n      0x00\n        /* \"#utility.yul\":17327:17336   */\n      dup4\n        /* \"#utility.yul\":17323:17340   */\n      add\n        /* \"#utility.yul\":17316:17363   */\n      mstore\n        /* \"#utility.yul\":17380:17511   */\n      tag_491\n        /* \"#utility.yul\":17506:17510   */\n      dup2\n        /* \"#utility.yul\":17380:17511   */\n      tag_279\n      jump\t// in\n    tag_491:\n        /* \"#utility.yul\":17372:17511   */\n      swap1\n      pop\n        /* \"#utility.yul\":17099:17518   */\n      swap2\n      swap1\n      pop\n      jump\t// out\n        /* \"#utility.yul\":17524:17697   */\n    tag_280:\n        /* \"#utility.yul\":17664:17689   */\n      0x43616e6e6f74207472616e7366657220746f2073656c66000000000000000000\n        /* \"#utility.yul\":17660:17661   */\n      0x00\n        /* \"#utility.yul\":17652:17658   */\n      dup3\n        /* \"#utility.yul\":17648:17662   */\n      add\n        /* \"#utility.yul\":17641:17690   */\n      mstore\n        /* \"#utility.yul\":17524:17697   */\n      pop\n      jump\t// out\n        /* \"#utility.yul\":17703:18069   */\n    tag_281:\n        /* \"#utility.yul\":17845:17848   */\n      0x00\n        /* \"#utility.yul\":17866:17933   */\n      tag_494\n        /* \"#utility.yul\":17930:17932   */\n      0x17\n        /* \"#utility.yul\":17925:17928   */\n      dup4\n        /* \"#utility.yul\":17866:17933   */\n      tag_243\n      jump\t// in\n    tag_494:\n        /* \"#utility.yul\":17859:17933   */\n      swap2\n      pop\n        /* \"#utility.yul\":17942:18035   */\n      tag_495\n        /* \"#utility.yul\":18031:18034   */\n      dup3\n        /* \"#utility.yul\":17942:18035   */\n      tag_280\n      jump\t// in\n    tag_495:\n        /* \"#utility.yul\":18060:18062   */\n      0x20\n        /* \"#utility.yul\":18055:18058   */\n      dup3\n        /* \"#utility.yul\":18051:18063   */\n      add\n        /* \"#utility.yul\":18044:18063   */\n      swap1\n      pop\n        /* \"#utility.yul\":17703:18069   */\n      swap2\n      swap1\n      pop\n      jump\t// out\n        /* \"#utility.yul\":18075:18494   */\n    tag_110:\n        /* \"#utility.yul\":18241:18245   */\n      0x00\n        /* \"#utility.yul\":18279:18281   */\n      0x20\n        /* \"#utility.yul\":18268:18277   */\n      dup3\n        /* \"#utility.yul\":18264:18282   */\n      add\n        /* \"#utility.yul\":18256:18282   */\n      swap1\n      pop\n        /* \"#utility.yul\":18328:18337   */\n      dup2\n        /* \"#utility.yul\":18322:18326   */\n      dup2\n        /* \"#utility.yul\":18318:18338   */\n      sub\n        /* \"#utility.yul\":18314:18315   */\n      0x00\n        /* \"#utility.yul\":18303:18312   */\n      dup4\n        /* \"#utility.yul\":18299:18316   */\n      add\n        /* \"#utility.yul\":18292:18339   */\n      mstore\n        /* \"#utility.yul\":18356:18487   */\n      tag_497\n        /* \"#utility.yul\":18482:18486   */\n      dup2\n        /* \"#utility.yul\":18356:18487   */\n      tag_281\n      jump\t// in\n    tag_497:\n        /* \"#utility.yul\":18348:18487   */\n      swap1\n      pop\n        /* \"#utility.yul\":18075:18494   */\n      swap2\n      swap1\n      pop\n      jump\t// out\n        /* \"#utility.yul\":18500:18680   */\n    tag_282:\n        /* \"#utility.yul\":18548:18625   */\n      0x4e487b7100000000000000000000000000000000000000000000000000000000\n        /* \"#utility.yul\":18545:18546   */\n      0x00\n        /* \"#utility.yul\":18538:18626   */\n      mstore\n        /* \"#utility.yul\":18645:18649   */\n      0x11\n        /* \"#utility.yul\":18642:18643   */\n      0x04\n        /* \"#utility.yul\":18635:18650   */\n      mstore\n        /* \"#utility.yul\":18669:18673   */\n      0x24\n        /* \"#utility.yul\":18666:18667   */\n      0x00\n        /* \"#utility.yul\":18659:18674   */\n      revert\n        /* \"#utility.yul\":18686:18877   */\n    tag_122:\n        /* \"#utility.yul\":18726:18729   */\n      0x00\n        /* \"#utility.yul\":18745:18765   */\n      tag_500\n        /* \"#utility.yul\":18763:18764   */\n      dup3\n        /* \"#utility.yul\":18745:18765   */\n      tag_238\n      jump\t// in\n    tag_500:\n        /* \"#utility.yul\":18740:18765   */\n      swap2\n      pop\n        /* \"#utility.yul\":18779:18799   */\n      tag_501\n        /* \"#utility.yul\":18797:18798   */\n      dup4\n        /* \"#utility.yul\":18779:18799   */\n      tag_238\n      jump\t// in\n    tag_501:\n        /* \"#utility.yul\":18774:18799   */\n      swap3\n      pop\n        /* \"#utility.yul\":18822:18823   */\n      dup3\n        /* \"#utility.yul\":18819:18820   */\n      dup3\n        /* \"#utility.yul\":18815:18824   */\n      add\n        /* \"#utility.yul\":18808:18824   */\n      swap1\n      pop\n        /* \"#utility.yul\":18843:18846   */\n      dup1\n        /* \"#utility.yul\":18840:18841   */\n      dup3\n        /* \"#utility.yul\":18837:18847   */\n      gt\n        /* \"#utility.yul\":18834:18870   */\n      iszero\n      tag_502\n      jumpi\n        /* \"#utility.yul\":18850:18868   */\n      tag_503\n      tag_282\n      jump\t// in\n    tag_503:\n        /* \"#utility.yul\":18834:18870   */\n    tag_502:\n        /* \"#utility.yul\":18686:18877   */\n      swap3\n      swap2\n      pop\n      pop\n      jump\t// out\n        /* \"#utility.yul\":18883:19032   */\n    tag_283:\n        /* \"#utility.yul\":18919:18926   */\n      0x00\n        /* \"#utility.yul\":18959:19025   */\n      0xffffffff00000000000000000000000000000000000000000000000000000000\n        /* \"#utility.yul\":18952:18957   */\n      dup3\n        /* \"#utility.yul\":18948:19026   */\n      and\n        /* \"#utility.yul\":18937:19026   */\n      swap1\n      pop\n        /* \"#utility.yul\":18883:19032   */\n      swap2\n      swap1\n      pop\n      jump\t// out\n        /* \"#utility.yul\":19038:19153   */\n    tag_284:\n        /* \"#utility.yul\":19123:19146   */\n      tag_506\n        /* \"#utility.yul\":19140:19145   */\n      dup2\n        /* \"#utility.yul\":19123:19146   */\n      tag_283\n      jump\t// in\n    tag_506:\n        /* \"#utility.yul\":19118:19121   */\n      dup3\n        /* \"#utility.yul\":19111:19147   */\n      mstore\n        /* \"#utility.yul\":19038:19153   */\n      pop\n      pop\n      jump\t// out\n        /* \"#utility.yul\":19159:19257   */\n    tag_285:\n        /* \"#utility.yul\":19210:19216   */\n      0x00\n        /* \"#utility.yul\":19244:19249   */\n      dup2\n        /* \"#utility.yul\":19238:19250   */\n      mload\n        /* \"#utility.yul\":19228:19250   */\n      swap1\n      pop\n        /* \"#utility.yul\":19159:19257   */\n      swap2\n      swap1\n      pop\n      jump\t// out\n        /* \"#utility.yul\":19263:19431   */\n    tag_286:\n        /* \"#utility.yul\":19346:19357   */\n      0x00\n        /* \"#utility.yul\":19380:19386   */\n      dup3\n        /* \"#utility.yul\":19375:19378   */\n      dup3\n        /* \"#utility.yul\":19368:19387   */\n      mstore\n        /* \"#utility.yul\":19420:19424   */\n      0x20\n        /* \"#utility.yul\":19415:19418   */\n      dup3\n        /* \"#utility.yul\":19411:19425   */\n      add\n        /* \"#utility.yul\":19396:19425   */\n      swap1\n      pop\n        /* \"#utility.yul\":19263:19431   */\n      swap3\n      swap2\n      pop\n      pop\n      jump\t// out\n        /* \"#utility.yul\":19437:19810   */\n    tag_287:\n        /* \"#utility.yul\":19523:19526   */\n      0x00\n        /* \"#utility.yul\":19551:19589   */\n      tag_510\n        /* \"#utility.yul\":19583:19588   */\n      dup3\n        /* \"#utility.yul\":19551:19589   */\n      tag_285\n      jump\t// in\n    tag_510:\n        /* \"#utility.yul\":19605:19675   */\n      tag_511\n        /* \"#utility.yul\":19668:19674   */\n      dup2\n        /* \"#utility.yul\":19663:19666   */\n      dup6\n        /* \"#utility.yul\":19605:19675   */\n      tag_286\n      jump\t// in\n    tag_511:\n        /* \"#utility.yul\":19598:19675   */\n      swap4\n      pop\n        /* \"#utility.yul\":19684:19749   */\n      tag_512\n        /* \"#utility.yul\":19742:19748   */\n      dup2\n        /* \"#utility.yul\":19737:19740   */\n      dup6\n        /* \"#utility.yul\":19730:19734   */\n      0x20\n        /* \"#utility.yul\":19723:19728   */\n      dup7\n        /* \"#utility.yul\":19719:19735   */\n      add\n        /* \"#utility.yul\":19684:19749   */\n      tag_244\n      jump\t// in\n    tag_512:\n        /* \"#utility.yul\":19774:19803   */\n      tag_513\n        /* \"#utility.yul\":19796:19802   */\n      dup2\n        /* \"#utility.yul\":19774:19803   */\n      tag_230\n      jump\t// in\n    tag_513:\n        /* \"#utility.yul\":19769:19772   */\n      dup5\n        /* \"#utility.yul\":19765:19804   */\n      add\n        /* \"#utility.yul\":19758:19804   */\n      swap2\n      pop\n        /* \"#utility.yul\":19527:19810   */\n      pop\n        /* \"#utility.yul\":19437:19810   */\n      swap3\n      swap2\n      pop\n      pop\n      jump\t// out\n        /* \"#utility.yul\":19816:20896   */\n    tag_124:\n        /* \"#utility.yul\":20121:20125   */\n      0x00\n        /* \"#utility.yul\":20159:20162   */\n      0x0100\n        /* \"#utility.yul\":20148:20157   */\n      dup3\n        /* \"#utility.yul\":20144:20163   */\n      add\n        /* \"#utility.yul\":20136:20163   */\n      swap1\n      pop\n        /* \"#utility.yul\":20173:20244   */\n      tag_515\n        /* \"#utility.yul\":20241:20242   */\n      0x00\n        /* \"#utility.yul\":20230:20239   */\n      dup4\n        /* \"#utility.yul\":20226:20243   */\n      add\n        /* \"#utility.yul\":20217:20223   */\n      dup12\n        /* \"#utility.yul\":20173:20244   */\n      tag_248\n      jump\t// in\n    tag_515:\n        /* \"#utility.yul\":20254:20326   */\n      tag_516\n        /* \"#utility.yul\":20322:20324   */\n      0x20\n        /* \"#utility.yul\":20311:20320   */\n      dup4\n        /* \"#utility.yul\":20307:20325   */\n      add\n        /* \"#utility.yul\":20298:20304   */\n      dup11\n        /* \"#utility.yul\":20254:20326   */\n      tag_272\n      jump\t// in\n    tag_516:\n        /* \"#utility.yul\":20336:20408   */\n      tag_517\n        /* \"#utility.yul\":20404:20406   */\n      0x40\n        /* \"#utility.yul\":20393:20402   */\n      dup4\n        /* \"#utility.yul\":20389:20407   */\n      add\n        /* \"#utility.yul\":20380:20386   */\n      dup10\n        /* \"#utility.yul\":20336:20408   */\n      tag_241\n      jump\t// in\n    tag_517:\n        /* \"#utility.yul\":20418:20490   */\n      tag_518\n        /* \"#utility.yul\":20486:20488   */\n      0x60\n        /* \"#utility.yul\":20475:20484   */\n      dup4\n        /* \"#utility.yul\":20471:20489   */\n      add\n        /* \"#utility.yul\":20462:20468   */\n      dup9\n        /* \"#utility.yul\":20418:20490   */\n      tag_248\n      jump\t// in\n    tag_518:\n        /* \"#utility.yul\":20500:20571   */\n      tag_519\n        /* \"#utility.yul\":20566:20569   */\n      0x80\n        /* \"#utility.yul\":20555:20564   */\n      dup4\n        /* \"#utility.yul\":20551:20570   */\n      add\n        /* \"#utility.yul\":20542:20548   */\n      dup8\n        /* \"#utility.yul\":20500:20571   */\n      tag_284\n      jump\t// in\n    tag_519:\n        /* \"#utility.yul\":20581:20654   */\n      tag_520\n        /* \"#utility.yul\":20649:20652   */\n      0xa0\n        /* \"#utility.yul\":20638:20647   */\n      dup4\n        /* \"#utility.yul\":20634:20653   */\n      add\n        /* \"#utility.yul\":20625:20631   */\n      dup7\n        /* \"#utility.yul\":20581:20654   */\n      tag_272\n      jump\t// in\n    tag_520:\n        /* \"#utility.yul\":20664:20737   */\n      tag_521\n        /* \"#utility.yul\":20732:20735   */\n      0xc0\n        /* \"#utility.yul\":20721:20730   */\n      dup4\n        /* \"#utility.yul\":20717:20736   */\n      add\n        /* \"#utility.yul\":20708:20714   */\n      dup6\n        /* \"#utility.yul\":20664:20737   */\n      tag_272\n      jump\t// in\n    tag_521:\n        /* \"#utility.yul\":20785:20794   */\n      dup2\n        /* \"#utility.yul\":20779:20783   */\n      dup2\n        /* \"#utility.yul\":20775:20795   */\n      sub\n        /* \"#utility.yul\":20769:20772   */\n      0xe0\n        /* \"#utility.yul\":20758:20767   */\n      dup4\n        /* \"#utility.yul\":20754:20773   */\n      add\n        /* \"#utility.yul\":20747:20796   */\n      mstore\n        /* \"#utility.yul\":20813:20889   */\n      tag_522\n        /* \"#utility.yul\":20884:20888   */\n      dup2\n        /* \"#utility.yul\":20875:20881   */\n      dup5\n        /* \"#utility.yul\":20813:20889   */\n      tag_287\n      jump\t// in\n    tag_522:\n        /* \"#utility.yul\":20805:20889   */\n      swap1\n      pop\n        /* \"#utility.yul\":19816:20896   */\n      swap10\n      swap9\n      pop\n      pop\n      pop\n      pop\n      pop\n      pop\n      pop\n      pop\n      pop\n      jump\t// out\n        /* \"#utility.yul\":20902:21082   */\n    tag_288:\n        /* \"#utility.yul\":20950:21027   */\n      0x4e487b7100000000000000000000000000000000000000000000000000000000\n        /* \"#utility.yul\":20947:20948   */\n      0x00\n        /* \"#utility.yul\":20940:21028   */\n      mstore\n        /* \"#utility.yul\":21047:21051   */\n      0x12\n        /* \"#utility.yul\":21044:21045   */\n      0x04\n        /* \"#utility.yul\":21037:21052   */\n      mstore\n        /* \"#utility.yul\":21071:21075   */\n      0x24\n        /* \"#utility.yul\":21068:21069   */\n      0x00\n        /* \"#utility.yul\":21061:21076   */\n      revert\n        /* \"#utility.yul\":21088:21264   */\n    tag_131:\n        /* \"#utility.yul\":21120:21121   */\n      0x00\n        /* \"#utility.yul\":21137:21157   */\n      tag_525\n        /* \"#utility.yul\":21155:21156   */\n      dup3\n        /* \"#utility.yul\":21137:21157   */\n      tag_238\n      jump\t// in\n    tag_525:\n        /* \"#utility.yul\":21132:21157   */\n      swap2\n      pop\n        /* \"#utility.yul\":21171:21191   */\n      tag_526\n        /* \"#utility.yul\":21189:21190   */\n      dup4\n        /* \"#utility.yul\":21171:21191   */\n      tag_238\n      jump\t// in\n    tag_526:\n        /* \"#utility.yul\":21166:21191   */\n      swap3\n      pop\n        /* \"#utility.yul\":21210:21211   */\n      dup3\n        /* \"#utility.yul\":21200:21235   */\n      tag_527\n      jumpi\n        /* \"#utility.yul\":21215:21233   */\n      tag_528\n      tag_288\n      jump\t// in\n    tag_528:\n        /* \"#utility.yul\":21200:21235   */\n    tag_527:\n        /* \"#utility.yul\":21256:21257   */\n      dup3\n        /* \"#utility.yul\":21253:21254   */\n      dup3\n        /* \"#utility.yul\":21249:21258   */\n      mod\n        /* \"#utility.yul\":21244:21258   */\n      swap1\n      pop\n        /* \"#utility.yul\":21088:21264   */\n      swap3\n      swap2\n      pop\n      pop\n      jump\t// out\n        /* \"#utility.yul\":21270:21464   */\n    tag_135:\n        /* \"#utility.yul\":21310:21314   */\n      0x00\n        /* \"#utility.yul\":21330:21350   */\n      tag_530\n        /* \"#utility.yul\":21348:21349   */\n      dup3\n        /* \"#utility.yul\":21330:21350   */\n      tag_238\n      jump\t// in\n    tag_530:\n        /* \"#utility.yul\":21325:21350   */\n      swap2\n      pop\n        /* \"#utility.yul\":21364:21384   */\n      tag_531\n        /* \"#utility.yul\":21382:21383   */\n      dup4\n        /* \"#utility.yul\":21364:21384   */\n      tag_238\n      jump\t// in\n    tag_531:\n        /* \"#utility.yul\":21359:21384   */\n      swap3\n      pop\n        /* \"#utility.yul\":21408:21409   */\n      dup3\n        /* \"#utility.yul\":21405:21406   */\n      dup3\n        /* \"#utility.yul\":21401:21410   */\n      sub\n        /* \"#utility.yul\":21393:21410   */\n      swap1\n      pop\n        /* \"#utility.yul\":21432:21433   */\n      dup2\n        /* \"#utility.yul\":21426:21430   */\n      dup2\n        /* \"#utility.yul\":21423:21434   */\n      gt\n        /* \"#utility.yul\":21420:21457   */\n      iszero\n      tag_532\n      jumpi\n        /* \"#utility.yul\":21437:21455   */\n      tag_533\n      tag_282\n      jump\t// in\n    tag_533:\n        /* \"#utility.yul\":21420:21457   */\n    tag_532:\n        /* \"#utility.yul\":21270:21464   */\n      swap3\n      swap2\n      pop\n      pop\n      jump\t// out\n        /* \"#utility.yul\":21470:21612   */\n    tag_289:\n        /* \"#utility.yul\":21520:21529   */\n      0x00\n        /* \"#utility.yul\":21553:21606   */\n      tag_535\n        /* \"#utility.yul\":21571:21605   */\n      tag_536\n        /* \"#utility.yul\":21580:21604   */\n      tag_537\n        /* \"#utility.yul\":21598:21603   */\n      dup5\n        /* \"#utility.yul\":21580:21604   */\n      tag_246\n      jump\t// in\n    tag_537:\n        /* \"#utility.yul\":21571:21605   */\n      tag_258\n      jump\t// in\n    tag_536:\n        /* \"#utility.yul\":21553:21606   */\n      tag_246\n      jump\t// in\n    tag_535:\n        /* \"#utility.yul\":21540:21606   */\n      swap1\n      pop\n        /* \"#utility.yul\":21470:21612   */\n      swap2\n      swap1\n      pop\n      jump\t// out\n        /* \"#utility.yul\":21618:21744   */\n    tag_290:\n        /* \"#utility.yul\":21668:21677   */\n      0x00\n        /* \"#utility.yul\":21701:21738   */\n      tag_539\n        /* \"#utility.yul\":21732:21737   */\n      dup3\n        /* \"#utility.yul\":21701:21738   */\n      tag_289\n      jump\t// in\n    tag_539:\n        /* \"#utility.yul\":21688:21738   */\n      swap1\n      pop\n        /* \"#utility.yul\":21618:21744   */\n      swap2\n      swap1\n      pop\n      jump\t// out\n        /* \"#utility.yul\":21750:21899   */\n    tag_291:\n        /* \"#utility.yul\":21823:21832   */\n      0x00\n        /* \"#utility.yul\":21856:21893   */\n      tag_541\n        /* \"#utility.yul\":21887:21892   */\n      dup3\n        /* \"#utility.yul\":21856:21893   */\n      tag_290\n      jump\t// in\n    tag_541:\n        /* \"#utility.yul\":21843:21893   */\n      swap1\n      pop\n        /* \"#utility.yul\":21750:21899   */\n      swap2\n      swap1\n      pop\n      jump\t// out\n        /* \"#utility.yul\":21905:21999   */\n    tag_292:\n        /* \"#utility.yul\":21938:21946   */\n      0x00\n        /* \"#utility.yul\":21986:21991   */\n      dup2\n        /* \"#utility.yul\":21982:21984   */\n      0x60\n        /* \"#utility.yul\":21978:21992   */\n      shl\n        /* \"#utility.yul\":21957:21992   */\n      swap1\n      pop\n        /* \"#utility.yul\":21905:21999   */\n      swap2\n      swap1\n      pop\n      jump\t// out\n        /* \"#utility.yul\":22005:22099   */\n    tag_293:\n        /* \"#utility.yul\":22044:22051   */\n      0x00\n        /* \"#utility.yul\":22073:22093   */\n      tag_544\n        /* \"#utility.yul\":22087:22092   */\n      dup3\n        /* \"#utility.yul\":22073:22093   */\n      tag_292\n      jump\t// in\n    tag_544:\n        /* \"#utility.yul\":22062:22093   */\n      swap1\n      pop\n        /* \"#utility.yul\":22005:22099   */\n      swap2\n      swap1\n      pop\n      jump\t// out\n        /* \"#utility.yul\":22105:22205   */\n    tag_294:\n        /* \"#utility.yul\":22144:22151   */\n      0x00\n        /* \"#utility.yul\":22173:22199   */\n      tag_546\n        /* \"#utility.yul\":22193:22198   */\n      dup3\n        /* \"#utility.yul\":22173:22199   */\n      tag_293\n      jump\t// in\n    tag_546:\n        /* \"#utility.yul\":22162:22199   */\n      swap1\n      pop\n        /* \"#utility.yul\":22105:22205   */\n      swap2\n      swap1\n      pop\n      jump\t// out\n        /* \"#utility.yul\":22211:22427   */\n    tag_295:\n        /* \"#utility.yul\":22339:22420   */\n      tag_548\n        /* \"#utility.yul\":22359:22419   */\n      tag_549\n        /* \"#utility.yul\":22413:22418   */\n      dup3\n        /* \"#utility.yul\":22359:22419   */\n      tag_291\n      jump\t// in\n    tag_549:\n        /* \"#utility.yul\":22339:22420   */\n      tag_294\n      jump\t// in\n    tag_548:\n        /* \"#utility.yul\":22334:22337   */\n      dup3\n        /* \"#utility.yul\":22327:22421   */\n      mstore\n        /* \"#utility.yul\":22211:22427   */\n      pop\n      pop\n      jump\t// out\n        /* \"#utility.yul\":22433:22512   */\n    tag_296:\n        /* \"#utility.yul\":22472:22479   */\n      0x00\n        /* \"#utility.yul\":22501:22506   */\n      dup2\n        /* \"#utility.yul\":22490:22506   */\n      swap1\n      pop\n        /* \"#utility.yul\":22433:22512   */\n      swap2\n      swap1\n      pop\n      jump\t// out\n        /* \"#utility.yul\":22518:22675   */\n    tag_297:\n        /* \"#utility.yul\":22623:22668   */\n      tag_552\n        /* \"#utility.yul\":22643:22667   */\n      tag_553\n        /* \"#utility.yul\":22661:22666   */\n      dup3\n        /* \"#utility.yul\":22643:22667   */\n      tag_238\n      jump\t// in\n    tag_553:\n        /* \"#utility.yul\":22623:22668   */\n      tag_296\n      jump\t// in\n    tag_552:\n        /* \"#utility.yul\":22618:22621   */\n      dup3\n        /* \"#utility.yul\":22611:22669   */\n      mstore\n        /* \"#utility.yul\":22518:22675   */\n      pop\n      pop\n      jump\t// out\n        /* \"#utility.yul\":22681:23124   */\n    tag_163:\n        /* \"#utility.yul\":22844:22847   */\n      0x00\n        /* \"#utility.yul\":22859:22957   */\n      tag_555\n        /* \"#utility.yul\":22953:22956   */\n      dup3\n        /* \"#utility.yul\":22944:22950   */\n      dup6\n        /* \"#utility.yul\":22859:22957   */\n      tag_295\n      jump\t// in\n    tag_555:\n        /* \"#utility.yul\":22982:22984   */\n      0x14\n        /* \"#utility.yul\":22977:22980   */\n      dup3\n        /* \"#utility.yul\":22973:22985   */\n      add\n        /* \"#utility.yul\":22966:22985   */\n      swap2\n      pop\n        /* \"#utility.yul\":22995:23070   */\n      tag_556\n        /* \"#utility.yul\":23066:23069   */\n      dup3\n        /* \"#utility.yul\":23057:23063   */\n      dup5\n        /* \"#utility.yul\":22995:23070   */\n      tag_297\n      jump\t// in\n    tag_556:\n        /* \"#utility.yul\":23095:23097   */\n      0x20\n        /* \"#utility.yul\":23090:23093   */\n      dup3\n        /* \"#utility.yul\":23086:23098   */\n      add\n        /* \"#utility.yul\":23079:23098   */\n      swap2\n      pop\n        /* \"#utility.yul\":23115:23118   */\n      dup2\n        /* \"#utility.yul\":23108:23118   */\n      swap1\n      pop\n        /* \"#utility.yul\":22681:23124   */\n      swap4\n      swap3\n      pop\n      pop\n      pop\n      jump\t// out\n        /* \"#utility.yul\":23130:23659   */\n    tag_165:\n        /* \"#utility.yul\":23297:23301   */\n      0x00\n        /* \"#utility.yul\":23335:23337   */\n      0x60\n        /* \"#utility.yul\":23324:23333   */\n      dup3\n        /* \"#utility.yul\":23320:23338   */\n      add\n        /* \"#utility.yul\":23312:23338   */\n      swap1\n      pop\n        /* \"#utility.yul\":23348:23419   */\n      tag_558\n        /* \"#utility.yul\":23416:23417   */\n      0x00\n        /* \"#utility.yul\":23405:23414   */\n      dup4\n        /* \"#utility.yul\":23401:23418   */\n      add\n        /* \"#utility.yul\":23392:23398   */\n      dup7\n        /* \"#utility.yul\":23348:23419   */\n      tag_248\n      jump\t// in\n    tag_558:\n        /* \"#utility.yul\":23429:23501   */\n      tag_559\n        /* \"#utility.yul\":23497:23499   */\n      0x20\n        /* \"#utility.yul\":23486:23495   */\n      dup4\n        /* \"#utility.yul\":23482:23500   */\n      add\n        /* \"#utility.yul\":23473:23479   */\n      dup6\n        /* \"#utility.yul\":23429:23501   */\n      tag_272\n      jump\t// in\n    tag_559:\n        /* \"#utility.yul\":23548:23557   */\n      dup2\n        /* \"#utility.yul\":23542:23546   */\n      dup2\n        /* \"#utility.yul\":23538:23558   */\n      sub\n        /* \"#utility.yul\":23533:23535   */\n      0x40\n        /* \"#utility.yul\":23522:23531   */\n      dup4\n        /* \"#utility.yul\":23518:23536   */\n      add\n        /* \"#utility.yul\":23511:23559   */\n      mstore\n        /* \"#utility.yul\":23576:23652   */\n      tag_560\n        /* \"#utility.yul\":23647:23651   */\n      dup2\n        /* \"#utility.yul\":23638:23644   */\n      dup5\n        /* \"#utility.yul\":23576:23652   */\n      tag_287\n      jump\t// in\n    tag_560:\n        /* \"#utility.yul\":23568:23652   */\n      swap1\n      pop\n        /* \"#utility.yul\":23130:23659   */\n      swap5\n      swap4\n      pop\n      pop\n      pop\n      pop\n      jump\t// out\n        /* \"#utility.yul\":23665:23887   */\n    tag_298:\n        /* \"#utility.yul\":23805:23839   */\n      0x756e61626c6520746f207472616e73666572416e6443616c6c20746f206f7261\n        /* \"#utility.yul\":23801:23802   */\n      0x00\n        /* \"#utility.yul\":23793:23799   */\n      dup3\n        /* \"#utility.yul\":23789:23803   */\n      add\n        /* \"#utility.yul\":23782:23840   */\n      mstore\n        /* \"#utility.yul\":23874:23879   */\n      0x636c650000000000000000000000000000000000000000000000000000000000\n        /* \"#utility.yul\":23869:23871   */\n      0x20\n        /* \"#utility.yul\":23861:23867   */\n      dup3\n        /* \"#utility.yul\":23857:23872   */\n      add\n        /* \"#utility.yul\":23850:23880   */\n      mstore\n        /* \"#utility.yul\":23665:23887   */\n      pop\n      jump\t// out\n        /* \"#utility.yul\":23893:24259   */\n    tag_299:\n        /* \"#utility.yul\":24035:24038   */\n      0x00\n        /* \"#utility.yul\":24056:24123   */\n      tag_563\n        /* \"#utility.yul\":24120:24122   */\n      0x23\n        /* \"#utility.yul\":24115:24118   */\n      dup4\n        /* \"#utility.yul\":24056:24123   */\n      tag_243\n      jump\t// in\n    tag_563:\n        /* \"#utility.yul\":24049:24123   */\n      swap2\n      pop\n        /* \"#utility.yul\":24132:24225   */\n      tag_564\n        /* \"#utility.yul\":24221:24224   */\n      dup3\n        /* \"#utility.yul\":24132:24225   */\n      tag_298\n      jump\t// in\n    tag_564:\n        /* \"#utility.yul\":24250:24252   */\n      0x40\n        /* \"#utility.yul\":24245:24248   */\n      dup3\n        /* \"#utility.yul\":24241:24253   */\n      add\n        /* \"#utility.yul\":24234:24253   */\n      swap1\n      pop\n        /* \"#utility.yul\":23893:24259   */\n      swap2\n      swap1\n      pop\n      jump\t// out\n        /* \"#utility.yul\":24265:24684   */\n    tag_171:\n        /* \"#utility.yul\":24431:24435   */\n      0x00\n        /* \"#utility.yul\":24469:24471   */\n      0x20\n        /* \"#utility.yul\":24458:24467   */\n      dup3\n        /* \"#utility.yul\":24454:24472   */\n      add\n        /* \"#utility.yul\":24446:24472   */\n      swap1\n      pop\n        /* \"#utility.yul\":24518:24527   */\n      dup2\n        /* \"#utility.yul\":24512:24516   */\n      dup2\n        /* \"#utility.yul\":24508:24528   */\n      sub\n        /* \"#utility.yul\":24504:24505   */\n      0x00\n        /* \"#utility.yul\":24493:24502   */\n      dup4\n        /* \"#utility.yul\":24489:24506   */\n      add\n        /* \"#utility.yul\":24482:24529   */\n      mstore\n        /* \"#utility.yul\":24546:24677   */\n      tag_566\n        /* \"#utility.yul\":24672:24676   */\n      dup2\n        /* \"#utility.yul\":24546:24677   */\n      tag_299\n      jump\t// in\n    tag_566:\n        /* \"#utility.yul\":24538:24677   */\n      swap1\n      pop\n        /* \"#utility.yul\":24265:24684   */\n      swap2\n      swap1\n      pop\n      jump\t// out\n        /* \"#utility.yul\":24690:25100   */\n    tag_190:\n        /* \"#utility.yul\":24730:24737   */\n      0x00\n        /* \"#utility.yul\":24753:24773   */\n      tag_568\n        /* \"#utility.yul\":24771:24772   */\n      dup3\n        /* \"#utility.yul\":24753:24773   */\n      tag_238\n      jump\t// in\n    tag_568:\n        /* \"#utility.yul\":24748:24773   */\n      swap2\n      pop\n        /* \"#utility.yul\":24787:24807   */\n      tag_569\n        /* \"#utility.yul\":24805:24806   */\n      dup4\n        /* \"#utility.yul\":24787:24807   */\n      tag_238\n      jump\t// in\n    tag_569:\n        /* \"#utility.yul\":24782:24807   */\n      swap3\n      pop\n        /* \"#utility.yul\":24842:24843   */\n      dup3\n        /* \"#utility.yul\":24839:24840   */\n      dup3\n        /* \"#utility.yul\":24835:24844   */\n      mul\n        /* \"#utility.yul\":24864:24894   */\n      tag_570\n        /* \"#utility.yul\":24882:24893   */\n      dup2\n        /* \"#utility.yul\":24864:24894   */\n      tag_238\n      jump\t// in\n    tag_570:\n        /* \"#utility.yul\":24853:24894   */\n      swap2\n      pop\n        /* \"#utility.yul\":25043:25044   */\n      dup3\n        /* \"#utility.yul\":25034:25041   */\n      dup3\n        /* \"#utility.yul\":25030:25045   */\n      div\n        /* \"#utility.yul\":25027:25028   */\n      dup5\n        /* \"#utility.yul\":25024:25046   */\n      eq\n        /* \"#utility.yul\":25004:25005   */\n      dup4\n        /* \"#utility.yul\":24997:25006   */\n      iszero\n        /* \"#utility.yul\":24977:25060   */\n      or\n        /* \"#utility.yul\":24954:25093   */\n      tag_571\n      jumpi\n        /* \"#utility.yul\":25073:25091   */\n      tag_572\n      tag_282\n      jump\t// in\n    tag_572:\n        /* \"#utility.yul\":24954:25093   */\n    tag_571:\n        /* \"#utility.yul\":24738:25100   */\n      pop\n        /* \"#utility.yul\":24690:25100   */\n      swap3\n      swap2\n      pop\n      pop\n      jump\t// out\n        /* \"#utility.yul\":25106:25208   */\n    tag_300:\n        /* \"#utility.yul\":25148:25156   */\n      0x00\n        /* \"#utility.yul\":25195:25200   */\n      dup2\n        /* \"#utility.yul\":25192:25193   */\n      0x01\n        /* \"#utility.yul\":25188:25201   */\n      shr\n        /* \"#utility.yul\":25167:25201   */\n      swap1\n      pop\n        /* \"#utility.yul\":25106:25208   */\n      swap2\n      swap1\n      pop\n      jump\t// out\n        /* \"#utility.yul\":25214:26062   */\n    tag_301:\n        /* \"#utility.yul\":25275:25280   */\n      0x00\n        /* \"#utility.yul\":25282:25286   */\n      dup1\n        /* \"#utility.yul\":25306:25312   */\n      dup3\n        /* \"#utility.yul\":25297:25312   */\n      swap2\n      pop\n        /* \"#utility.yul\":25330:25335   */\n      dup4\n        /* \"#utility.yul\":25321:25335   */\n      swap1\n      pop\n        /* \"#utility.yul\":25344:26056   */\n    tag_575:\n        /* \"#utility.yul\":25365:25366   */\n      0x01\n        /* \"#utility.yul\":25355:25363   */\n      dup6\n        /* \"#utility.yul\":25352:25367   */\n      gt\n        /* \"#utility.yul\":25344:26056   */\n      iszero\n      tag_577\n      jumpi\n        /* \"#utility.yul\":25460:25464   */\n      dup1\n        /* \"#utility.yul\":25455:25458   */\n      dup7\n        /* \"#utility.yul\":25451:25465   */\n      div\n        /* \"#utility.yul\":25445:25449   */\n      dup2\n        /* \"#utility.yul\":25442:25466   */\n      gt\n        /* \"#utility.yul\":25439:25489   */\n      iszero\n      tag_578\n      jumpi\n        /* \"#utility.yul\":25469:25487   */\n      tag_579\n      tag_282\n      jump\t// in\n    tag_579:\n        /* \"#utility.yul\":25439:25489   */\n    tag_578:\n        /* \"#utility.yul\":25519:25520   */\n      0x01\n        /* \"#utility.yul\":25509:25517   */\n      dup6\n        /* \"#utility.yul\":25505:25521   */\n      and\n        /* \"#utility.yul\":25502:25953   */\n      iszero\n      tag_580\n      jumpi\n        /* \"#utility.yul\":25934:25938   */\n      dup1\n        /* \"#utility.yul\":25927:25932   */\n      dup3\n        /* \"#utility.yul\":25923:25939   */\n      mul\n        /* \"#utility.yul\":25914:25939   */\n      swap2\n      pop\n        /* \"#utility.yul\":25502:25953   */\n    tag_580:\n        /* \"#utility.yul\":25984:25988   */\n      dup1\n        /* \"#utility.yul\":25978:25982   */\n      dup2\n        /* \"#utility.yul\":25974:25989   */\n      mul\n        /* \"#utility.yul\":25966:25989   */\n      swap1\n      pop\n        /* \"#utility.yul\":26014:26046   */\n      tag_581\n        /* \"#utility.yul\":26037:26045   */\n      dup6\n        /* \"#utility.yul\":26014:26046   */\n      tag_300\n      jump\t// in\n    tag_581:\n        /* \"#utility.yul\":26002:26046   */\n      swap5\n      pop\n        /* \"#utility.yul\":25344:26056   */\n      jump(tag_575)\n    tag_577:\n        /* \"#utility.yul\":25214:26062   */\n      swap5\n      pop\n      swap5\n      swap3\n      pop\n      pop\n      pop\n      jump\t// out\n        /* \"#utility.yul\":26068:27141   */\n    tag_302:\n        /* \"#utility.yul\":26122:26127   */\n      0x00\n        /* \"#utility.yul\":26313:26321   */\n      dup3\n        /* \"#utility.yul\":26303:26343   */\n      tag_583\n      jumpi\n        /* \"#utility.yul\":26334:26335   */\n      0x01\n        /* \"#utility.yul\":26325:26335   */\n      swap1\n      pop\n        /* \"#utility.yul\":26336:26341   */\n      jump(tag_582)\n        /* \"#utility.yul\":26303:26343   */\n    tag_583:\n        /* \"#utility.yul\":26362:26366   */\n      dup2\n        /* \"#utility.yul\":26352:26388   */\n      tag_584\n      jumpi\n        /* \"#utility.yul\":26379:26380   */\n      0x00\n        /* \"#utility.yul\":26370:26380   */\n      swap1\n      pop\n        /* \"#utility.yul\":26381:26386   */\n      jump(tag_582)\n        /* \"#utility.yul\":26352:26388   */\n    tag_584:\n        /* \"#utility.yul\":26448:26452   */\n      dup2\n        /* \"#utility.yul\":26496:26497   */\n      0x01\n        /* \"#utility.yul\":26491:26518   */\n      dup2\n      eq\n      tag_586\n      jumpi\n        /* \"#utility.yul\":26532:26533   */\n      0x02\n        /* \"#utility.yul\":26527:26718   */\n      dup2\n      eq\n      tag_587\n      jumpi\n        /* \"#utility.yul\":26441:26718   */\n      jump(tag_585)\n        /* \"#utility.yul\":26491:26518   */\n    tag_586:\n        /* \"#utility.yul\":26509:26510   */\n      0x01\n        /* \"#utility.yul\":26500:26510   */\n      swap2\n      pop\n        /* \"#utility.yul\":26511:26516   */\n      pop\n      jump(tag_582)\n        /* \"#utility.yul\":26527:26718   */\n    tag_587:\n        /* \"#utility.yul\":26572:26575   */\n      0xff\n        /* \"#utility.yul\":26562:26570   */\n      dup5\n        /* \"#utility.yul\":26559:26576   */\n      gt\n        /* \"#utility.yul\":26556:26599   */\n      iszero\n      tag_588\n      jumpi\n        /* \"#utility.yul\":26579:26597   */\n      tag_589\n      tag_282\n      jump\t// in\n    tag_589:\n        /* \"#utility.yul\":26556:26599   */\n    tag_588:\n        /* \"#utility.yul\":26628:26636   */\n      dup4\n        /* \"#utility.yul\":26625:26626   */\n      0x02\n        /* \"#utility.yul\":26621:26637   */\n      exp\n        /* \"#utility.yul\":26612:26637   */\n      swap2\n      pop\n        /* \"#utility.yul\":26663:26666   */\n      dup5\n        /* \"#utility.yul\":26656:26661   */\n      dup3\n        /* \"#utility.yul\":26653:26667   */\n      gt\n        /* \"#utility.yul\":26650:26690   */\n      iszero\n      tag_590\n      jumpi\n        /* \"#utility.yul\":26670:26688   */\n      tag_591\n      tag_282\n      jump\t// in\n    tag_591:\n        /* \"#utility.yul\":26650:26690   */\n    tag_590:\n        /* \"#utility.yul\":26703:26708   */\n      pop\n      jump(tag_582)\n        /* \"#utility.yul\":26441:26718   */\n    tag_585:\n      pop\n        /* \"#utility.yul\":26827:26829   */\n      0x20\n        /* \"#utility.yul\":26817:26825   */\n      dup4\n        /* \"#utility.yul\":26814:26830   */\n      lt\n        /* \"#utility.yul\":26808:26811   */\n      0x0133\n        /* \"#utility.yul\":26802:26806   */\n      dup4\n        /* \"#utility.yul\":26799:26812   */\n      lt\n        /* \"#utility.yul\":26795:26831   */\n      and\n        /* \"#utility.yul\":26777:26779   */\n      0x4e\n        /* \"#utility.yul\":26767:26775   */\n      dup5\n        /* \"#utility.yul\":26764:26780   */\n      lt\n        /* \"#utility.yul\":26759:26761   */\n      0x0b\n        /* \"#utility.yul\":26753:26757   */\n      dup5\n        /* \"#utility.yul\":26750:26762   */\n      lt\n        /* \"#utility.yul\":26746:26781   */\n      and\n        /* \"#utility.yul\":26730:26841   */\n      or\n        /* \"#utility.yul\":26727:26973   */\n      iszero\n      tag_592\n      jumpi\n        /* \"#utility.yul\":26883:26891   */\n      dup3\n        /* \"#utility.yul\":26877:26881   */\n      dup3\n        /* \"#utility.yul\":26873:26892   */\n      exp\n        /* \"#utility.yul\":26864:26892   */\n      swap1\n      pop\n        /* \"#utility.yul\":26918:26921   */\n      dup4\n        /* \"#utility.yul\":26911:26916   */\n      dup2\n        /* \"#utility.yul\":26908:26922   */\n      gt\n        /* \"#utility.yul\":26905:26945   */\n      iszero\n      tag_593\n      jumpi\n        /* \"#utility.yul\":26925:26943   */\n      tag_594\n      tag_282\n      jump\t// in\n    tag_594:\n        /* \"#utility.yul\":26905:26945   */\n    tag_593:\n        /* \"#utility.yul\":26958:26963   */\n      jump(tag_582)\n        /* \"#utility.yul\":26727:26973   */\n    tag_592:\n        /* \"#utility.yul\":26998:27040   */\n      tag_595\n        /* \"#utility.yul\":27036:27039   */\n      dup5\n        /* \"#utility.yul\":27026:27034   */\n      dup5\n        /* \"#utility.yul\":27020:27024   */\n      dup5\n        /* \"#utility.yul\":27017:27018   */\n      0x01\n        /* \"#utility.yul\":26998:27040   */\n      tag_301\n      jump\t// in\n    tag_595:\n        /* \"#utility.yul\":26983:27040   */\n      swap3\n      pop\n      swap1\n      pop\n        /* \"#utility.yul\":27072:27076   */\n      dup2\n        /* \"#utility.yul\":27067:27070   */\n      dup5\n        /* \"#utility.yul\":27063:27077   */\n      div\n        /* \"#utility.yul\":27056:27061   */\n      dup2\n        /* \"#utility.yul\":27053:27078   */\n      gt\n        /* \"#utility.yul\":27050:27101   */\n      iszero\n      tag_596\n      jumpi\n        /* \"#utility.yul\":27081:27099   */\n      tag_597\n      tag_282\n      jump\t// in\n    tag_597:\n        /* \"#utility.yul\":27050:27101   */\n    tag_596:\n        /* \"#utility.yul\":27130:27134   */\n      dup2\n        /* \"#utility.yul\":27123:27128   */\n      dup2\n        /* \"#utility.yul\":27119:27135   */\n      mul\n        /* \"#utility.yul\":27110:27135   */\n      swap1\n      pop\n        /* \"#utility.yul\":26068:27141   */\n    tag_582:\n      swap4\n      swap3\n      pop\n      pop\n      pop\n      jump\t// out\n        /* \"#utility.yul\":27147:27432   */\n    tag_213:\n        /* \"#utility.yul\":27207:27212   */\n      0x00\n        /* \"#utility.yul\":27231:27254   */\n      tag_599\n        /* \"#utility.yul\":27249:27253   */\n      dup3\n        /* \"#utility.yul\":27231:27254   */\n      tag_238\n      jump\t// in\n    tag_599:\n        /* \"#utility.yul\":27223:27254   */\n      swap2\n      pop\n        /* \"#utility.yul\":27275:27302   */\n      tag_600\n        /* \"#utility.yul\":27293:27301   */\n      dup4\n        /* \"#utility.yul\":27275:27302   */\n      tag_238\n      jump\t// in\n    tag_600:\n        /* \"#utility.yul\":27263:27302   */\n      swap3\n      pop\n        /* \"#utility.yul\":27321:27425   */\n      tag_601\n        /* \"#utility.yul\":27358:27424   */\n      0xffffffffffffffffffffffffffffffffffffffffffffffffffffffffffffffff\n        /* \"#utility.yul\":27348:27356   */\n      dup5\n        /* \"#utility.yul\":27342:27346   */\n      dup5\n        /* \"#utility.yul\":27321:27425   */\n      tag_302\n      jump\t// in\n    tag_601:\n        /* \"#utility.yul\":27312:27425   */\n      swap1\n      pop\n        /* \"#utility.yul\":27147:27432   */\n      swap3\n      swap2\n      pop\n      pop\n      jump\t// out\n    stop\n    data_b5f2548b62ba1438e6c56a676eaaf43c82d05ddfa8a57833fbeac1152b0abca3 68747470733a2f2f6361742d666163742e6865726f6b756170702e636f6d2f6661637473\n\n    auxdata: 0xa264697066735822122000b3ff4579f94823cea9b17f50a9b3fc70b6e798e971ae4270c39a75e97b341b64736f6c63430008120033\n}\n",
				"bytecode": {
					"linkReferences": {},
					"object": "608060405260016004553480156200001657600080fd5b50338060008073ffffffffffffffffffffffffffffffffffffffff168273ffffffffffffffffffffffffffffffffffffffff16036200008c576040517f08c379a00000000000000000000000000000000000000000000000000000000081526004016200008390620003d3565b60405180910390fd5b81600660006101000a81548173ffffffffffffffffffffffffffffffffffffffff021916908373ffffffffffffffffffffffffffffffffffffffff160217905550600073ffffffffffffffffffffffffffffffffffffffff168173ffffffffffffffffffffffffffffffffffffffff161462000114576200011381620001b960201b60201c565b5b5050506200013c73779877a7b0d9e8603169ddbd7836e478b4624789620002ea60201b60201c565b62000161736090149792daaee9d1d568c9f9a6f6b46aa29efd6200032e60201b60201c565b7f3764383061363338366566353433613361626235323831376636373037653362600981905550600a670de0b6b3a76400006001620001a191906200042e565b620001ad9190620004a8565b600a8190555062000552565b3373ffffffffffffffffffffffffffffffffffffffff168173ffffffffffffffffffffffffffffffffffffffff16036200022a576040517f08c379a0000000000000000000000000000000000000000000000000000000008152600401620002219062000530565b60405180910390fd5b80600760006101000a81548173ffffffffffffffffffffffffffffffffffffffff021916908373ffffffffffffffffffffffffffffffffffffffff1602179055508073ffffffffffffffffffffffffffffffffffffffff16600660009054906101000a900473ffffffffffffffffffffffffffffffffffffffff1673ffffffffffffffffffffffffffffffffffffffff167fed8889f560326eb138920d842192f0eb3dd22b4f139c87a2c57538e05bae127860405160405180910390a350565b80600260006101000a81548173ffffffffffffffffffffffffffffffffffffffff021916908373ffffffffffffffffffffffffffffffffffffffff16021790555050565b80600360006101000a81548173ffffffffffffffffffffffffffffffffffffffff021916908373ffffffffffffffffffffffffffffffffffffffff16021790555050565b600082825260208201905092915050565b7f43616e6e6f7420736574206f776e657220746f207a65726f0000000000000000600082015250565b6000620003bb60188362000372565b9150620003c88262000383565b602082019050919050565b60006020820190508181036000830152620003ee81620003ac565b9050919050565b6000819050919050565b7f4e487b7100000000000000000000000000000000000000000000000000000000600052601160045260246000fd5b60006200043b82620003f5565b91506200044883620003f5565b92508282026200045881620003f5565b91508282048414831517620004725762000471620003ff565b5b5092915050565b7f4e487b7100000000000000000000000000000000000000000000000000000000600052601260045260246000fd5b6000620004b582620003f5565b9150620004c283620003f5565b925082620004d557620004d462000479565b5b828204905092915050565b7f43616e6e6f74207472616e7366657220746f2073656c66000000000000000000600082015250565b60006200051860178362000372565b91506200052582620004e0565b602082019050919050565b600060208201905081810360008301526200054b8162000509565b9050919050565b61219180620005626000396000f3fe608060405234801561001057600080fd5b506004361061007d5760003560e01c806379ba50971161005b57806379ba5097146100ec5780638da5cb5b146100f65780638dc654a214610114578063f2fde38b1461011e5761007d565b80633744199614610082578063684ede7f1461009e57806373e3ce80146100ce575b600080fd5b61009c60048036038101906100979190611382565b61013a565b005b6100b860048036038101906100b39190611414565b61028c565b6040516100c59190611450565b60405180910390f35b6100d661039a565b6040516100e391906114ea565b60405180910390f35b6100f4610428565b005b6100fe6105bf565b60405161010b919061154d565b60405180910390f35b61011c6105e9565b005b61013860048036038101906101339190611594565b610736565b005b816005600082815260200190815260200160002060009054906101000a900473ffffffffffffffffffffffffffffffffffffffff1673ffffffffffffffffffffffffffffffffffffffff163373ffffffffffffffffffffffffffffffffffffffff16146101dc576040517f08c379a00000000000000000000000000000000000000000000000000000000081526004016101d390611633565b60405180910390fd5b6005600082815260200190815260200160002060006101000a81549073ffffffffffffffffffffffffffffffffffffffff0219169055807f7cc135e0cebb02c3480ae5d74d377283180a2601f8f644edf7987b009316c63a60405160405180910390a2827fa7110ce3e25401d4ee3bb18dcfb701381caa81d87ab3e4a77558fca28b7144f18360405161026f91906114ea565b60405180910390a28160089081610286919061185f565b50505050565b6000806102a360095430633744199660e01b61074a565b90506103076040518060400160405280600381526020017f6765740000000000000000000000000000000000000000000000000000000000815250604051806060016040528060248152602001612138602491398361077b9092919063ffffffff16565b6103866040518060400160405280600481526020017f70617468000000000000000000000000000000000000000000000000000000008152506040518060400160405280600681526020017f302c7465787400000000000000000000000000000000000000000000000000008152508361077b9092919063ffffffff16565b61039281600a546107ae565b915050919050565b600880546103a790611682565b80601f01602080910402602001604051908101604052809291908181526020018280546103d390611682565b80156104205780601f106103f557610100808354040283529160200191610420565b820191906000526020600020905b81548152906001019060200180831161040357829003601f168201915b505050505081565b600760009054906101000a900473ffffffffffffffffffffffffffffffffffffffff1673ffffffffffffffffffffffffffffffffffffffff163373ffffffffffffffffffffffffffffffffffffffff16146104b8576040517f08c379a00000000000000000000000000000000000000000000000000000000081526004016104af9061197d565b60405180910390fd5b6000600660009054906101000a900473ffffffffffffffffffffffffffffffffffffffff16905033600660006101000a81548173ffffffffffffffffffffffffffffffffffffffff021916908373ffffffffffffffffffffffffffffffffffffffff1602179055506000600760006101000a81548173ffffffffffffffffffffffffffffffffffffffff021916908373ffffffffffffffffffffffffffffffffffffffff1602179055503373ffffffffffffffffffffffffffffffffffffffff168173ffffffffffffffffffffffffffffffffffffffff167f8be0079c531659141344cd1fd0a4f28419497f9722a3daafe3b4186f6b6457e060405160405180910390a350565b6000600660009054906101000a900473ffffffffffffffffffffffffffffffffffffffff16905090565b6105f16107e5565b60006105fb610877565b90508073ffffffffffffffffffffffffffffffffffffffff1663a9059cbb338373ffffffffffffffffffffffffffffffffffffffff166370a08231306040518263ffffffff1660e01b8152600401610653919061154d565b602060405180830381865afa158015610670573d6000803e3d6000fd5b505050506040513d601f19601f8201168201806040525081019061069491906119b2565b6040518363ffffffff1660e01b81526004016106b19291906119ee565b6020604051808303816000875af11580156106d0573d6000803e3d6000fd5b505050506040513d601f19601f820116820180604052508101906106f49190611a4f565b610733576040517f08c379a000000000000000000000000000000000000000000000000000000000815260040161072a90611ac8565b60405180910390fd5b50565b61073e6107e5565b610747816108a1565b50565b61075261116b565b61075a61116b565b610771858585846109cf909392919063ffffffff16565b9150509392505050565b610792828460800151610a7f90919063ffffffff16565b6107a9818460800151610a7f90919063ffffffff16565b505050565b60006107dd600360009054906101000a900473ffffffffffffffffffffffffffffffffffffffff168484610aa4565b905092915050565b600660009054906101000a900473ffffffffffffffffffffffffffffffffffffffff1673ffffffffffffffffffffffffffffffffffffffff163373ffffffffffffffffffffffffffffffffffffffff1614610875576040517f08c379a000000000000000000000000000000000000000000000000000000000815260040161086c90611b34565b60405180910390fd5b565b6000600260009054906101000a900473ffffffffffffffffffffffffffffffffffffffff16905090565b3373ffffffffffffffffffffffffffffffffffffffff168173ffffffffffffffffffffffffffffffffffffffff160361090f576040517f08c379a000000000000000000000000000000000000000000000000000000000815260040161090690611ba0565b60405180910390fd5b80600760006101000a81548173ffffffffffffffffffffffffffffffffffffffff021916908373ffffffffffffffffffffffffffffffffffffffff1602179055508073ffffffffffffffffffffffffffffffffffffffff16600660009054906101000a900473ffffffffffffffffffffffffffffffffffffffff1673ffffffffffffffffffffffffffffffffffffffff167fed8889f560326eb138920d842192f0eb3dd22b4f139c87a2c57538e05bae127860405160405180910390a350565b6109d761116b565b6109e78560800151610100610b70565b508385600001818152505082856020019073ffffffffffffffffffffffffffffffffffffffff16908173ffffffffffffffffffffffffffffffffffffffff16815250508185604001907bffffffffffffffffffffffffffffffffffffffffffffffffffffffff191690817bffffffffffffffffffffffffffffffffffffffffffffffffffffffff191681525050849050949350505050565b610a8c8260038351610bda565b610a9f8183610d5f90919063ffffffff16565b505050565b6000806004549050600181610ab99190611bef565b6004819055506000634042994660e01b60008087600001513089604001518760018c6080015160000151604051602401610afa989796959493929190611cb3565b604051602081830303815290604052907bffffffffffffffffffffffffffffffffffffffffffffffffffffffff19166020820180517bffffffffffffffffffffffffffffffffffffffffffffffffffffffff83818316178352505050509050610b6586838684610d81565b925050509392505050565b610b786111d8565b6000602083610b879190611d67565b14610bb357602082610b999190611d67565b6020610ba59190611d98565b82610bb09190611bef565b91505b81836020018181525050604051808452600081528281016020016040525082905092915050565b60178167ffffffffffffffff1611610c1157610c0b8160058460ff16901b60ff161784610f1690919063ffffffff16565b50610d5a565b60ff8167ffffffffffffffff1611610c6757610c40601860058460ff16901b1784610f1690919063ffffffff16565b50610c618167ffffffffffffffff16600185610f369092919063ffffffff16565b50610d59565b61ffff8167ffffffffffffffff1611610cbe57610c97601960058460ff16901b1784610f1690919063ffffffff16565b50610cb88167ffffffffffffffff16600285610f369092919063ffffffff16565b50610d58565b63ffffffff8167ffffffffffffffff1611610d1757610cf0601a60058460ff16901b1784610f1690919063ffffffff16565b50610d118167ffffffffffffffff16600485610f369092919063ffffffff16565b50610d57565b610d34601b60058460ff16901b1784610f1690919063ffffffff16565b50610d558167ffffffffffffffff16600885610f369092919063ffffffff16565b505b5b5b5b505050565b610d676111d8565b610d7983846000015151848551610f58565b905092915050565b60003084604051602001610d96929190611e7b565b604051602081830303815290604052805190602001209050846005600083815260200190815260200160002060006101000a81548173ffffffffffffffffffffffffffffffffffffffff021916908373ffffffffffffffffffffffffffffffffffffffff160217905550807fb5e6e01e79f91267dc17b4e6314d5d4d03593d2ceee0fbb452b750bd70ea5af960405160405180910390a2600260009054906101000a900473ffffffffffffffffffffffffffffffffffffffff1673ffffffffffffffffffffffffffffffffffffffff16634000aea08685856040518463ffffffff1660e01b8152600401610e8c93929190611ea7565b6020604051808303816000875af1158015610eab573d6000803e3d6000fd5b505050506040513d601f19601f82011682018060405250810190610ecf9190611a4f565b610f0e576040517f08c379a0000000000000000000000000000000000000000000000000000000008152600401610f0590611f57565b60405180910390fd5b949350505050565b610f1e6111d8565b610f2e8384600001515184611047565b905092915050565b610f3e6111d8565b610f4f84856000015151858561109d565b90509392505050565b610f606111d8565b8251821115610f6e57600080fd5b84602001518285610f7f9190611bef565b1115610fb457610fb3856002610fa488602001518887610f9f9190611bef565b61112b565b610fae9190611f77565b611147565b5b600080865180518760208301019350808887011115610fd35787860182525b60208701925050505b6020841061101a5780518252602082610ff59190611bef565b91506020816110049190611bef565b90506020846110139190611d98565b9350610fdc565b60006001856020036101000a03905080198251168184511681811785525050508692505050949350505050565b61104f6111d8565b8360200151831061107557611074846002866020015161106f9190611f77565b611147565b5b83518051602085830101848153818603611090576001820183525b5050508390509392505050565b6110a56111d8565b846020015184836110b69190611bef565b11156110de576110dd85600286856110ce9190611bef565b6110d89190611f77565b611147565b5b60006001836101006110f091906120ec565b6110fa9190611d98565b9050855183868201018583198251161781528151858801111561111d5784870182525b505085915050949350505050565b60008183111561113d57829050611141565b8190505b92915050565b60008260000151905061115a8383610b70565b506111658382610d5f565b50505050565b6040518060a0016040528060008019168152602001600073ffffffffffffffffffffffffffffffffffffffff16815260200160007bffffffffffffffffffffffffffffffffffffffffffffffffffffffff19168152602001600081526020016111d26111d8565b81525090565b604051806040016040528060608152602001600081525090565b6000604051905090565b600080fd5b600080fd5b6000819050919050565b61121981611206565b811461122457600080fd5b50565b60008135905061123681611210565b92915050565b600080fd5b600080fd5b6000601f19601f8301169050919050565b7f4e487b7100000000000000000000000000000000000000000000000000000000600052604160045260246000fd5b61128f82611246565b810181811067ffffffffffffffff821117156112ae576112ad611257565b5b80604052505050565b60006112c16111f2565b90506112cd8282611286565b919050565b600067ffffffffffffffff8211156112ed576112ec611257565b5b6112f682611246565b9050602081019050919050565b82818337600083830152505050565b6000611325611320846112d2565b6112b7565b90508281526020810184848401111561134157611340611241565b5b61134c848285611303565b509392505050565b600082601f8301126113695761136861123c565b5b8135611379848260208601611312565b91505092915050565b60008060408385031215611399576113986111fc565b5b60006113a785828601611227565b925050602083013567ffffffffffffffff8111156113c8576113c7611201565b5b6113d485828601611354565b9150509250929050565b6000819050919050565b6113f1816113de565b81146113fc57600080fd5b50565b60008135905061140e816113e8565b92915050565b60006020828403121561142a576114296111fc565b5b6000611438848285016113ff565b91505092915050565b61144a81611206565b82525050565b60006020820190506114656000830184611441565b92915050565b600081519050919050565b600082825260208201905092915050565b60005b838110156114a557808201518184015260208101905061148a565b60008484015250505050565b60006114bc8261146b565b6114c68185611476565b93506114d6818560208601611487565b6114df81611246565b840191505092915050565b6000602082019050818103600083015261150481846114b1565b905092915050565b600073ffffffffffffffffffffffffffffffffffffffff82169050919050565b60006115378261150c565b9050919050565b6115478161152c565b82525050565b6000602082019050611562600083018461153e565b92915050565b6115718161152c565b811461157c57600080fd5b50565b60008135905061158e81611568565b92915050565b6000602082840312156115aa576115a96111fc565b5b60006115b88482850161157f565b91505092915050565b7f536f75726365206d75737420626520746865206f7261636c65206f662074686560008201527f2072657175657374000000000000000000000000000000000000000000000000602082015250565b600061161d602883611476565b9150611628826115c1565b604082019050919050565b6000602082019050818103600083015261164c81611610565b9050919050565b7f4e487b7100000000000000000000000000000000000000000000000000000000600052602260045260246000fd5b6000600282049050600182168061169a57607f821691505b6020821081036116ad576116ac611653565b5b50919050565b60008190508160005260206000209050919050565b60006020601f8301049050919050565b600082821b905092915050565b6000600883026117157fffffffffffffffffffffffffffffffffffffffffffffffffffffffffffffffff826116d8565b61171f86836116d8565b95508019841693508086168417925050509392505050565b6000819050919050565b600061175c611757611752846113de565b611737565b6113de565b9050919050565b6000819050919050565b61177683611741565b61178a61178282611763565b8484546116e5565b825550505050565b600090565b61179f611792565b6117aa81848461176d565b505050565b5b818110156117ce576117c3600082611797565b6001810190506117b0565b5050565b601f821115611813576117e4816116b3565b6117ed846116c8565b810160208510156117fc578190505b611810611808856116c8565b8301826117af565b50505b505050565b600082821c905092915050565b600061183660001984600802611818565b1980831691505092915050565b600061184f8383611825565b9150826002028217905092915050565b6118688261146b565b67ffffffffffffffff81111561188157611880611257565b5b61188b8254611682565b6118968282856117d2565b600060209050601f8311600181146118c957600084156118b7578287015190505b6118c18582611843565b865550611929565b601f1984166118d7866116b3565b60005b828110156118ff578489015182556001820191506020850194506020810190506118da565b8683101561191c5784890151611918601f891682611825565b8355505b6001600288020188555050505b505050505050565b7f4d7573742062652070726f706f736564206f776e657200000000000000000000600082015250565b6000611967601683611476565b915061197282611931565b602082019050919050565b600060208201905081810360008301526119968161195a565b9050919050565b6000815190506119ac816113e8565b92915050565b6000602082840312156119c8576119c76111fc565b5b60006119d68482850161199d565b91505092915050565b6119e8816113de565b82525050565b6000604082019050611a03600083018561153e565b611a1060208301846119df565b9392505050565b60008115159050919050565b611a2c81611a17565b8114611a3757600080fd5b50565b600081519050611a4981611a23565b92915050565b600060208284031215611a6557611a646111fc565b5b6000611a7384828501611a3a565b91505092915050565b7f556e61626c6520746f207472616e736665720000000000000000000000000000600082015250565b6000611ab2601283611476565b9150611abd82611a7c565b602082019050919050565b60006020820190508181036000830152611ae181611aa5565b9050919050565b7f4f6e6c792063616c6c61626c65206279206f776e657200000000000000000000600082015250565b6000611b1e601683611476565b9150611b2982611ae8565b602082019050919050565b60006020820190508181036000830152611b4d81611b11565b9050919050565b7f43616e6e6f74207472616e7366657220746f2073656c66000000000000000000600082015250565b6000611b8a601783611476565b9150611b9582611b54565b602082019050919050565b60006020820190508181036000830152611bb981611b7d565b9050919050565b7f4e487b7100000000000000000000000000000000000000000000000000000000600052601160045260246000fd5b6000611bfa826113de565b9150611c05836113de565b9250828201905080821115611c1d57611c1c611bc0565b5b92915050565b60007fffffffff0000000000000000000000000000000000000000000000000000000082169050919050565b611c5881611c23565b82525050565b600081519050919050565b600082825260208201905092915050565b6000611c8582611c5e565b611c8f8185611c69565b9350611c9f818560208601611487565b611ca881611246565b840191505092915050565b600061010082019050611cc9600083018b61153e565b611cd6602083018a6119df565b611ce36040830189611441565b611cf0606083018861153e565b611cfd6080830187611c4f565b611d0a60a08301866119df565b611d1760c08301856119df565b81810360e0830152611d298184611c7a565b90509998505050505050505050565b7f4e487b7100000000000000000000000000000000000000000000000000000000600052601260045260246000fd5b6000611d72826113de565b9150611d7d836113de565b925082611d8d57611d8c611d38565b5b828206905092915050565b6000611da3826113de565b9150611dae836113de565b9250828203905081811115611dc657611dc5611bc0565b5b92915050565b6000611de7611de2611ddd8461150c565b611737565b61150c565b9050919050565b6000611df982611dcc565b9050919050565b6000611e0b82611dee565b9050919050565b60008160601b9050919050565b6000611e2a82611e12565b9050919050565b6000611e3c82611e1f565b9050919050565b611e54611e4f82611e00565b611e31565b82525050565b6000819050919050565b611e75611e70826113de565b611e5a565b82525050565b6000611e878285611e43565b601482019150611e978284611e64565b6020820191508190509392505050565b6000606082019050611ebc600083018661153e565b611ec960208301856119df565b8181036040830152611edb8184611c7a565b9050949350505050565b7f756e61626c6520746f207472616e73666572416e6443616c6c20746f206f726160008201527f636c650000000000000000000000000000000000000000000000000000000000602082015250565b6000611f41602383611476565b9150611f4c82611ee5565b604082019050919050565b60006020820190508181036000830152611f7081611f34565b9050919050565b6000611f82826113de565b9150611f8d836113de565b9250828202611f9b816113de565b91508282048414831517611fb257611fb1611bc0565b5b5092915050565b60008160011c9050919050565b6000808291508390505b600185111561201057808604811115611fec57611feb611bc0565b5b6001851615611ffb5780820291505b808102905061200985611fb9565b9450611fd0565b94509492505050565b60008261202957600190506120e5565b8161203757600090506120e5565b816001811461204d576002811461205757612086565b60019150506120e5565b60ff84111561206957612068611bc0565b5b8360020a9150848211156120805761207f611bc0565b5b506120e5565b5060208310610133831016604e8410600b84101617156120bb5782820a9050838111156120b6576120b5611bc0565b5b6120e5565b6120c88484846001611fc6565b925090508184048111156120df576120de611bc0565b5b81810290505b9392505050565b60006120f7826113de565b9150612102836113de565b925061212f7fffffffffffffffffffffffffffffffffffffffffffffffffffffffffffffffff8484612019565b90509291505056fe68747470733a2f2f6361742d666163742e6865726f6b756170702e636f6d2f6661637473a264697066735822122000b3ff4579f94823cea9b17f50a9b3fc70b6e798e971ae4270c39a75e97b341b64736f6c63430008120033",
					"opcodes": "PUSH1 0x80 PUSH1 0x40 MSTORE PUSH1 0x1 PUSH1 0x4 SSTORE CALLVALUE DUP1 ISZERO PUSH3 0x16 JUMPI PUSH1 0x0 DUP1 REVERT JUMPDEST POP CALLER DUP1 PUSH1 0x0 DUP1 PUSH20 0xFFFFFFFFFFFFFFFFFFFFFFFFFFFFFFFFFFFFFFFF AND DUP3 PUSH20 0xFFFFFFFFFFFFFFFFFFFFFFFFFFFFFFFFFFFFFFFF AND SUB PUSH3 0x8C JUMPI PUSH1 0x40 MLOAD PUSH32 0x8C379A000000000000000000000000000000000000000000000000000000000 DUP2 MSTORE PUSH1 0x4 ADD PUSH3 0x83 SWAP1 PUSH3 0x3D3 JUMP JUMPDEST PUSH1 0x40 MLOAD DUP1 SWAP2 SUB SWAP1 REVERT JUMPDEST DUP2 PUSH1 0x6 PUSH1 0x0 PUSH2 0x100 EXP DUP2 SLOAD DUP2 PUSH20 0xFFFFFFFFFFFFFFFFFFFFFFFFFFFFFFFFFFFFFFFF MUL NOT AND SWAP1 DUP4 PUSH20 0xFFFFFFFFFFFFFFFFFFFFFFFFFFFFFFFFFFFFFFFF AND MUL OR SWAP1 SSTORE POP PUSH1 0x0 PUSH20 0xFFFFFFFFFFFFFFFFFFFFFFFFFFFFFFFFFFFFFFFF AND DUP2 PUSH20 0xFFFFFFFFFFFFFFFFFFFFFFFFFFFFFFFFFFFFFFFF AND EQ PUSH3 0x114 JUMPI PUSH3 0x113 DUP2 PUSH3 0x1B9 PUSH1 0x20 SHL PUSH1 0x20 SHR JUMP JUMPDEST JUMPDEST POP POP POP PUSH3 0x13C PUSH20 0x779877A7B0D9E8603169DDBD7836E478B4624789 PUSH3 0x2EA PUSH1 0x20 SHL PUSH1 0x20 SHR JUMP JUMPDEST PUSH3 0x161 PUSH20 0x6090149792DAAEE9D1D568C9F9A6F6B46AA29EFD PUSH3 0x32E PUSH1 0x20 SHL PUSH1 0x20 SHR JUMP JUMPDEST PUSH32 0x3764383061363338366566353433613361626235323831376636373037653362 PUSH1 0x9 DUP2 SWAP1 SSTORE POP PUSH1 0xA PUSH8 0xDE0B6B3A7640000 PUSH1 0x1 PUSH3 0x1A1 SWAP2 SWAP1 PUSH3 0x42E JUMP JUMPDEST PUSH3 0x1AD SWAP2 SWAP1 PUSH3 0x4A8 JUMP JUMPDEST PUSH1 0xA DUP2 SWAP1 SSTORE POP PUSH3 0x552 JUMP JUMPDEST CALLER PUSH20 0xFFFFFFFFFFFFFFFFFFFFFFFFFFFFFFFFFFFFFFFF AND DUP2 PUSH20 0xFFFFFFFFFFFFFFFFFFFFFFFFFFFFFFFFFFFFFFFF AND SUB PUSH3 0x22A JUMPI PUSH1 0x40 MLOAD PUSH32 0x8C379A000000000000000000000000000000000000000000000000000000000 DUP2 MSTORE PUSH1 0x4 ADD PUSH3 0x221 SWAP1 PUSH3 0x530 JUMP JUMPDEST PUSH1 0x40 MLOAD DUP1 SWAP2 SUB SWAP1 REVERT JUMPDEST DUP1 PUSH1 0x7 PUSH1 0x0 PUSH2 0x100 EXP DUP2 SLOAD DUP2 PUSH20 0xFFFFFFFFFFFFFFFFFFFFFFFFFFFFFFFFFFFFFFFF MUL NOT AND SWAP1 DUP4 PUSH20 0xFFFFFFFFFFFFFFFFFFFFFFFFFFFFFFFFFFFFFFFF AND MUL OR SWAP1 SSTORE POP DUP1 PUSH20 0xFFFFFFFFFFFFFFFFFFFFFFFFFFFFFFFFFFFFFFFF AND PUSH1 0x6 PUSH1 0x0 SWAP1 SLOAD SWAP1 PUSH2 0x100 EXP SWAP1 DIV PUSH20 0xFFFFFFFFFFFFFFFFFFFFFFFFFFFFFFFFFFFFFFFF AND PUSH20 0xFFFFFFFFFFFFFFFFFFFFFFFFFFFFFFFFFFFFFFFF AND PUSH32 0xED8889F560326EB138920D842192F0EB3DD22B4F139C87A2C57538E05BAE1278 PUSH1 0x40 MLOAD PUSH1 0x40 MLOAD DUP1 SWAP2 SUB SWAP1 LOG3 POP JUMP JUMPDEST DUP1 PUSH1 0x2 PUSH1 0x0 PUSH2 0x100 EXP DUP2 SLOAD DUP2 PUSH20 0xFFFFFFFFFFFFFFFFFFFFFFFFFFFFFFFFFFFFFFFF MUL NOT AND SWAP1 DUP4 PUSH20 0xFFFFFFFFFFFFFFFFFFFFFFFFFFFFFFFFFFFFFFFF AND MUL OR SWAP1 SSTORE POP POP JUMP JUMPDEST DUP1 PUSH1 0x3 PUSH1 0x0 PUSH2 0x100 EXP DUP2 SLOAD DUP2 PUSH20 0xFFFFFFFFFFFFFFFFFFFFFFFFFFFFFFFFFFFFFFFF MUL NOT AND SWAP1 DUP4 PUSH20 0xFFFFFFFFFFFFFFFFFFFFFFFFFFFFFFFFFFFFFFFF AND MUL OR SWAP1 SSTORE POP POP JUMP JUMPDEST PUSH1 0x0 DUP3 DUP3 MSTORE PUSH1 0x20 DUP3 ADD SWAP1 POP SWAP3 SWAP2 POP POP JUMP JUMPDEST PUSH32 0x43616E6E6F7420736574206F776E657220746F207A65726F0000000000000000 PUSH1 0x0 DUP3 ADD MSTORE POP JUMP JUMPDEST PUSH1 0x0 PUSH3 0x3BB PUSH1 0x18 DUP4 PUSH3 0x372 JUMP JUMPDEST SWAP2 POP PUSH3 0x3C8 DUP3 PUSH3 0x383 JUMP JUMPDEST PUSH1 0x20 DUP3 ADD SWAP1 POP SWAP2 SWAP1 POP JUMP JUMPDEST PUSH1 0x0 PUSH1 0x20 DUP3 ADD SWAP1 POP DUP2 DUP2 SUB PUSH1 0x0 DUP4 ADD MSTORE PUSH3 0x3EE DUP2 PUSH3 0x3AC JUMP JUMPDEST SWAP1 POP SWAP2 SWAP1 POP JUMP JUMPDEST PUSH1 0x0 DUP2 SWAP1 POP SWAP2 SWAP1 POP JUMP JUMPDEST PUSH32 0x4E487B7100000000000000000000000000000000000000000000000000000000 PUSH1 0x0 MSTORE PUSH1 0x11 PUSH1 0x4 MSTORE PUSH1 0x24 PUSH1 0x0 REVERT JUMPDEST PUSH1 0x0 PUSH3 0x43B DUP3 PUSH3 0x3F5 JUMP JUMPDEST SWAP2 POP PUSH3 0x448 DUP4 PUSH3 0x3F5 JUMP JUMPDEST SWAP3 POP DUP3 DUP3 MUL PUSH3 0x458 DUP2 PUSH3 0x3F5 JUMP JUMPDEST SWAP2 POP DUP3 DUP3 DIV DUP5 EQ DUP4 ISZERO OR PUSH3 0x472 JUMPI PUSH3 0x471 PUSH3 0x3FF JUMP JUMPDEST JUMPDEST POP SWAP3 SWAP2 POP POP JUMP JUMPDEST PUSH32 0x4E487B7100000000000000000000000000000000000000000000000000000000 PUSH1 0x0 MSTORE PUSH1 0x12 PUSH1 0x4 MSTORE PUSH1 0x24 PUSH1 0x0 REVERT JUMPDEST PUSH1 0x0 PUSH3 0x4B5 DUP3 PUSH3 0x3F5 JUMP JUMPDEST SWAP2 POP PUSH3 0x4C2 DUP4 PUSH3 0x3F5 JUMP JUMPDEST SWAP3 POP DUP3 PUSH3 0x4D5 JUMPI PUSH3 0x4D4 PUSH3 0x479 JUMP JUMPDEST JUMPDEST DUP3 DUP3 DIV SWAP1 POP SWAP3 SWAP2 POP POP JUMP JUMPDEST PUSH32 0x43616E6E6F74207472616E7366657220746F2073656C66000000000000000000 PUSH1 0x0 DUP3 ADD MSTORE POP JUMP JUMPDEST PUSH1 0x0 PUSH3 0x518 PUSH1 0x17 DUP4 PUSH3 0x372 JUMP JUMPDEST SWAP2 POP PUSH3 0x525 DUP3 PUSH3 0x4E0 JUMP JUMPDEST PUSH1 0x20 DUP3 ADD SWAP1 POP SWAP2 SWAP1 POP JUMP JUMPDEST PUSH1 0x0 PUSH1 0x20 DUP3 ADD SWAP1 POP DUP2 DUP2 SUB PUSH1 0x0 DUP4 ADD MSTORE PUSH3 0x54B DUP2 PUSH3 0x509 JUMP JUMPDEST SWAP1 POP SWAP2 SWAP1 POP JUMP JUMPDEST PUSH2 0x2191 DUP1 PUSH3 0x562 PUSH1 0x0 CODECOPY PUSH1 0x0 RETURN INVALID PUSH1 0x80 PUSH1 0x40 MSTORE CALLVALUE DUP1 ISZERO PUSH2 0x10 JUMPI PUSH1 0x0 DUP1 REVERT JUMPDEST POP PUSH1 0x4 CALLDATASIZE LT PUSH2 0x7D JUMPI PUSH1 0x0 CALLDATALOAD PUSH1 0xE0 SHR DUP1 PUSH4 0x79BA5097 GT PUSH2 0x5B JUMPI DUP1 PUSH4 0x79BA5097 EQ PUSH2 0xEC JUMPI DUP1 PUSH4 0x8DA5CB5B EQ PUSH2 0xF6 JUMPI DUP1 PUSH4 0x8DC654A2 EQ PUSH2 0x114 JUMPI DUP1 PUSH4 0xF2FDE38B EQ PUSH2 0x11E JUMPI PUSH2 0x7D JUMP JUMPDEST DUP1 PUSH4 0x37441996 EQ PUSH2 0x82 JUMPI DUP1 PUSH4 0x684EDE7F EQ PUSH2 0x9E JUMPI DUP1 PUSH4 0x73E3CE80 EQ PUSH2 0xCE JUMPI JUMPDEST PUSH1 0x0 DUP1 REVERT JUMPDEST PUSH2 0x9C PUSH1 0x4 DUP1 CALLDATASIZE SUB DUP2 ADD SWAP1 PUSH2 0x97 SWAP2 SWAP1 PUSH2 0x1382 JUMP JUMPDEST PUSH2 0x13A JUMP JUMPDEST STOP JUMPDEST PUSH2 0xB8 PUSH1 0x4 DUP1 CALLDATASIZE SUB DUP2 ADD SWAP1 PUSH2 0xB3 SWAP2 SWAP1 PUSH2 0x1414 JUMP JUMPDEST PUSH2 0x28C JUMP JUMPDEST PUSH1 0x40 MLOAD PUSH2 0xC5 SWAP2 SWAP1 PUSH2 0x1450 JUMP JUMPDEST PUSH1 0x40 MLOAD DUP1 SWAP2 SUB SWAP1 RETURN JUMPDEST PUSH2 0xD6 PUSH2 0x39A JUMP JUMPDEST PUSH1 0x40 MLOAD PUSH2 0xE3 SWAP2 SWAP1 PUSH2 0x14EA JUMP JUMPDEST PUSH1 0x40 MLOAD DUP1 SWAP2 SUB SWAP1 RETURN JUMPDEST PUSH2 0xF4 PUSH2 0x428 JUMP JUMPDEST STOP JUMPDEST PUSH2 0xFE PUSH2 0x5BF JUMP JUMPDEST PUSH1 0x40 MLOAD PUSH2 0x10B SWAP2 SWAP1 PUSH2 0x154D JUMP JUMPDEST PUSH1 0x40 MLOAD DUP1 SWAP2 SUB SWAP1 RETURN JUMPDEST PUSH2 0x11C PUSH2 0x5E9 JUMP JUMPDEST STOP JUMPDEST PUSH2 0x138 PUSH1 0x4 DUP1 CALLDATASIZE SUB DUP2 ADD SWAP1 PUSH2 0x133 SWAP2 SWAP1 PUSH2 0x1594 JUMP JUMPDEST PUSH2 0x736 JUMP JUMPDEST STOP JUMPDEST DUP2 PUSH1 0x5 PUSH1 0x0 DUP3 DUP2 MSTORE PUSH1 0x20 ADD SWAP1 DUP2 MSTORE PUSH1 0x20 ADD PUSH1 0x0 KECCAK256 PUSH1 0x0 SWAP1 SLOAD SWAP1 PUSH2 0x100 EXP SWAP1 DIV PUSH20 0xFFFFFFFFFFFFFFFFFFFFFFFFFFFFFFFFFFFFFFFF AND PUSH20 0xFFFFFFFFFFFFFFFFFFFFFFFFFFFFFFFFFFFFFFFF AND CALLER PUSH20 0xFFFFFFFFFFFFFFFFFFFFFFFFFFFFFFFFFFFFFFFF AND EQ PUSH2 0x1DC JUMPI PUSH1 0x40 MLOAD PUSH32 0x8C379A000000000000000000000000000000000000000000000000000000000 DUP2 MSTORE PUSH1 0x4 ADD PUSH2 0x1D3 SWAP1 PUSH2 0x1633 JUMP JUMPDEST PUSH1 0x40 MLOAD DUP1 SWAP2 SUB SWAP1 REVERT JUMPDEST PUSH1 0x5 PUSH1 0x0 DUP3 DUP2 MSTORE PUSH1 0x20 ADD SWAP1 DUP2 MSTORE PUSH1 0x20 ADD PUSH1 0x0 KECCAK256 PUSH1 0x0 PUSH2 0x100 EXP DUP2 SLOAD SWAP1 PUSH20 0xFFFFFFFFFFFFFFFFFFFFFFFFFFFFFFFFFFFFFFFF MUL NOT AND SWAP1 SSTORE DUP1 PUSH32 0x7CC135E0CEBB02C3480AE5D74D377283180A2601F8F644EDF7987B009316C63A PUSH1 0x40 MLOAD PUSH1 0x40 MLOAD DUP1 SWAP2 SUB SWAP1 LOG2 DUP3 PUSH32 0xA7110CE3E25401D4EE3BB18DCFB701381CAA81D87AB3E4A77558FCA28B7144F1 DUP4 PUSH1 0x40 MLOAD PUSH2 0x26F SWAP2 SWAP1 PUSH2 0x14EA JUMP JUMPDEST PUSH1 0x40 MLOAD DUP1 SWAP2 SUB SWAP1 LOG2 DUP2 PUSH1 0x8 SWAP1 DUP2 PUSH2 0x286 SWAP2 SWAP1 PUSH2 0x185F JUMP JUMPDEST POP POP POP POP JUMP JUMPDEST PUSH1 0x0 DUP1 PUSH2 0x2A3 PUSH1 0x9 SLOAD ADDRESS PUSH4 0x37441996 PUSH1 0xE0 SHL PUSH2 0x74A JUMP JUMPDEST SWAP1 POP PUSH2 0x307 PUSH1 0x40 MLOAD DUP1 PUSH1 0x40 ADD PUSH1 0x40 MSTORE DUP1 PUSH1 0x3 DUP2 MSTORE PUSH1 0x20 ADD PUSH32 0x6765740000000000000000000000000000000000000000000000000000000000 DUP2 MSTORE POP PUSH1 0x40 MLOAD DUP1 PUSH1 0x60 ADD PUSH1 0x40 MSTORE DUP1 PUSH1 0x24 DUP2 MSTORE PUSH1 0x20 ADD PUSH2 0x2138 PUSH1 0x24 SWAP2 CODECOPY DUP4 PUSH2 0x77B SWAP1 SWAP3 SWAP2 SWAP1 PUSH4 0xFFFFFFFF AND JUMP JUMPDEST PUSH2 0x386 PUSH1 0x40 MLOAD DUP1 PUSH1 0x40 ADD PUSH1 0x40 MSTORE DUP1 PUSH1 0x4 DUP2 MSTORE PUSH1 0x20 ADD PUSH32 0x7061746800000000000000000000000000000000000000000000000000000000 DUP2 MSTORE POP PUSH1 0x40 MLOAD DUP1 PUSH1 0x40 ADD PUSH1 0x40 MSTORE DUP1 PUSH1 0x6 DUP2 MSTORE PUSH1 0x20 ADD PUSH32 0x302C746578740000000000000000000000000000000000000000000000000000 DUP2 MSTORE POP DUP4 PUSH2 0x77B SWAP1 SWAP3 SWAP2 SWAP1 PUSH4 0xFFFFFFFF AND JUMP JUMPDEST PUSH2 0x392 DUP2 PUSH1 0xA SLOAD PUSH2 0x7AE JUMP JUMPDEST SWAP2 POP POP SWAP2 SWAP1 POP JUMP JUMPDEST PUSH1 0x8 DUP1 SLOAD PUSH2 0x3A7 SWAP1 PUSH2 0x1682 JUMP JUMPDEST DUP1 PUSH1 0x1F ADD PUSH1 0x20 DUP1 SWAP2 DIV MUL PUSH1 0x20 ADD PUSH1 0x40 MLOAD SWAP1 DUP2 ADD PUSH1 0x40 MSTORE DUP1 SWAP3 SWAP2 SWAP1 DUP2 DUP2 MSTORE PUSH1 0x20 ADD DUP3 DUP1 SLOAD PUSH2 0x3D3 SWAP1 PUSH2 0x1682 JUMP JUMPDEST DUP1 ISZERO PUSH2 0x420 JUMPI DUP1 PUSH1 0x1F LT PUSH2 0x3F5 JUMPI PUSH2 0x100 DUP1 DUP4 SLOAD DIV MUL DUP4 MSTORE SWAP2 PUSH1 0x20 ADD SWAP2 PUSH2 0x420 JUMP JUMPDEST DUP3 ADD SWAP2 SWAP1 PUSH1 0x0 MSTORE PUSH1 0x20 PUSH1 0x0 KECCAK256 SWAP1 JUMPDEST DUP2 SLOAD DUP2 MSTORE SWAP1 PUSH1 0x1 ADD SWAP1 PUSH1 0x20 ADD DUP1 DUP4 GT PUSH2 0x403 JUMPI DUP3 SWAP1 SUB PUSH1 0x1F AND DUP3 ADD SWAP2 JUMPDEST POP POP POP POP POP DUP2 JUMP JUMPDEST PUSH1 0x7 PUSH1 0x0 SWAP1 SLOAD SWAP1 PUSH2 0x100 EXP SWAP1 DIV PUSH20 0xFFFFFFFFFFFFFFFFFFFFFFFFFFFFFFFFFFFFFFFF AND PUSH20 0xFFFFFFFFFFFFFFFFFFFFFFFFFFFFFFFFFFFFFFFF AND CALLER PUSH20 0xFFFFFFFFFFFFFFFFFFFFFFFFFFFFFFFFFFFFFFFF AND EQ PUSH2 0x4B8 JUMPI PUSH1 0x40 MLOAD PUSH32 0x8C379A000000000000000000000000000000000000000000000000000000000 DUP2 MSTORE PUSH1 0x4 ADD PUSH2 0x4AF SWAP1 PUSH2 0x197D JUMP JUMPDEST PUSH1 0x40 MLOAD DUP1 SWAP2 SUB SWAP1 REVERT JUMPDEST PUSH1 0x0 PUSH1 0x6 PUSH1 0x0 SWAP1 SLOAD SWAP1 PUSH2 0x100 EXP SWAP1 DIV PUSH20 0xFFFFFFFFFFFFFFFFFFFFFFFFFFFFFFFFFFFFFFFF AND SWAP1 POP CALLER PUSH1 0x6 PUSH1 0x0 PUSH2 0x100 EXP DUP2 SLOAD DUP2 PUSH20 0xFFFFFFFFFFFFFFFFFFFFFFFFFFFFFFFFFFFFFFFF MUL NOT AND SWAP1 DUP4 PUSH20 0xFFFFFFFFFFFFFFFFFFFFFFFFFFFFFFFFFFFFFFFF AND MUL OR SWAP1 SSTORE POP PUSH1 0x0 PUSH1 0x7 PUSH1 0x0 PUSH2 0x100 EXP DUP2 SLOAD DUP2 PUSH20 0xFFFFFFFFFFFFFFFFFFFFFFFFFFFFFFFFFFFFFFFF MUL NOT AND SWAP1 DUP4 PUSH20 0xFFFFFFFFFFFFFFFFFFFFFFFFFFFFFFFFFFFFFFFF AND MUL OR SWAP1 SSTORE POP CALLER PUSH20 0xFFFFFFFFFFFFFFFFFFFFFFFFFFFFFFFFFFFFFFFF AND DUP2 PUSH20 0xFFFFFFFFFFFFFFFFFFFFFFFFFFFFFFFFFFFFFFFF AND PUSH32 0x8BE0079C531659141344CD1FD0A4F28419497F9722A3DAAFE3B4186F6B6457E0 PUSH1 0x40 MLOAD PUSH1 0x40 MLOAD DUP1 SWAP2 SUB SWAP1 LOG3 POP JUMP JUMPDEST PUSH1 0x0 PUSH1 0x6 PUSH1 0x0 SWAP1 SLOAD SWAP1 PUSH2 0x100 EXP SWAP1 DIV PUSH20 0xFFFFFFFFFFFFFFFFFFFFFFFFFFFFFFFFFFFFFFFF AND SWAP1 POP SWAP1 JUMP JUMPDEST PUSH2 0x5F1 PUSH2 0x7E5 JUMP JUMPDEST PUSH1 0x0 PUSH2 0x5FB PUSH2 0x877 JUMP JUMPDEST SWAP1 POP DUP1 PUSH20 0xFFFFFFFFFFFFFFFFFFFFFFFFFFFFFFFFFFFFFFFF AND PUSH4 0xA9059CBB CALLER DUP4 PUSH20 0xFFFFFFFFFFFFFFFFFFFFFFFFFFFFFFFFFFFFFFFF AND PUSH4 0x70A08231 ADDRESS PUSH1 0x40 MLOAD DUP3 PUSH4 0xFFFFFFFF AND PUSH1 0xE0 SHL DUP2 MSTORE PUSH1 0x4 ADD PUSH2 0x653 SWAP2 SWAP1 PUSH2 0x154D JUMP JUMPDEST PUSH1 0x20 PUSH1 0x40 MLOAD DUP1 DUP4 SUB DUP2 DUP7 GAS STATICCALL ISZERO DUP1 ISZERO PUSH2 0x670 JUMPI RETURNDATASIZE PUSH1 0x0 DUP1 RETURNDATACOPY RETURNDATASIZE PUSH1 0x0 REVERT JUMPDEST POP POP POP POP PUSH1 0x40 MLOAD RETURNDATASIZE PUSH1 0x1F NOT PUSH1 0x1F DUP3 ADD AND DUP3 ADD DUP1 PUSH1 0x40 MSTORE POP DUP2 ADD SWAP1 PUSH2 0x694 SWAP2 SWAP1 PUSH2 0x19B2 JUMP JUMPDEST PUSH1 0x40 MLOAD DUP4 PUSH4 0xFFFFFFFF AND PUSH1 0xE0 SHL DUP2 MSTORE PUSH1 0x4 ADD PUSH2 0x6B1 SWAP3 SWAP2 SWAP1 PUSH2 0x19EE JUMP JUMPDEST PUSH1 0x20 PUSH1 0x40 MLOAD DUP1 DUP4 SUB DUP2 PUSH1 0x0 DUP8 GAS CALL ISZERO DUP1 ISZERO PUSH2 0x6D0 JUMPI RETURNDATASIZE PUSH1 0x0 DUP1 RETURNDATACOPY RETURNDATASIZE PUSH1 0x0 REVERT JUMPDEST POP POP POP POP PUSH1 0x40 MLOAD RETURNDATASIZE PUSH1 0x1F NOT PUSH1 0x1F DUP3 ADD AND DUP3 ADD DUP1 PUSH1 0x40 MSTORE POP DUP2 ADD SWAP1 PUSH2 0x6F4 SWAP2 SWAP1 PUSH2 0x1A4F JUMP JUMPDEST PUSH2 0x733 JUMPI PUSH1 0x40 MLOAD PUSH32 0x8C379A000000000000000000000000000000000000000000000000000000000 DUP2 MSTORE PUSH1 0x4 ADD PUSH2 0x72A SWAP1 PUSH2 0x1AC8 JUMP JUMPDEST PUSH1 0x40 MLOAD DUP1 SWAP2 SUB SWAP1 REVERT JUMPDEST POP JUMP JUMPDEST PUSH2 0x73E PUSH2 0x7E5 JUMP JUMPDEST PUSH2 0x747 DUP2 PUSH2 0x8A1 JUMP JUMPDEST POP JUMP JUMPDEST PUSH2 0x752 PUSH2 0x116B JUMP JUMPDEST PUSH2 0x75A PUSH2 0x116B JUMP JUMPDEST PUSH2 0x771 DUP6 DUP6 DUP6 DUP5 PUSH2 0x9CF SWAP1 SWAP4 SWAP3 SWAP2 SWAP1 PUSH4 0xFFFFFFFF AND JUMP JUMPDEST SWAP2 POP POP SWAP4 SWAP3 POP POP POP JUMP JUMPDEST PUSH2 0x792 DUP3 DUP5 PUSH1 0x80 ADD MLOAD PUSH2 0xA7F SWAP1 SWAP2 SWAP1 PUSH4 0xFFFFFFFF AND JUMP JUMPDEST PUSH2 0x7A9 DUP2 DUP5 PUSH1 0x80 ADD MLOAD PUSH2 0xA7F SWAP1 SWAP2 SWAP1 PUSH4 0xFFFFFFFF AND JUMP JUMPDEST POP POP POP JUMP JUMPDEST PUSH1 0x0 PUSH2 0x7DD PUSH1 0x3 PUSH1 0x0 SWAP1 SLOAD SWAP1 PUSH2 0x100 EXP SWAP1 DIV PUSH20 0xFFFFFFFFFFFFFFFFFFFFFFFFFFFFFFFFFFFFFFFF AND DUP5 DUP5 PUSH2 0xAA4 JUMP JUMPDEST SWAP1 POP SWAP3 SWAP2 POP POP JUMP JUMPDEST PUSH1 0x6 PUSH1 0x0 SWAP1 SLOAD SWAP1 PUSH2 0x100 EXP SWAP1 DIV PUSH20 0xFFFFFFFFFFFFFFFFFFFFFFFFFFFFFFFFFFFFFFFF AND PUSH20 0xFFFFFFFFFFFFFFFFFFFFFFFFFFFFFFFFFFFFFFFF AND CALLER PUSH20 0xFFFFFFFFFFFFFFFFFFFFFFFFFFFFFFFFFFFFFFFF AND EQ PUSH2 0x875 JUMPI PUSH1 0x40 MLOAD PUSH32 0x8C379A000000000000000000000000000000000000000000000000000000000 DUP2 MSTORE PUSH1 0x4 ADD PUSH2 0x86C SWAP1 PUSH2 0x1B34 JUMP JUMPDEST PUSH1 0x40 MLOAD DUP1 SWAP2 SUB SWAP1 REVERT JUMPDEST JUMP JUMPDEST PUSH1 0x0 PUSH1 0x2 PUSH1 0x0 SWAP1 SLOAD SWAP1 PUSH2 0x100 EXP SWAP1 DIV PUSH20 0xFFFFFFFFFFFFFFFFFFFFFFFFFFFFFFFFFFFFFFFF AND SWAP1 POP SWAP1 JUMP JUMPDEST CALLER PUSH20 0xFFFFFFFFFFFFFFFFFFFFFFFFFFFFFFFFFFFFFFFF AND DUP2 PUSH20 0xFFFFFFFFFFFFFFFFFFFFFFFFFFFFFFFFFFFFFFFF AND SUB PUSH2 0x90F JUMPI PUSH1 0x40 MLOAD PUSH32 0x8C379A000000000000000000000000000000000000000000000000000000000 DUP2 MSTORE PUSH1 0x4 ADD PUSH2 0x906 SWAP1 PUSH2 0x1BA0 JUMP JUMPDEST PUSH1 0x40 MLOAD DUP1 SWAP2 SUB SWAP1 REVERT JUMPDEST DUP1 PUSH1 0x7 PUSH1 0x0 PUSH2 0x100 EXP DUP2 SLOAD DUP2 PUSH20 0xFFFFFFFFFFFFFFFFFFFFFFFFFFFFFFFFFFFFFFFF MUL NOT AND SWAP1 DUP4 PUSH20 0xFFFFFFFFFFFFFFFFFFFFFFFFFFFFFFFFFFFFFFFF AND MUL OR SWAP1 SSTORE POP DUP1 PUSH20 0xFFFFFFFFFFFFFFFFFFFFFFFFFFFFFFFFFFFFFFFF AND PUSH1 0x6 PUSH1 0x0 SWAP1 SLOAD SWAP1 PUSH2 0x100 EXP SWAP1 DIV PUSH20 0xFFFFFFFFFFFFFFFFFFFFFFFFFFFFFFFFFFFFFFFF AND PUSH20 0xFFFFFFFFFFFFFFFFFFFFFFFFFFFFFFFFFFFFFFFF AND PUSH32 0xED8889F560326EB138920D842192F0EB3DD22B4F139C87A2C57538E05BAE1278 PUSH1 0x40 MLOAD PUSH1 0x40 MLOAD DUP1 SWAP2 SUB SWAP1 LOG3 POP JUMP JUMPDEST PUSH2 0x9D7 PUSH2 0x116B JUMP JUMPDEST PUSH2 0x9E7 DUP6 PUSH1 0x80 ADD MLOAD PUSH2 0x100 PUSH2 0xB70 JUMP JUMPDEST POP DUP4 DUP6 PUSH1 0x0 ADD DUP2 DUP2 MSTORE POP POP DUP3 DUP6 PUSH1 0x20 ADD SWAP1 PUSH20 0xFFFFFFFFFFFFFFFFFFFFFFFFFFFFFFFFFFFFFFFF AND SWAP1 DUP2 PUSH20 0xFFFFFFFFFFFFFFFFFFFFFFFFFFFFFFFFFFFFFFFF AND DUP2 MSTORE POP POP DUP2 DUP6 PUSH1 0x40 ADD SWAP1 PUSH28 0xFFFFFFFFFFFFFFFFFFFFFFFFFFFFFFFFFFFFFFFFFFFFFFFFFFFFFFFF NOT AND SWAP1 DUP2 PUSH28 0xFFFFFFFFFFFFFFFFFFFFFFFFFFFFFFFFFFFFFFFFFFFFFFFFFFFFFFFF NOT AND DUP2 MSTORE POP POP DUP5 SWAP1 POP SWAP5 SWAP4 POP POP POP POP JUMP JUMPDEST PUSH2 0xA8C DUP3 PUSH1 0x3 DUP4 MLOAD PUSH2 0xBDA JUMP JUMPDEST PUSH2 0xA9F DUP2 DUP4 PUSH2 0xD5F SWAP1 SWAP2 SWAP1 PUSH4 0xFFFFFFFF AND JUMP JUMPDEST POP POP POP JUMP JUMPDEST PUSH1 0x0 DUP1 PUSH1 0x4 SLOAD SWAP1 POP PUSH1 0x1 DUP2 PUSH2 0xAB9 SWAP2 SWAP1 PUSH2 0x1BEF JUMP JUMPDEST PUSH1 0x4 DUP2 SWAP1 SSTORE POP PUSH1 0x0 PUSH4 0x40429946 PUSH1 0xE0 SHL PUSH1 0x0 DUP1 DUP8 PUSH1 0x0 ADD MLOAD ADDRESS DUP10 PUSH1 0x40 ADD MLOAD DUP8 PUSH1 0x1 DUP13 PUSH1 0x80 ADD MLOAD PUSH1 0x0 ADD MLOAD PUSH1 0x40 MLOAD PUSH1 0x24 ADD PUSH2 0xAFA SWAP9 SWAP8 SWAP7 SWAP6 SWAP5 SWAP4 SWAP3 SWAP2 SWAP1 PUSH2 0x1CB3 JUMP JUMPDEST PUSH1 0x40 MLOAD PUSH1 0x20 DUP2 DUP4 SUB SUB DUP2 MSTORE SWAP1 PUSH1 0x40 MSTORE SWAP1 PUSH28 0xFFFFFFFFFFFFFFFFFFFFFFFFFFFFFFFFFFFFFFFFFFFFFFFFFFFFFFFF NOT AND PUSH1 0x20 DUP3 ADD DUP1 MLOAD PUSH28 0xFFFFFFFFFFFFFFFFFFFFFFFFFFFFFFFFFFFFFFFFFFFFFFFFFFFFFFFF DUP4 DUP2 DUP4 AND OR DUP4 MSTORE POP POP POP POP SWAP1 POP PUSH2 0xB65 DUP7 DUP4 DUP7 DUP5 PUSH2 0xD81 JUMP JUMPDEST SWAP3 POP POP POP SWAP4 SWAP3 POP POP POP JUMP JUMPDEST PUSH2 0xB78 PUSH2 0x11D8 JUMP JUMPDEST PUSH1 0x0 PUSH1 0x20 DUP4 PUSH2 0xB87 SWAP2 SWAP1 PUSH2 0x1D67 JUMP JUMPDEST EQ PUSH2 0xBB3 JUMPI PUSH1 0x20 DUP3 PUSH2 0xB99 SWAP2 SWAP1 PUSH2 0x1D67 JUMP JUMPDEST PUSH1 0x20 PUSH2 0xBA5 SWAP2 SWAP1 PUSH2 0x1D98 JUMP JUMPDEST DUP3 PUSH2 0xBB0 SWAP2 SWAP1 PUSH2 0x1BEF JUMP JUMPDEST SWAP2 POP JUMPDEST DUP2 DUP4 PUSH1 0x20 ADD DUP2 DUP2 MSTORE POP POP PUSH1 0x40 MLOAD DUP1 DUP5 MSTORE PUSH1 0x0 DUP2 MSTORE DUP3 DUP2 ADD PUSH1 0x20 ADD PUSH1 0x40 MSTORE POP DUP3 SWAP1 POP SWAP3 SWAP2 POP POP JUMP JUMPDEST PUSH1 0x17 DUP2 PUSH8 0xFFFFFFFFFFFFFFFF AND GT PUSH2 0xC11 JUMPI PUSH2 0xC0B DUP2 PUSH1 0x5 DUP5 PUSH1 0xFF AND SWAP1 SHL PUSH1 0xFF AND OR DUP5 PUSH2 0xF16 SWAP1 SWAP2 SWAP1 PUSH4 0xFFFFFFFF AND JUMP JUMPDEST POP PUSH2 0xD5A JUMP JUMPDEST PUSH1 0xFF DUP2 PUSH8 0xFFFFFFFFFFFFFFFF AND GT PUSH2 0xC67 JUMPI PUSH2 0xC40 PUSH1 0x18 PUSH1 0x5 DUP5 PUSH1 0xFF AND SWAP1 SHL OR DUP5 PUSH2 0xF16 SWAP1 SWAP2 SWAP1 PUSH4 0xFFFFFFFF AND JUMP JUMPDEST POP PUSH2 0xC61 DUP2 PUSH8 0xFFFFFFFFFFFFFFFF AND PUSH1 0x1 DUP6 PUSH2 0xF36 SWAP1 SWAP3 SWAP2 SWAP1 PUSH4 0xFFFFFFFF AND JUMP JUMPDEST POP PUSH2 0xD59 JUMP JUMPDEST PUSH2 0xFFFF DUP2 PUSH8 0xFFFFFFFFFFFFFFFF AND GT PUSH2 0xCBE JUMPI PUSH2 0xC97 PUSH1 0x19 PUSH1 0x5 DUP5 PUSH1 0xFF AND SWAP1 SHL OR DUP5 PUSH2 0xF16 SWAP1 SWAP2 SWAP1 PUSH4 0xFFFFFFFF AND JUMP JUMPDEST POP PUSH2 0xCB8 DUP2 PUSH8 0xFFFFFFFFFFFFFFFF AND PUSH1 0x2 DUP6 PUSH2 0xF36 SWAP1 SWAP3 SWAP2 SWAP1 PUSH4 0xFFFFFFFF AND JUMP JUMPDEST POP PUSH2 0xD58 JUMP JUMPDEST PUSH4 0xFFFFFFFF DUP2 PUSH8 0xFFFFFFFFFFFFFFFF AND GT PUSH2 0xD17 JUMPI PUSH2 0xCF0 PUSH1 0x1A PUSH1 0x5 DUP5 PUSH1 0xFF AND SWAP1 SHL OR DUP5 PUSH2 0xF16 SWAP1 SWAP2 SWAP1 PUSH4 0xFFFFFFFF AND JUMP JUMPDEST POP PUSH2 0xD11 DUP2 PUSH8 0xFFFFFFFFFFFFFFFF AND PUSH1 0x4 DUP6 PUSH2 0xF36 SWAP1 SWAP3 SWAP2 SWAP1 PUSH4 0xFFFFFFFF AND JUMP JUMPDEST POP PUSH2 0xD57 JUMP JUMPDEST PUSH2 0xD34 PUSH1 0x1B PUSH1 0x5 DUP5 PUSH1 0xFF AND SWAP1 SHL OR DUP5 PUSH2 0xF16 SWAP1 SWAP2 SWAP1 PUSH4 0xFFFFFFFF AND JUMP JUMPDEST POP PUSH2 0xD55 DUP2 PUSH8 0xFFFFFFFFFFFFFFFF AND PUSH1 0x8 DUP6 PUSH2 0xF36 SWAP1 SWAP3 SWAP2 SWAP1 PUSH4 0xFFFFFFFF AND JUMP JUMPDEST POP JUMPDEST JUMPDEST JUMPDEST JUMPDEST POP POP POP JUMP JUMPDEST PUSH2 0xD67 PUSH2 0x11D8 JUMP JUMPDEST PUSH2 0xD79 DUP4 DUP5 PUSH1 0x0 ADD MLOAD MLOAD DUP5 DUP6 MLOAD PUSH2 0xF58 JUMP JUMPDEST SWAP1 POP SWAP3 SWAP2 POP POP JUMP JUMPDEST PUSH1 0x0 ADDRESS DUP5 PUSH1 0x40 MLOAD PUSH1 0x20 ADD PUSH2 0xD96 SWAP3 SWAP2 SWAP1 PUSH2 0x1E7B JUMP JUMPDEST PUSH1 0x40 MLOAD PUSH1 0x20 DUP2 DUP4 SUB SUB DUP2 MSTORE SWAP1 PUSH1 0x40 MSTORE DUP1 MLOAD SWAP1 PUSH1 0x20 ADD KECCAK256 SWAP1 POP DUP5 PUSH1 0x5 PUSH1 0x0 DUP4 DUP2 MSTORE PUSH1 0x20 ADD SWAP1 DUP2 MSTORE PUSH1 0x20 ADD PUSH1 0x0 KECCAK256 PUSH1 0x0 PUSH2 0x100 EXP DUP2 SLOAD DUP2 PUSH20 0xFFFFFFFFFFFFFFFFFFFFFFFFFFFFFFFFFFFFFFFF MUL NOT AND SWAP1 DUP4 PUSH20 0xFFFFFFFFFFFFFFFFFFFFFFFFFFFFFFFFFFFFFFFF AND MUL OR SWAP1 SSTORE POP DUP1 PUSH32 0xB5E6E01E79F91267DC17B4E6314D5D4D03593D2CEEE0FBB452B750BD70EA5AF9 PUSH1 0x40 MLOAD PUSH1 0x40 MLOAD DUP1 SWAP2 SUB SWAP1 LOG2 PUSH1 0x2 PUSH1 0x0 SWAP1 SLOAD SWAP1 PUSH2 0x100 EXP SWAP1 DIV PUSH20 0xFFFFFFFFFFFFFFFFFFFFFFFFFFFFFFFFFFFFFFFF AND PUSH20 0xFFFFFFFFFFFFFFFFFFFFFFFFFFFFFFFFFFFFFFFF AND PUSH4 0x4000AEA0 DUP7 DUP6 DUP6 PUSH1 0x40 MLOAD DUP5 PUSH4 0xFFFFFFFF AND PUSH1 0xE0 SHL DUP2 MSTORE PUSH1 0x4 ADD PUSH2 0xE8C SWAP4 SWAP3 SWAP2 SWAP1 PUSH2 0x1EA7 JUMP JUMPDEST PUSH1 0x20 PUSH1 0x40 MLOAD DUP1 DUP4 SUB DUP2 PUSH1 0x0 DUP8 GAS CALL ISZERO DUP1 ISZERO PUSH2 0xEAB JUMPI RETURNDATASIZE PUSH1 0x0 DUP1 RETURNDATACOPY RETURNDATASIZE PUSH1 0x0 REVERT JUMPDEST POP POP POP POP PUSH1 0x40 MLOAD RETURNDATASIZE PUSH1 0x1F NOT PUSH1 0x1F DUP3 ADD AND DUP3 ADD DUP1 PUSH1 0x40 MSTORE POP DUP2 ADD SWAP1 PUSH2 0xECF SWAP2 SWAP1 PUSH2 0x1A4F JUMP JUMPDEST PUSH2 0xF0E JUMPI PUSH1 0x40 MLOAD PUSH32 0x8C379A000000000000000000000000000000000000000000000000000000000 DUP2 MSTORE PUSH1 0x4 ADD PUSH2 0xF05 SWAP1 PUSH2 0x1F57 JUMP JUMPDEST PUSH1 0x40 MLOAD DUP1 SWAP2 SUB SWAP1 REVERT JUMPDEST SWAP5 SWAP4 POP POP POP POP JUMP JUMPDEST PUSH2 0xF1E PUSH2 0x11D8 JUMP JUMPDEST PUSH2 0xF2E DUP4 DUP5 PUSH1 0x0 ADD MLOAD MLOAD DUP5 PUSH2 0x1047 JUMP JUMPDEST SWAP1 POP SWAP3 SWAP2 POP POP JUMP JUMPDEST PUSH2 0xF3E PUSH2 0x11D8 JUMP JUMPDEST PUSH2 0xF4F DUP5 DUP6 PUSH1 0x0 ADD MLOAD MLOAD DUP6 DUP6 PUSH2 0x109D JUMP JUMPDEST SWAP1 POP SWAP4 SWAP3 POP POP POP JUMP JUMPDEST PUSH2 0xF60 PUSH2 0x11D8 JUMP JUMPDEST DUP3 MLOAD DUP3 GT ISZERO PUSH2 0xF6E JUMPI PUSH1 0x0 DUP1 REVERT JUMPDEST DUP5 PUSH1 0x20 ADD MLOAD DUP3 DUP6 PUSH2 0xF7F SWAP2 SWAP1 PUSH2 0x1BEF JUMP JUMPDEST GT ISZERO PUSH2 0xFB4 JUMPI PUSH2 0xFB3 DUP6 PUSH1 0x2 PUSH2 0xFA4 DUP9 PUSH1 0x20 ADD MLOAD DUP9 DUP8 PUSH2 0xF9F SWAP2 SWAP1 PUSH2 0x1BEF JUMP JUMPDEST PUSH2 0x112B JUMP JUMPDEST PUSH2 0xFAE SWAP2 SWAP1 PUSH2 0x1F77 JUMP JUMPDEST PUSH2 0x1147 JUMP JUMPDEST JUMPDEST PUSH1 0x0 DUP1 DUP7 MLOAD DUP1 MLOAD DUP8 PUSH1 0x20 DUP4 ADD ADD SWAP4 POP DUP1 DUP9 DUP8 ADD GT ISZERO PUSH2 0xFD3 JUMPI DUP8 DUP7 ADD DUP3 MSTORE JUMPDEST PUSH1 0x20 DUP8 ADD SWAP3 POP POP POP JUMPDEST PUSH1 0x20 DUP5 LT PUSH2 0x101A JUMPI DUP1 MLOAD DUP3 MSTORE PUSH1 0x20 DUP3 PUSH2 0xFF5 SWAP2 SWAP1 PUSH2 0x1BEF JUMP JUMPDEST SWAP2 POP PUSH1 0x20 DUP2 PUSH2 0x1004 SWAP2 SWAP1 PUSH2 0x1BEF JUMP JUMPDEST SWAP1 POP PUSH1 0x20 DUP5 PUSH2 0x1013 SWAP2 SWAP1 PUSH2 0x1D98 JUMP JUMPDEST SWAP4 POP PUSH2 0xFDC JUMP JUMPDEST PUSH1 0x0 PUSH1 0x1 DUP6 PUSH1 0x20 SUB PUSH2 0x100 EXP SUB SWAP1 POP DUP1 NOT DUP3 MLOAD AND DUP2 DUP5 MLOAD AND DUP2 DUP2 OR DUP6 MSTORE POP POP POP DUP7 SWAP3 POP POP POP SWAP5 SWAP4 POP POP POP POP JUMP JUMPDEST PUSH2 0x104F PUSH2 0x11D8 JUMP JUMPDEST DUP4 PUSH1 0x20 ADD MLOAD DUP4 LT PUSH2 0x1075 JUMPI PUSH2 0x1074 DUP5 PUSH1 0x2 DUP7 PUSH1 0x20 ADD MLOAD PUSH2 0x106F SWAP2 SWAP1 PUSH2 0x1F77 JUMP JUMPDEST PUSH2 0x1147 JUMP JUMPDEST JUMPDEST DUP4 MLOAD DUP1 MLOAD PUSH1 0x20 DUP6 DUP4 ADD ADD DUP5 DUP2 MSTORE8 DUP2 DUP7 SUB PUSH2 0x1090 JUMPI PUSH1 0x1 DUP3 ADD DUP4 MSTORE JUMPDEST POP POP POP DUP4 SWAP1 POP SWAP4 SWAP3 POP POP POP JUMP JUMPDEST PUSH2 0x10A5 PUSH2 0x11D8 JUMP JUMPDEST DUP5 PUSH1 0x20 ADD MLOAD DUP5 DUP4 PUSH2 0x10B6 SWAP2 SWAP1 PUSH2 0x1BEF JUMP JUMPDEST GT ISZERO PUSH2 0x10DE JUMPI PUSH2 0x10DD DUP6 PUSH1 0x2 DUP7 DUP6 PUSH2 0x10CE SWAP2 SWAP1 PUSH2 0x1BEF JUMP JUMPDEST PUSH2 0x10D8 SWAP2 SWAP1 PUSH2 0x1F77 JUMP JUMPDEST PUSH2 0x1147 JUMP JUMPDEST JUMPDEST PUSH1 0x0 PUSH1 0x1 DUP4 PUSH2 0x100 PUSH2 0x10F0 SWAP2 SWAP1 PUSH2 0x20EC JUMP JUMPDEST PUSH2 0x10FA SWAP2 SWAP1 PUSH2 0x1D98 JUMP JUMPDEST SWAP1 POP DUP6 MLOAD DUP4 DUP7 DUP3 ADD ADD DUP6 DUP4 NOT DUP3 MLOAD AND OR DUP2 MSTORE DUP2 MLOAD DUP6 DUP9 ADD GT ISZERO PUSH2 0x111D JUMPI DUP5 DUP8 ADD DUP3 MSTORE JUMPDEST POP POP DUP6 SWAP2 POP POP SWAP5 SWAP4 POP POP POP POP JUMP JUMPDEST PUSH1 0x0 DUP2 DUP4 GT ISZERO PUSH2 0x113D JUMPI DUP3 SWAP1 POP PUSH2 0x1141 JUMP JUMPDEST DUP2 SWAP1 POP JUMPDEST SWAP3 SWAP2 POP POP JUMP JUMPDEST PUSH1 0x0 DUP3 PUSH1 0x0 ADD MLOAD SWAP1 POP PUSH2 0x115A DUP4 DUP4 PUSH2 0xB70 JUMP JUMPDEST POP PUSH2 0x1165 DUP4 DUP3 PUSH2 0xD5F JUMP JUMPDEST POP POP POP POP JUMP JUMPDEST PUSH1 0x40 MLOAD DUP1 PUSH1 0xA0 ADD PUSH1 0x40 MSTORE DUP1 PUSH1 0x0 DUP1 NOT AND DUP2 MSTORE PUSH1 0x20 ADD PUSH1 0x0 PUSH20 0xFFFFFFFFFFFFFFFFFFFFFFFFFFFFFFFFFFFFFFFF AND DUP2 MSTORE PUSH1 0x20 ADD PUSH1 0x0 PUSH28 0xFFFFFFFFFFFFFFFFFFFFFFFFFFFFFFFFFFFFFFFFFFFFFFFFFFFFFFFF NOT AND DUP2 MSTORE PUSH1 0x20 ADD PUSH1 0x0 DUP2 MSTORE PUSH1 0x20 ADD PUSH2 0x11D2 PUSH2 0x11D8 JUMP JUMPDEST DUP2 MSTORE POP SWAP1 JUMP JUMPDEST PUSH1 0x40 MLOAD DUP1 PUSH1 0x40 ADD PUSH1 0x40 MSTORE DUP1 PUSH1 0x60 DUP2 MSTORE PUSH1 0x20 ADD PUSH1 0x0 DUP2 MSTORE POP SWAP1 JUMP JUMPDEST PUSH1 0x0 PUSH1 0x40 MLOAD SWAP1 POP SWAP1 JUMP JUMPDEST PUSH1 0x0 DUP1 REVERT JUMPDEST PUSH1 0x0 DUP1 REVERT JUMPDEST PUSH1 0x0 DUP2 SWAP1 POP SWAP2 SWAP1 POP JUMP JUMPDEST PUSH2 0x1219 DUP2 PUSH2 0x1206 JUMP JUMPDEST DUP2 EQ PUSH2 0x1224 JUMPI PUSH1 0x0 DUP1 REVERT JUMPDEST POP JUMP JUMPDEST PUSH1 0x0 DUP2 CALLDATALOAD SWAP1 POP PUSH2 0x1236 DUP2 PUSH2 0x1210 JUMP JUMPDEST SWAP3 SWAP2 POP POP JUMP JUMPDEST PUSH1 0x0 DUP1 REVERT JUMPDEST PUSH1 0x0 DUP1 REVERT JUMPDEST PUSH1 0x0 PUSH1 0x1F NOT PUSH1 0x1F DUP4 ADD AND SWAP1 POP SWAP2 SWAP1 POP JUMP JUMPDEST PUSH32 0x4E487B7100000000000000000000000000000000000000000000000000000000 PUSH1 0x0 MSTORE PUSH1 0x41 PUSH1 0x4 MSTORE PUSH1 0x24 PUSH1 0x0 REVERT JUMPDEST PUSH2 0x128F DUP3 PUSH2 0x1246 JUMP JUMPDEST DUP2 ADD DUP2 DUP2 LT PUSH8 0xFFFFFFFFFFFFFFFF DUP3 GT OR ISZERO PUSH2 0x12AE JUMPI PUSH2 0x12AD PUSH2 0x1257 JUMP JUMPDEST JUMPDEST DUP1 PUSH1 0x40 MSTORE POP POP POP JUMP JUMPDEST PUSH1 0x0 PUSH2 0x12C1 PUSH2 0x11F2 JUMP JUMPDEST SWAP1 POP PUSH2 0x12CD DUP3 DUP3 PUSH2 0x1286 JUMP JUMPDEST SWAP2 SWAP1 POP JUMP JUMPDEST PUSH1 0x0 PUSH8 0xFFFFFFFFFFFFFFFF DUP3 GT ISZERO PUSH2 0x12ED JUMPI PUSH2 0x12EC PUSH2 0x1257 JUMP JUMPDEST JUMPDEST PUSH2 0x12F6 DUP3 PUSH2 0x1246 JUMP JUMPDEST SWAP1 POP PUSH1 0x20 DUP2 ADD SWAP1 POP SWAP2 SWAP1 POP JUMP JUMPDEST DUP3 DUP2 DUP4 CALLDATACOPY PUSH1 0x0 DUP4 DUP4 ADD MSTORE POP POP POP JUMP JUMPDEST PUSH1 0x0 PUSH2 0x1325 PUSH2 0x1320 DUP5 PUSH2 0x12D2 JUMP JUMPDEST PUSH2 0x12B7 JUMP JUMPDEST SWAP1 POP DUP3 DUP2 MSTORE PUSH1 0x20 DUP2 ADD DUP5 DUP5 DUP5 ADD GT ISZERO PUSH2 0x1341 JUMPI PUSH2 0x1340 PUSH2 0x1241 JUMP JUMPDEST JUMPDEST PUSH2 0x134C DUP5 DUP3 DUP6 PUSH2 0x1303 JUMP JUMPDEST POP SWAP4 SWAP3 POP POP POP JUMP JUMPDEST PUSH1 0x0 DUP3 PUSH1 0x1F DUP4 ADD SLT PUSH2 0x1369 JUMPI PUSH2 0x1368 PUSH2 0x123C JUMP JUMPDEST JUMPDEST DUP2 CALLDATALOAD PUSH2 0x1379 DUP5 DUP3 PUSH1 0x20 DUP7 ADD PUSH2 0x1312 JUMP JUMPDEST SWAP2 POP POP SWAP3 SWAP2 POP POP JUMP JUMPDEST PUSH1 0x0 DUP1 PUSH1 0x40 DUP4 DUP6 SUB SLT ISZERO PUSH2 0x1399 JUMPI PUSH2 0x1398 PUSH2 0x11FC JUMP JUMPDEST JUMPDEST PUSH1 0x0 PUSH2 0x13A7 DUP6 DUP3 DUP7 ADD PUSH2 0x1227 JUMP JUMPDEST SWAP3 POP POP PUSH1 0x20 DUP4 ADD CALLDATALOAD PUSH8 0xFFFFFFFFFFFFFFFF DUP2 GT ISZERO PUSH2 0x13C8 JUMPI PUSH2 0x13C7 PUSH2 0x1201 JUMP JUMPDEST JUMPDEST PUSH2 0x13D4 DUP6 DUP3 DUP7 ADD PUSH2 0x1354 JUMP JUMPDEST SWAP2 POP POP SWAP3 POP SWAP3 SWAP1 POP JUMP JUMPDEST PUSH1 0x0 DUP2 SWAP1 POP SWAP2 SWAP1 POP JUMP JUMPDEST PUSH2 0x13F1 DUP2 PUSH2 0x13DE JUMP JUMPDEST DUP2 EQ PUSH2 0x13FC JUMPI PUSH1 0x0 DUP1 REVERT JUMPDEST POP JUMP JUMPDEST PUSH1 0x0 DUP2 CALLDATALOAD SWAP1 POP PUSH2 0x140E DUP2 PUSH2 0x13E8 JUMP JUMPDEST SWAP3 SWAP2 POP POP JUMP JUMPDEST PUSH1 0x0 PUSH1 0x20 DUP3 DUP5 SUB SLT ISZERO PUSH2 0x142A JUMPI PUSH2 0x1429 PUSH2 0x11FC JUMP JUMPDEST JUMPDEST PUSH1 0x0 PUSH2 0x1438 DUP5 DUP3 DUP6 ADD PUSH2 0x13FF JUMP JUMPDEST SWAP2 POP POP SWAP3 SWAP2 POP POP JUMP JUMPDEST PUSH2 0x144A DUP2 PUSH2 0x1206 JUMP JUMPDEST DUP3 MSTORE POP POP JUMP JUMPDEST PUSH1 0x0 PUSH1 0x20 DUP3 ADD SWAP1 POP PUSH2 0x1465 PUSH1 0x0 DUP4 ADD DUP5 PUSH2 0x1441 JUMP JUMPDEST SWAP3 SWAP2 POP POP JUMP JUMPDEST PUSH1 0x0 DUP2 MLOAD SWAP1 POP SWAP2 SWAP1 POP JUMP JUMPDEST PUSH1 0x0 DUP3 DUP3 MSTORE PUSH1 0x20 DUP3 ADD SWAP1 POP SWAP3 SWAP2 POP POP JUMP JUMPDEST PUSH1 0x0 JUMPDEST DUP4 DUP2 LT ISZERO PUSH2 0x14A5 JUMPI DUP1 DUP3 ADD MLOAD DUP2 DUP5 ADD MSTORE PUSH1 0x20 DUP2 ADD SWAP1 POP PUSH2 0x148A JUMP JUMPDEST PUSH1 0x0 DUP5 DUP5 ADD MSTORE POP POP POP POP JUMP JUMPDEST PUSH1 0x0 PUSH2 0x14BC DUP3 PUSH2 0x146B JUMP JUMPDEST PUSH2 0x14C6 DUP2 DUP6 PUSH2 0x1476 JUMP JUMPDEST SWAP4 POP PUSH2 0x14D6 DUP2 DUP6 PUSH1 0x20 DUP7 ADD PUSH2 0x1487 JUMP JUMPDEST PUSH2 0x14DF DUP2 PUSH2 0x1246 JUMP JUMPDEST DUP5 ADD SWAP2 POP POP SWAP3 SWAP2 POP POP JUMP JUMPDEST PUSH1 0x0 PUSH1 0x20 DUP3 ADD SWAP1 POP DUP2 DUP2 SUB PUSH1 0x0 DUP4 ADD MSTORE PUSH2 0x1504 DUP2 DUP5 PUSH2 0x14B1 JUMP JUMPDEST SWAP1 POP SWAP3 SWAP2 POP POP JUMP JUMPDEST PUSH1 0x0 PUSH20 0xFFFFFFFFFFFFFFFFFFFFFFFFFFFFFFFFFFFFFFFF DUP3 AND SWAP1 POP SWAP2 SWAP1 POP JUMP JUMPDEST PUSH1 0x0 PUSH2 0x1537 DUP3 PUSH2 0x150C JUMP JUMPDEST SWAP1 POP SWAP2 SWAP1 POP JUMP JUMPDEST PUSH2 0x1547 DUP2 PUSH2 0x152C JUMP JUMPDEST DUP3 MSTORE POP POP JUMP JUMPDEST PUSH1 0x0 PUSH1 0x20 DUP3 ADD SWAP1 POP PUSH2 0x1562 PUSH1 0x0 DUP4 ADD DUP5 PUSH2 0x153E JUMP JUMPDEST SWAP3 SWAP2 POP POP JUMP JUMPDEST PUSH2 0x1571 DUP2 PUSH2 0x152C JUMP JUMPDEST DUP2 EQ PUSH2 0x157C JUMPI PUSH1 0x0 DUP1 REVERT JUMPDEST POP JUMP JUMPDEST PUSH1 0x0 DUP2 CALLDATALOAD SWAP1 POP PUSH2 0x158E DUP2 PUSH2 0x1568 JUMP JUMPDEST SWAP3 SWAP2 POP POP JUMP JUMPDEST PUSH1 0x0 PUSH1 0x20 DUP3 DUP5 SUB SLT ISZERO PUSH2 0x15AA JUMPI PUSH2 0x15A9 PUSH2 0x11FC JUMP JUMPDEST JUMPDEST PUSH1 0x0 PUSH2 0x15B8 DUP5 DUP3 DUP6 ADD PUSH2 0x157F JUMP JUMPDEST SWAP2 POP POP SWAP3 SWAP2 POP POP JUMP JUMPDEST PUSH32 0x536F75726365206D75737420626520746865206F7261636C65206F6620746865 PUSH1 0x0 DUP3 ADD MSTORE PUSH32 0x2072657175657374000000000000000000000000000000000000000000000000 PUSH1 0x20 DUP3 ADD MSTORE POP JUMP JUMPDEST PUSH1 0x0 PUSH2 0x161D PUSH1 0x28 DUP4 PUSH2 0x1476 JUMP JUMPDEST SWAP2 POP PUSH2 0x1628 DUP3 PUSH2 0x15C1 JUMP JUMPDEST PUSH1 0x40 DUP3 ADD SWAP1 POP SWAP2 SWAP1 POP JUMP JUMPDEST PUSH1 0x0 PUSH1 0x20 DUP3 ADD SWAP1 POP DUP2 DUP2 SUB PUSH1 0x0 DUP4 ADD MSTORE PUSH2 0x164C DUP2 PUSH2 0x1610 JUMP JUMPDEST SWAP1 POP SWAP2 SWAP1 POP JUMP JUMPDEST PUSH32 0x4E487B7100000000000000000000000000000000000000000000000000000000 PUSH1 0x0 MSTORE PUSH1 0x22 PUSH1 0x4 MSTORE PUSH1 0x24 PUSH1 0x0 REVERT JUMPDEST PUSH1 0x0 PUSH1 0x2 DUP3 DIV SWAP1 POP PUSH1 0x1 DUP3 AND DUP1 PUSH2 0x169A JUMPI PUSH1 0x7F DUP3 AND SWAP2 POP JUMPDEST PUSH1 0x20 DUP3 LT DUP2 SUB PUSH2 0x16AD JUMPI PUSH2 0x16AC PUSH2 0x1653 JUMP JUMPDEST JUMPDEST POP SWAP2 SWAP1 POP JUMP JUMPDEST PUSH1 0x0 DUP2 SWAP1 POP DUP2 PUSH1 0x0 MSTORE PUSH1 0x20 PUSH1 0x0 KECCAK256 SWAP1 POP SWAP2 SWAP1 POP JUMP JUMPDEST PUSH1 0x0 PUSH1 0x20 PUSH1 0x1F DUP4 ADD DIV SWAP1 POP SWAP2 SWAP1 POP JUMP JUMPDEST PUSH1 0x0 DUP3 DUP3 SHL SWAP1 POP SWAP3 SWAP2 POP POP JUMP JUMPDEST PUSH1 0x0 PUSH1 0x8 DUP4 MUL PUSH2 0x1715 PUSH32 0xFFFFFFFFFFFFFFFFFFFFFFFFFFFFFFFFFFFFFFFFFFFFFFFFFFFFFFFFFFFFFFFF DUP3 PUSH2 0x16D8 JUMP JUMPDEST PUSH2 0x171F DUP7 DUP4 PUSH2 0x16D8 JUMP JUMPDEST SWAP6 POP DUP1 NOT DUP5 AND SWAP4 POP DUP1 DUP7 AND DUP5 OR SWAP3 POP POP POP SWAP4 SWAP3 POP POP POP JUMP JUMPDEST PUSH1 0x0 DUP2 SWAP1 POP SWAP2 SWAP1 POP JUMP JUMPDEST PUSH1 0x0 PUSH2 0x175C PUSH2 0x1757 PUSH2 0x1752 DUP5 PUSH2 0x13DE JUMP JUMPDEST PUSH2 0x1737 JUMP JUMPDEST PUSH2 0x13DE JUMP JUMPDEST SWAP1 POP SWAP2 SWAP1 POP JUMP JUMPDEST PUSH1 0x0 DUP2 SWAP1 POP SWAP2 SWAP1 POP JUMP JUMPDEST PUSH2 0x1776 DUP4 PUSH2 0x1741 JUMP JUMPDEST PUSH2 0x178A PUSH2 0x1782 DUP3 PUSH2 0x1763 JUMP JUMPDEST DUP5 DUP5 SLOAD PUSH2 0x16E5 JUMP JUMPDEST DUP3 SSTORE POP POP POP POP JUMP JUMPDEST PUSH1 0x0 SWAP1 JUMP JUMPDEST PUSH2 0x179F PUSH2 0x1792 JUMP JUMPDEST PUSH2 0x17AA DUP2 DUP5 DUP5 PUSH2 0x176D JUMP JUMPDEST POP POP POP JUMP JUMPDEST JUMPDEST DUP2 DUP2 LT ISZERO PUSH2 0x17CE JUMPI PUSH2 0x17C3 PUSH1 0x0 DUP3 PUSH2 0x1797 JUMP JUMPDEST PUSH1 0x1 DUP2 ADD SWAP1 POP PUSH2 0x17B0 JUMP JUMPDEST POP POP JUMP JUMPDEST PUSH1 0x1F DUP3 GT ISZERO PUSH2 0x1813 JUMPI PUSH2 0x17E4 DUP2 PUSH2 0x16B3 JUMP JUMPDEST PUSH2 0x17ED DUP5 PUSH2 0x16C8 JUMP JUMPDEST DUP2 ADD PUSH1 0x20 DUP6 LT ISZERO PUSH2 0x17FC JUMPI DUP2 SWAP1 POP JUMPDEST PUSH2 0x1810 PUSH2 0x1808 DUP6 PUSH2 0x16C8 JUMP JUMPDEST DUP4 ADD DUP3 PUSH2 0x17AF JUMP JUMPDEST POP POP JUMPDEST POP POP POP JUMP JUMPDEST PUSH1 0x0 DUP3 DUP3 SHR SWAP1 POP SWAP3 SWAP2 POP POP JUMP JUMPDEST PUSH1 0x0 PUSH2 0x1836 PUSH1 0x0 NOT DUP5 PUSH1 0x8 MUL PUSH2 0x1818 JUMP JUMPDEST NOT DUP1 DUP4 AND SWAP2 POP POP SWAP3 SWAP2 POP POP JUMP JUMPDEST PUSH1 0x0 PUSH2 0x184F DUP4 DUP4 PUSH2 0x1825 JUMP JUMPDEST SWAP2 POP DUP3 PUSH1 0x2 MUL DUP3 OR SWAP1 POP SWAP3 SWAP2 POP POP JUMP JUMPDEST PUSH2 0x1868 DUP3 PUSH2 0x146B JUMP JUMPDEST PUSH8 0xFFFFFFFFFFFFFFFF DUP2 GT ISZERO PUSH2 0x1881 JUMPI PUSH2 0x1880 PUSH2 0x1257 JUMP JUMPDEST JUMPDEST PUSH2 0x188B DUP3 SLOAD PUSH2 0x1682 JUMP JUMPDEST PUSH2 0x1896 DUP3 DUP3 DUP6 PUSH2 0x17D2 JUMP JUMPDEST PUSH1 0x0 PUSH1 0x20 SWAP1 POP PUSH1 0x1F DUP4 GT PUSH1 0x1 DUP2 EQ PUSH2 0x18C9 JUMPI PUSH1 0x0 DUP5 ISZERO PUSH2 0x18B7 JUMPI DUP3 DUP8 ADD MLOAD SWAP1 POP JUMPDEST PUSH2 0x18C1 DUP6 DUP3 PUSH2 0x1843 JUMP JUMPDEST DUP7 SSTORE POP PUSH2 0x1929 JUMP JUMPDEST PUSH1 0x1F NOT DUP5 AND PUSH2 0x18D7 DUP7 PUSH2 0x16B3 JUMP JUMPDEST PUSH1 0x0 JUMPDEST DUP3 DUP2 LT ISZERO PUSH2 0x18FF JUMPI DUP5 DUP10 ADD MLOAD DUP3 SSTORE PUSH1 0x1 DUP3 ADD SWAP2 POP PUSH1 0x20 DUP6 ADD SWAP5 POP PUSH1 0x20 DUP2 ADD SWAP1 POP PUSH2 0x18DA JUMP JUMPDEST DUP7 DUP4 LT ISZERO PUSH2 0x191C JUMPI DUP5 DUP10 ADD MLOAD PUSH2 0x1918 PUSH1 0x1F DUP10 AND DUP3 PUSH2 0x1825 JUMP JUMPDEST DUP4 SSTORE POP JUMPDEST PUSH1 0x1 PUSH1 0x2 DUP9 MUL ADD DUP9 SSTORE POP POP POP JUMPDEST POP POP POP POP POP POP JUMP JUMPDEST PUSH32 0x4D7573742062652070726F706F736564206F776E657200000000000000000000 PUSH1 0x0 DUP3 ADD MSTORE POP JUMP JUMPDEST PUSH1 0x0 PUSH2 0x1967 PUSH1 0x16 DUP4 PUSH2 0x1476 JUMP JUMPDEST SWAP2 POP PUSH2 0x1972 DUP3 PUSH2 0x1931 JUMP JUMPDEST PUSH1 0x20 DUP3 ADD SWAP1 POP SWAP2 SWAP1 POP JUMP JUMPDEST PUSH1 0x0 PUSH1 0x20 DUP3 ADD SWAP1 POP DUP2 DUP2 SUB PUSH1 0x0 DUP4 ADD MSTORE PUSH2 0x1996 DUP2 PUSH2 0x195A JUMP JUMPDEST SWAP1 POP SWAP2 SWAP1 POP JUMP JUMPDEST PUSH1 0x0 DUP2 MLOAD SWAP1 POP PUSH2 0x19AC DUP2 PUSH2 0x13E8 JUMP JUMPDEST SWAP3 SWAP2 POP POP JUMP JUMPDEST PUSH1 0x0 PUSH1 0x20 DUP3 DUP5 SUB SLT ISZERO PUSH2 0x19C8 JUMPI PUSH2 0x19C7 PUSH2 0x11FC JUMP JUMPDEST JUMPDEST PUSH1 0x0 PUSH2 0x19D6 DUP5 DUP3 DUP6 ADD PUSH2 0x199D JUMP JUMPDEST SWAP2 POP POP SWAP3 SWAP2 POP POP JUMP JUMPDEST PUSH2 0x19E8 DUP2 PUSH2 0x13DE JUMP JUMPDEST DUP3 MSTORE POP POP JUMP JUMPDEST PUSH1 0x0 PUSH1 0x40 DUP3 ADD SWAP1 POP PUSH2 0x1A03 PUSH1 0x0 DUP4 ADD DUP6 PUSH2 0x153E JUMP JUMPDEST PUSH2 0x1A10 PUSH1 0x20 DUP4 ADD DUP5 PUSH2 0x19DF JUMP JUMPDEST SWAP4 SWAP3 POP POP POP JUMP JUMPDEST PUSH1 0x0 DUP2 ISZERO ISZERO SWAP1 POP SWAP2 SWAP1 POP JUMP JUMPDEST PUSH2 0x1A2C DUP2 PUSH2 0x1A17 JUMP JUMPDEST DUP2 EQ PUSH2 0x1A37 JUMPI PUSH1 0x0 DUP1 REVERT JUMPDEST POP JUMP JUMPDEST PUSH1 0x0 DUP2 MLOAD SWAP1 POP PUSH2 0x1A49 DUP2 PUSH2 0x1A23 JUMP JUMPDEST SWAP3 SWAP2 POP POP JUMP JUMPDEST PUSH1 0x0 PUSH1 0x20 DUP3 DUP5 SUB SLT ISZERO PUSH2 0x1A65 JUMPI PUSH2 0x1A64 PUSH2 0x11FC JUMP JUMPDEST JUMPDEST PUSH1 0x0 PUSH2 0x1A73 DUP5 DUP3 DUP6 ADD PUSH2 0x1A3A JUMP JUMPDEST SWAP2 POP POP SWAP3 SWAP2 POP POP JUMP JUMPDEST PUSH32 0x556E61626C6520746F207472616E736665720000000000000000000000000000 PUSH1 0x0 DUP3 ADD MSTORE POP JUMP JUMPDEST PUSH1 0x0 PUSH2 0x1AB2 PUSH1 0x12 DUP4 PUSH2 0x1476 JUMP JUMPDEST SWAP2 POP PUSH2 0x1ABD DUP3 PUSH2 0x1A7C JUMP JUMPDEST PUSH1 0x20 DUP3 ADD SWAP1 POP SWAP2 SWAP1 POP JUMP JUMPDEST PUSH1 0x0 PUSH1 0x20 DUP3 ADD SWAP1 POP DUP2 DUP2 SUB PUSH1 0x0 DUP4 ADD MSTORE PUSH2 0x1AE1 DUP2 PUSH2 0x1AA5 JUMP JUMPDEST SWAP1 POP SWAP2 SWAP1 POP JUMP JUMPDEST PUSH32 0x4F6E6C792063616C6C61626C65206279206F776E657200000000000000000000 PUSH1 0x0 DUP3 ADD MSTORE POP JUMP JUMPDEST PUSH1 0x0 PUSH2 0x1B1E PUSH1 0x16 DUP4 PUSH2 0x1476 JUMP JUMPDEST SWAP2 POP PUSH2 0x1B29 DUP3 PUSH2 0x1AE8 JUMP JUMPDEST PUSH1 0x20 DUP3 ADD SWAP1 POP SWAP2 SWAP1 POP JUMP JUMPDEST PUSH1 0x0 PUSH1 0x20 DUP3 ADD SWAP1 POP DUP2 DUP2 SUB PUSH1 0x0 DUP4 ADD MSTORE PUSH2 0x1B4D DUP2 PUSH2 0x1B11 JUMP JUMPDEST SWAP1 POP SWAP2 SWAP1 POP JUMP JUMPDEST PUSH32 0x43616E6E6F74207472616E7366657220746F2073656C66000000000000000000 PUSH1 0x0 DUP3 ADD MSTORE POP JUMP JUMPDEST PUSH1 0x0 PUSH2 0x1B8A PUSH1 0x17 DUP4 PUSH2 0x1476 JUMP JUMPDEST SWAP2 POP PUSH2 0x1B95 DUP3 PUSH2 0x1B54 JUMP JUMPDEST PUSH1 0x20 DUP3 ADD SWAP1 POP SWAP2 SWAP1 POP JUMP JUMPDEST PUSH1 0x0 PUSH1 0x20 DUP3 ADD SWAP1 POP DUP2 DUP2 SUB PUSH1 0x0 DUP4 ADD MSTORE PUSH2 0x1BB9 DUP2 PUSH2 0x1B7D JUMP JUMPDEST SWAP1 POP SWAP2 SWAP1 POP JUMP JUMPDEST PUSH32 0x4E487B7100000000000000000000000000000000000000000000000000000000 PUSH1 0x0 MSTORE PUSH1 0x11 PUSH1 0x4 MSTORE PUSH1 0x24 PUSH1 0x0 REVERT JUMPDEST PUSH1 0x0 PUSH2 0x1BFA DUP3 PUSH2 0x13DE JUMP JUMPDEST SWAP2 POP PUSH2 0x1C05 DUP4 PUSH2 0x13DE JUMP JUMPDEST SWAP3 POP DUP3 DUP3 ADD SWAP1 POP DUP1 DUP3 GT ISZERO PUSH2 0x1C1D JUMPI PUSH2 0x1C1C PUSH2 0x1BC0 JUMP JUMPDEST JUMPDEST SWAP3 SWAP2 POP POP JUMP JUMPDEST PUSH1 0x0 PUSH32 0xFFFFFFFF00000000000000000000000000000000000000000000000000000000 DUP3 AND SWAP1 POP SWAP2 SWAP1 POP JUMP JUMPDEST PUSH2 0x1C58 DUP2 PUSH2 0x1C23 JUMP JUMPDEST DUP3 MSTORE POP POP JUMP JUMPDEST PUSH1 0x0 DUP2 MLOAD SWAP1 POP SWAP2 SWAP1 POP JUMP JUMPDEST PUSH1 0x0 DUP3 DUP3 MSTORE PUSH1 0x20 DUP3 ADD SWAP1 POP SWAP3 SWAP2 POP POP JUMP JUMPDEST PUSH1 0x0 PUSH2 0x1C85 DUP3 PUSH2 0x1C5E JUMP JUMPDEST PUSH2 0x1C8F DUP2 DUP6 PUSH2 0x1C69 JUMP JUMPDEST SWAP4 POP PUSH2 0x1C9F DUP2 DUP6 PUSH1 0x20 DUP7 ADD PUSH2 0x1487 JUMP JUMPDEST PUSH2 0x1CA8 DUP2 PUSH2 0x1246 JUMP JUMPDEST DUP5 ADD SWAP2 POP POP SWAP3 SWAP2 POP POP JUMP JUMPDEST PUSH1 0x0 PUSH2 0x100 DUP3 ADD SWAP1 POP PUSH2 0x1CC9 PUSH1 0x0 DUP4 ADD DUP12 PUSH2 0x153E JUMP JUMPDEST PUSH2 0x1CD6 PUSH1 0x20 DUP4 ADD DUP11 PUSH2 0x19DF JUMP JUMPDEST PUSH2 0x1CE3 PUSH1 0x40 DUP4 ADD DUP10 PUSH2 0x1441 JUMP JUMPDEST PUSH2 0x1CF0 PUSH1 0x60 DUP4 ADD DUP9 PUSH2 0x153E JUMP JUMPDEST PUSH2 0x1CFD PUSH1 0x80 DUP4 ADD DUP8 PUSH2 0x1C4F JUMP JUMPDEST PUSH2 0x1D0A PUSH1 0xA0 DUP4 ADD DUP7 PUSH2 0x19DF JUMP JUMPDEST PUSH2 0x1D17 PUSH1 0xC0 DUP4 ADD DUP6 PUSH2 0x19DF JUMP JUMPDEST DUP2 DUP2 SUB PUSH1 0xE0 DUP4 ADD MSTORE PUSH2 0x1D29 DUP2 DUP5 PUSH2 0x1C7A JUMP JUMPDEST SWAP1 POP SWAP10 SWAP9 POP POP POP POP POP POP POP POP POP JUMP JUMPDEST PUSH32 0x4E487B7100000000000000000000000000000000000000000000000000000000 PUSH1 0x0 MSTORE PUSH1 0x12 PUSH1 0x4 MSTORE PUSH1 0x24 PUSH1 0x0 REVERT JUMPDEST PUSH1 0x0 PUSH2 0x1D72 DUP3 PUSH2 0x13DE JUMP JUMPDEST SWAP2 POP PUSH2 0x1D7D DUP4 PUSH2 0x13DE JUMP JUMPDEST SWAP3 POP DUP3 PUSH2 0x1D8D JUMPI PUSH2 0x1D8C PUSH2 0x1D38 JUMP JUMPDEST JUMPDEST DUP3 DUP3 MOD SWAP1 POP SWAP3 SWAP2 POP POP JUMP JUMPDEST PUSH1 0x0 PUSH2 0x1DA3 DUP3 PUSH2 0x13DE JUMP JUMPDEST SWAP2 POP PUSH2 0x1DAE DUP4 PUSH2 0x13DE JUMP JUMPDEST SWAP3 POP DUP3 DUP3 SUB SWAP1 POP DUP2 DUP2 GT ISZERO PUSH2 0x1DC6 JUMPI PUSH2 0x1DC5 PUSH2 0x1BC0 JUMP JUMPDEST JUMPDEST SWAP3 SWAP2 POP POP JUMP JUMPDEST PUSH1 0x0 PUSH2 0x1DE7 PUSH2 0x1DE2 PUSH2 0x1DDD DUP5 PUSH2 0x150C JUMP JUMPDEST PUSH2 0x1737 JUMP JUMPDEST PUSH2 0x150C JUMP JUMPDEST SWAP1 POP SWAP2 SWAP1 POP JUMP JUMPDEST PUSH1 0x0 PUSH2 0x1DF9 DUP3 PUSH2 0x1DCC JUMP JUMPDEST SWAP1 POP SWAP2 SWAP1 POP JUMP JUMPDEST PUSH1 0x0 PUSH2 0x1E0B DUP3 PUSH2 0x1DEE JUMP JUMPDEST SWAP1 POP SWAP2 SWAP1 POP JUMP JUMPDEST PUSH1 0x0 DUP2 PUSH1 0x60 SHL SWAP1 POP SWAP2 SWAP1 POP JUMP JUMPDEST PUSH1 0x0 PUSH2 0x1E2A DUP3 PUSH2 0x1E12 JUMP JUMPDEST SWAP1 POP SWAP2 SWAP1 POP JUMP JUMPDEST PUSH1 0x0 PUSH2 0x1E3C DUP3 PUSH2 0x1E1F JUMP JUMPDEST SWAP1 POP SWAP2 SWAP1 POP JUMP JUMPDEST PUSH2 0x1E54 PUSH2 0x1E4F DUP3 PUSH2 0x1E00 JUMP JUMPDEST PUSH2 0x1E31 JUMP JUMPDEST DUP3 MSTORE POP POP JUMP JUMPDEST PUSH1 0x0 DUP2 SWAP1 POP SWAP2 SWAP1 POP JUMP JUMPDEST PUSH2 0x1E75 PUSH2 0x1E70 DUP3 PUSH2 0x13DE JUMP JUMPDEST PUSH2 0x1E5A JUMP JUMPDEST DUP3 MSTORE POP POP JUMP JUMPDEST PUSH1 0x0 PUSH2 0x1E87 DUP3 DUP6 PUSH2 0x1E43 JUMP JUMPDEST PUSH1 0x14 DUP3 ADD SWAP2 POP PUSH2 0x1E97 DUP3 DUP5 PUSH2 0x1E64 JUMP JUMPDEST PUSH1 0x20 DUP3 ADD SWAP2 POP DUP2 SWAP1 POP SWAP4 SWAP3 POP POP POP JUMP JUMPDEST PUSH1 0x0 PUSH1 0x60 DUP3 ADD SWAP1 POP PUSH2 0x1EBC PUSH1 0x0 DUP4 ADD DUP7 PUSH2 0x153E JUMP JUMPDEST PUSH2 0x1EC9 PUSH1 0x20 DUP4 ADD DUP6 PUSH2 0x19DF JUMP JUMPDEST DUP2 DUP2 SUB PUSH1 0x40 DUP4 ADD MSTORE PUSH2 0x1EDB DUP2 DUP5 PUSH2 0x1C7A JUMP JUMPDEST SWAP1 POP SWAP5 SWAP4 POP POP POP POP JUMP JUMPDEST PUSH32 0x756E61626C6520746F207472616E73666572416E6443616C6C20746F206F7261 PUSH1 0x0 DUP3 ADD MSTORE PUSH32 0x636C650000000000000000000000000000000000000000000000000000000000 PUSH1 0x20 DUP3 ADD MSTORE POP JUMP JUMPDEST PUSH1 0x0 PUSH2 0x1F41 PUSH1 0x23 DUP4 PUSH2 0x1476 JUMP JUMPDEST SWAP2 POP PUSH2 0x1F4C DUP3 PUSH2 0x1EE5 JUMP JUMPDEST PUSH1 0x40 DUP3 ADD SWAP1 POP SWAP2 SWAP1 POP JUMP JUMPDEST PUSH1 0x0 PUSH1 0x20 DUP3 ADD SWAP1 POP DUP2 DUP2 SUB PUSH1 0x0 DUP4 ADD MSTORE PUSH2 0x1F70 DUP2 PUSH2 0x1F34 JUMP JUMPDEST SWAP1 POP SWAP2 SWAP1 POP JUMP JUMPDEST PUSH1 0x0 PUSH2 0x1F82 DUP3 PUSH2 0x13DE JUMP JUMPDEST SWAP2 POP PUSH2 0x1F8D DUP4 PUSH2 0x13DE JUMP JUMPDEST SWAP3 POP DUP3 DUP3 MUL PUSH2 0x1F9B DUP2 PUSH2 0x13DE JUMP JUMPDEST SWAP2 POP DUP3 DUP3 DIV DUP5 EQ DUP4 ISZERO OR PUSH2 0x1FB2 JUMPI PUSH2 0x1FB1 PUSH2 0x1BC0 JUMP JUMPDEST JUMPDEST POP SWAP3 SWAP2 POP POP JUMP JUMPDEST PUSH1 0x0 DUP2 PUSH1 0x1 SHR SWAP1 POP SWAP2 SWAP1 POP JUMP JUMPDEST PUSH1 0x0 DUP1 DUP3 SWAP2 POP DUP4 SWAP1 POP JUMPDEST PUSH1 0x1 DUP6 GT ISZERO PUSH2 0x2010 JUMPI DUP1 DUP7 DIV DUP2 GT ISZERO PUSH2 0x1FEC JUMPI PUSH2 0x1FEB PUSH2 0x1BC0 JUMP JUMPDEST JUMPDEST PUSH1 0x1 DUP6 AND ISZERO PUSH2 0x1FFB JUMPI DUP1 DUP3 MUL SWAP2 POP JUMPDEST DUP1 DUP2 MUL SWAP1 POP PUSH2 0x2009 DUP6 PUSH2 0x1FB9 JUMP JUMPDEST SWAP5 POP PUSH2 0x1FD0 JUMP JUMPDEST SWAP5 POP SWAP5 SWAP3 POP POP POP JUMP JUMPDEST PUSH1 0x0 DUP3 PUSH2 0x2029 JUMPI PUSH1 0x1 SWAP1 POP PUSH2 0x20E5 JUMP JUMPDEST DUP2 PUSH2 0x2037 JUMPI PUSH1 0x0 SWAP1 POP PUSH2 0x20E5 JUMP JUMPDEST DUP2 PUSH1 0x1 DUP2 EQ PUSH2 0x204D JUMPI PUSH1 0x2 DUP2 EQ PUSH2 0x2057 JUMPI PUSH2 0x2086 JUMP JUMPDEST PUSH1 0x1 SWAP2 POP POP PUSH2 0x20E5 JUMP JUMPDEST PUSH1 0xFF DUP5 GT ISZERO PUSH2 0x2069 JUMPI PUSH2 0x2068 PUSH2 0x1BC0 JUMP JUMPDEST JUMPDEST DUP4 PUSH1 0x2 EXP SWAP2 POP DUP5 DUP3 GT ISZERO PUSH2 0x2080 JUMPI PUSH2 0x207F PUSH2 0x1BC0 JUMP JUMPDEST JUMPDEST POP PUSH2 0x20E5 JUMP JUMPDEST POP PUSH1 0x20 DUP4 LT PUSH2 0x133 DUP4 LT AND PUSH1 0x4E DUP5 LT PUSH1 0xB DUP5 LT AND OR ISZERO PUSH2 0x20BB JUMPI DUP3 DUP3 EXP SWAP1 POP DUP4 DUP2 GT ISZERO PUSH2 0x20B6 JUMPI PUSH2 0x20B5 PUSH2 0x1BC0 JUMP JUMPDEST JUMPDEST PUSH2 0x20E5 JUMP JUMPDEST PUSH2 0x20C8 DUP5 DUP5 DUP5 PUSH1 0x1 PUSH2 0x1FC6 JUMP JUMPDEST SWAP3 POP SWAP1 POP DUP2 DUP5 DIV DUP2 GT ISZERO PUSH2 0x20DF JUMPI PUSH2 0x20DE PUSH2 0x1BC0 JUMP JUMPDEST JUMPDEST DUP2 DUP2 MUL SWAP1 POP JUMPDEST SWAP4 SWAP3 POP POP POP JUMP JUMPDEST PUSH1 0x0 PUSH2 0x20F7 DUP3 PUSH2 0x13DE JUMP JUMPDEST SWAP2 POP PUSH2 0x2102 DUP4 PUSH2 0x13DE JUMP JUMPDEST SWAP3 POP PUSH2 0x212F PUSH32 0xFFFFFFFFFFFFFFFFFFFFFFFFFFFFFFFFFFFFFFFFFFFFFFFFFFFFFFFFFFFFFFFF DUP5 DUP5 PUSH2 0x2019 JUMP JUMPDEST SWAP1 POP SWAP3 SWAP2 POP POP JUMP INVALID PUSH9 0x747470733A2F2F6361 PUSH21 0x2D666163742E6865726F6B756170702E636F6D2F66 PUSH2 0x6374 PUSH20 0xA264697066735822122000B3FF4579F94823CEA9 0xB1 PUSH32 0x50A9B3FC70B6E798E971AE4270C39A75E97B341B64736F6C6343000812003300 "
				},
				"gasEstimates": {
					"creation": {
						"codeDepositCost": "1718600",
						"executionCost": "infinite",
						"totalCost": "infinite"
					},
					"external": {
						"acceptOwnership()": "54540",
						"fact()": "infinite",
						"fulfill(bytes32,string)": "infinite",
						"owner()": "2544",
						"requestVolumeData(uint256)": "infinite",
						"transferOwnership(address)": "30726",
						"withdrawLink()": "infinite"
					}
				},
				"methodIdentifiers": {
					"acceptOwnership()": "79ba5097",
					"fact()": "73e3ce80",
					"fulfill(bytes32,string)": "37441996",
					"owner()": "8da5cb5b",
					"requestVolumeData(uint256)": "684ede7f",
					"transferOwnership(address)": "f2fde38b",
					"withdrawLink()": "8dc654a2"
				}
			},
			"storageLayout": {
				"storage": [
					{
						"astId": 319,
						"contract": "docs.chain.link/samples/APIRequests/APIConsumer.sol:APIConsumer",
						"label": "s_ens",
						"offset": 0,
						"slot": "0",
						"type": "t_contract(ENSInterface)1156"
					},
					{
						"astId": 321,
						"contract": "docs.chain.link/samples/APIRequests/APIConsumer.sol:APIConsumer",
						"label": "s_ensNode",
						"offset": 0,
						"slot": "1",
						"type": "t_bytes32"
					},
					{
						"astId": 324,
						"contract": "docs.chain.link/samples/APIRequests/APIConsumer.sol:APIConsumer",
						"label": "s_link",
						"offset": 0,
						"slot": "2",
						"type": "t_contract(LinkTokenInterface)1251"
					},
					{
						"astId": 327,
						"contract": "docs.chain.link/samples/APIRequests/APIConsumer.sol:APIConsumer",
						"label": "s_oracle",
						"offset": 0,
						"slot": "3",
						"type": "t_contract(OperatorInterface)1331"
					},
					{
						"astId": 330,
						"contract": "docs.chain.link/samples/APIRequests/APIConsumer.sol:APIConsumer",
						"label": "s_requestCount",
						"offset": 0,
						"slot": "4",
						"type": "t_uint256"
					},
					{
						"astId": 334,
						"contract": "docs.chain.link/samples/APIRequests/APIConsumer.sol:APIConsumer",
						"label": "s_pendingRequests",
						"offset": 0,
						"slot": "5",
						"type": "t_mapping(t_bytes32,t_address)"
					},
					{
						"astId": 889,
						"contract": "docs.chain.link/samples/APIRequests/APIConsumer.sol:APIConsumer",
						"label": "s_owner",
						"offset": 0,
						"slot": "6",
						"type": "t_address"
					},
					{
						"astId": 891,
						"contract": "docs.chain.link/samples/APIRequests/APIConsumer.sol:APIConsumer",
						"label": "s_pendingOwner",
						"offset": 0,
						"slot": "7",
						"type": "t_address"
					},
					{
						"astId": 2388,
						"contract": "docs.chain.link/samples/APIRequests/APIConsumer.sol:APIConsumer",
						"label": "fact",
						"offset": 0,
						"slot": "8",
						"type": "t_string_storage"
					},
					{
						"astId": 2390,
						"contract": "docs.chain.link/samples/APIRequests/APIConsumer.sol:APIConsumer",
						"label": "jobId",
						"offset": 0,
						"slot": "9",
						"type": "t_bytes32"
					},
					{
						"astId": 2392,
						"contract": "docs.chain.link/samples/APIRequests/APIConsumer.sol:APIConsumer",
						"label": "fee",
						"offset": 0,
						"slot": "10",
						"type": "t_uint256"
					}
				],
				"types": {
					"t_address": {
						"encoding": "inplace",
						"label": "address",
						"numberOfBytes": "20"
					},
					"t_bytes32": {
						"encoding": "inplace",
						"label": "bytes32",
						"numberOfBytes": "32"
					},
					"t_contract(ENSInterface)1156": {
						"encoding": "inplace",
						"label": "contract ENSInterface",
						"numberOfBytes": "20"
					},
					"t_contract(LinkTokenInterface)1251": {
						"encoding": "inplace",
						"label": "contract LinkTokenInterface",
						"numberOfBytes": "20"
					},
					"t_contract(OperatorInterface)1331": {
						"encoding": "inplace",
						"label": "contract OperatorInterface",
						"numberOfBytes": "20"
					},
					"t_mapping(t_bytes32,t_address)": {
						"encoding": "mapping",
						"key": "t_bytes32",
						"label": "mapping(bytes32 => address)",
						"numberOfBytes": "32",
						"value": "t_address"
					},
					"t_string_storage": {
						"encoding": "bytes",
						"label": "string",
						"numberOfBytes": "32"
					},
					"t_uint256": {
						"encoding": "inplace",
						"label": "uint256",
						"numberOfBytes": "32"
					}
				}
			},
			"userdoc": {
				"kind": "user",
				"methods": {
					"acceptOwnership()": {
						"notice": "Allows an ownership transfer to be completed by the recipient."
					},
					"constructor": {
						"notice": "Initialize the link token and target oracle Sepolia Testnet details: Link Token: 0x779877A7B0D9E8603169DdbD7836e478b4624789 Oracle: 0x6090149792dAAeE9D1D568c9f9a6F6B46AA29eFD (Chainlink DevRel) jobId: ca98366cc7314957b8c012c72f05aeeb"
					},
					"fulfill(bytes32,string)": {
						"notice": "Receive the response in the form of uint256"
					},
					"owner()": {
						"notice": "Get the current owner"
					},
					"requestVolumeData(uint256)": {
						"notice": "Create a Chainlink request to retrieve API response, find the target data, then multiply by 1000000000000000000 (to remove decimal places from data)."
					},
					"transferOwnership(address)": {
						"notice": "Allows an owner to begin transferring ownership to a new address, pending."
					},
					"withdrawLink()": {
						"notice": "Allow withdraw of Link tokens from the contract"
					}
				},
				"notice": "THIS IS AN EXAMPLE CONTRACT WHICH USES HARDCODED VALUES FOR CLARITY. THIS EXAMPLE USES UN-AUDITED CODE. DO NOT USE THIS CODE IN PRODUCTION.",
				"version": 1
			}
		}
	}
}